{
  "contractName": "RFT",
  "abi": [
    {
      "constant": true,
      "inputs": [
        {
          "name": "_interfaceId",
          "type": "bytes4"
        }
      ],
      "name": "supportsInterface",
      "outputs": [
        {
          "name": "",
          "type": "bool"
        }
      ],
      "payable": false,
      "stateMutability": "view",
      "type": "function"
    },
    {
      "constant": true,
      "inputs": [],
      "name": "name",
      "outputs": [
        {
          "name": "",
          "type": "string"
        }
      ],
      "payable": false,
      "stateMutability": "view",
      "type": "function"
    },
    {
      "constant": true,
      "inputs": [
        {
          "name": "_tokenId",
          "type": "uint256"
        }
      ],
      "name": "getApproved",
      "outputs": [
        {
          "name": "",
          "type": "address"
        }
      ],
      "payable": false,
      "stateMutability": "view",
      "type": "function"
    },
    {
      "constant": false,
      "inputs": [
        {
          "name": "_to",
          "type": "address"
        },
        {
          "name": "_tokenId",
          "type": "uint256"
        }
      ],
      "name": "approve",
      "outputs": [],
      "payable": false,
      "stateMutability": "nonpayable",
      "type": "function"
    },
    {
      "constant": true,
      "inputs": [],
      "name": "totalSupply",
      "outputs": [
        {
          "name": "",
          "type": "uint256"
        }
      ],
      "payable": false,
      "stateMutability": "view",
      "type": "function"
    },
    {
      "constant": true,
      "inputs": [],
      "name": "InterfaceId_ERC165",
      "outputs": [
        {
          "name": "",
          "type": "bytes4"
        }
      ],
      "payable": false,
      "stateMutability": "view",
      "type": "function"
    },
    {
      "constant": false,
      "inputs": [
        {
          "name": "_from",
          "type": "address"
        },
        {
          "name": "_to",
          "type": "address"
        },
        {
          "name": "_tokenId",
          "type": "uint256"
        }
      ],
      "name": "transferFrom",
      "outputs": [],
      "payable": false,
      "stateMutability": "nonpayable",
      "type": "function"
    },
    {
      "constant": true,
      "inputs": [
        {
          "name": "_owner",
          "type": "address"
        },
        {
          "name": "_index",
          "type": "uint256"
        }
      ],
      "name": "tokenOfOwnerByIndex",
      "outputs": [
        {
          "name": "",
          "type": "uint256"
        }
      ],
      "payable": false,
      "stateMutability": "view",
      "type": "function"
    },
    {
      "constant": false,
      "inputs": [
        {
          "name": "_from",
          "type": "address"
        },
        {
          "name": "_to",
          "type": "address"
        },
        {
          "name": "_tokenId",
          "type": "uint256"
        }
      ],
      "name": "safeTransferFrom",
      "outputs": [],
      "payable": false,
      "stateMutability": "nonpayable",
      "type": "function"
    },
    {
      "constant": true,
      "inputs": [
        {
          "name": "_index",
          "type": "uint256"
        }
      ],
      "name": "tokenByIndex",
      "outputs": [
        {
          "name": "",
          "type": "uint256"
        }
      ],
      "payable": false,
      "stateMutability": "view",
      "type": "function"
    },
    {
      "constant": true,
      "inputs": [
        {
          "name": "_tokenId",
          "type": "uint256"
        }
      ],
      "name": "ownerOf",
      "outputs": [
        {
          "name": "",
          "type": "address"
        }
      ],
      "payable": false,
      "stateMutability": "view",
      "type": "function"
    },
    {
      "constant": true,
      "inputs": [
        {
          "name": "",
          "type": "uint256"
        }
      ],
      "name": "nftValues",
      "outputs": [
        {
          "name": "",
          "type": "uint256"
        }
      ],
      "payable": false,
      "stateMutability": "view",
      "type": "function"
    },
    {
      "constant": true,
      "inputs": [
        {
          "name": "_owner",
          "type": "address"
        }
      ],
      "name": "balanceOf",
      "outputs": [
        {
          "name": "",
          "type": "uint256"
        }
      ],
      "payable": false,
      "stateMutability": "view",
      "type": "function"
    },
    {
      "constant": false,
      "inputs": [],
      "name": "renounceOwnership",
      "outputs": [],
      "payable": false,
      "stateMutability": "nonpayable",
      "type": "function"
    },
    {
      "constant": true,
      "inputs": [],
      "name": "owner",
      "outputs": [
        {
          "name": "",
          "type": "address"
        }
      ],
      "payable": false,
      "stateMutability": "view",
      "type": "function"
    },
    {
      "constant": true,
      "inputs": [],
      "name": "symbol",
      "outputs": [
        {
          "name": "",
          "type": "string"
        }
      ],
      "payable": false,
      "stateMutability": "view",
      "type": "function"
    },
    {
      "constant": false,
      "inputs": [
        {
          "name": "_to",
          "type": "address"
        },
        {
          "name": "_approved",
          "type": "bool"
        }
      ],
      "name": "setApprovalForAll",
      "outputs": [],
      "payable": false,
      "stateMutability": "nonpayable",
      "type": "function"
    },
    {
      "constant": true,
      "inputs": [
        {
          "name": "",
          "type": "uint256"
        }
      ],
      "name": "_allTokens",
      "outputs": [
        {
          "name": "",
          "type": "uint256"
        }
      ],
      "payable": false,
      "stateMutability": "view",
      "type": "function"
    },
    {
      "constant": false,
      "inputs": [
        {
          "name": "_from",
          "type": "address"
        },
        {
          "name": "_to",
          "type": "address"
        },
        {
          "name": "_tokenId",
          "type": "uint256"
        },
        {
          "name": "_data",
          "type": "bytes"
        }
      ],
      "name": "safeTransferFrom",
      "outputs": [],
      "payable": false,
      "stateMutability": "nonpayable",
      "type": "function"
    },
    {
      "constant": true,
      "inputs": [
        {
          "name": "_tokenId",
          "type": "uint256"
        }
      ],
      "name": "tokenURI",
      "outputs": [
        {
          "name": "",
          "type": "string"
        }
      ],
      "payable": false,
      "stateMutability": "view",
      "type": "function"
    },
    {
      "constant": true,
      "inputs": [
        {
          "name": "",
          "type": "uint256"
        }
      ],
      "name": "ftAddresses",
      "outputs": [
        {
          "name": "",
          "type": "address"
        }
      ],
      "payable": false,
      "stateMutability": "view",
      "type": "function"
    },
    {
      "constant": true,
      "inputs": [
        {
          "name": "_owner",
          "type": "address"
        },
        {
          "name": "_operator",
          "type": "address"
        }
      ],
      "name": "isApprovedForAll",
      "outputs": [
        {
          "name": "",
          "type": "bool"
        }
      ],
      "payable": false,
      "stateMutability": "view",
      "type": "function"
    },
    {
      "constant": false,
      "inputs": [
        {
          "name": "_newOwner",
          "type": "address"
        }
      ],
      "name": "transferOwnership",
      "outputs": [],
      "payable": false,
      "stateMutability": "nonpayable",
      "type": "function"
    },
    {
      "inputs": [
        {
          "name": "_name",
          "type": "string"
        },
        {
          "name": "_symbol",
          "type": "string"
        }
      ],
      "payable": false,
      "stateMutability": "nonpayable",
      "type": "constructor"
    },
    {
      "anonymous": false,
      "inputs": [
        {
          "indexed": true,
          "name": "previousOwner",
          "type": "address"
        }
      ],
      "name": "OwnershipRenounced",
      "type": "event"
    },
    {
      "anonymous": false,
      "inputs": [
        {
          "indexed": true,
          "name": "previousOwner",
          "type": "address"
        },
        {
          "indexed": true,
          "name": "newOwner",
          "type": "address"
        }
      ],
      "name": "OwnershipTransferred",
      "type": "event"
    },
    {
      "anonymous": false,
      "inputs": [
        {
          "indexed": true,
          "name": "from",
          "type": "address"
        },
        {
          "indexed": true,
          "name": "to",
          "type": "address"
        },
        {
          "indexed": true,
          "name": "tokenId",
          "type": "uint256"
        }
      ],
      "name": "Transfer",
      "type": "event"
    },
    {
      "anonymous": false,
      "inputs": [
        {
          "indexed": true,
          "name": "owner",
          "type": "address"
        },
        {
          "indexed": true,
          "name": "approved",
          "type": "address"
        },
        {
          "indexed": true,
          "name": "tokenId",
          "type": "uint256"
        }
      ],
      "name": "Approval",
      "type": "event"
    },
    {
      "anonymous": false,
      "inputs": [
        {
          "indexed": true,
          "name": "owner",
          "type": "address"
        },
        {
          "indexed": true,
          "name": "operator",
          "type": "address"
        },
        {
          "indexed": false,
          "name": "approved",
          "type": "bool"
        }
      ],
      "name": "ApprovalForAll",
      "type": "event"
    },
    {
      "constant": false,
      "inputs": [
        {
          "name": "_name",
          "type": "string"
        },
        {
          "name": "_symbol",
          "type": "string"
        },
        {
          "name": "_decimals",
          "type": "uint256"
        },
        {
          "name": "_tokenOwner",
          "type": "address"
        },
        {
          "name": "_fungibleTokenSupply",
          "type": "uint256"
        }
      ],
      "name": "mint",
      "outputs": [
        {
          "name": "",
          "type": "uint256"
        }
      ],
      "payable": false,
      "stateMutability": "nonpayable",
      "type": "function"
    },
    {
      "constant": false,
      "inputs": [
        {
          "name": "_owner",
          "type": "address"
        },
        {
          "name": "_tokenId",
          "type": "uint256"
        }
      ],
      "name": "burn",
      "outputs": [
        {
          "name": "",
          "type": "bool"
        }
      ],
      "payable": false,
      "stateMutability": "nonpayable",
      "type": "function"
    },
    {
      "constant": true,
      "inputs": [
        {
          "name": "_tokenId",
          "type": "uint256"
        }
      ],
      "name": "nftValue",
      "outputs": [
        {
          "name": "",
          "type": "uint256"
        }
      ],
      "payable": false,
      "stateMutability": "view",
      "type": "function"
    },
    {
      "constant": true,
      "inputs": [
        {
          "name": "_tokenId",
          "type": "uint256"
        },
        {
          "name": "_holder",
          "type": "address"
        }
      ],
      "name": "ftHolderBalance",
      "outputs": [
        {
          "name": "",
          "type": "uint256"
        }
      ],
      "payable": false,
      "stateMutability": "view",
      "type": "function"
    },
    {
      "constant": true,
      "inputs": [
        {
          "name": "_tokenId",
          "type": "uint256"
        },
        {
          "name": "_indexFrom",
          "type": "uint256"
        },
        {
          "name": "_indexTo",
          "type": "uint256"
        }
      ],
      "name": "ftHoldersBalances",
      "outputs": [
        {
          "name": "",
          "type": "address[]"
        },
        {
          "name": "",
          "type": "uint256[]"
        }
      ],
      "payable": false,
      "stateMutability": "view",
      "type": "function"
    },
    {
      "constant": true,
      "inputs": [
        {
          "name": "_tokenId",
          "type": "uint256"
        }
      ],
      "name": "ftHoldersCount",
      "outputs": [
        {
          "name": "",
          "type": "uint256"
        }
      ],
      "payable": false,
      "stateMutability": "view",
      "type": "function"
    },
    {
      "constant": true,
      "inputs": [
        {
          "name": "_tokenId",
          "type": "uint256"
        }
      ],
      "name": "ftAddress",
      "outputs": [
        {
          "name": "_ftAddress",
          "type": "address"
        }
      ],
      "payable": false,
      "stateMutability": "view",
      "type": "function"
    }
  ],
  "bytecode": "0x60806040523480156200001157600080fd5b50604051620055c8380380620055c8833981018060405281019080805182019291906020018051820192919050505081818181620000816301ffc9a77c0100000000000000000000000000000000000000000000000000000000026200017a640100000000026401000000009004565b620000be6380ac58cd7c0100000000000000000000000000000000000000000000000000000000026200017a640100000000026401000000009004565b8160059080519060200190620000d692919062000238565b508060069080519060200190620000ef92919062000238565b5050506200012f63780e9d637c0100000000000000000000000000000000000000000000000000000000026200017a640100000000026401000000009004565b505033600c60006101000a81548173ffffffffffffffffffffffffffffffffffffffff021916908373ffffffffffffffffffffffffffffffffffffffff1602179055505050620002e7565b63ffffffff7c010000000000000000000000000000000000000000000000000000000002817bffffffffffffffffffffffffffffffffffffffffffffffffffffffff191614151515620001cc57600080fd5b6001600080837bffffffffffffffffffffffffffffffffffffffffffffffffffffffff19167bffffffffffffffffffffffffffffffffffffffffffffffffffffffff1916815260200190815260200160002060006101000a81548160ff02191690831515021790555050565b828054600181600116156101000203166002900490600052602060002090601f016020900481019282601f106200027b57805160ff1916838001178555620002ac565b82800160010185558215620002ac579182015b82811115620002ab5782518255916020019190600101906200028e565b5b509050620002bb9190620002bf565b5090565b620002e491905b80821115620002e0576000816000905550600101620002c6565b5090565b90565b6152d180620002f76000396000f3006080604052600436106200019f576000357c0100000000000000000000000000000000000000000000000000000000900463ffffffff16806301ffc9a714620001a457806306fdde03146200020b578063081812fc14620002a1578063095ea7b3146200031157806318160ddd146200036157806319fa8f50146200038f57806323b872dd14620003fb5780632f745c59146200046b57806342842e0e14620004cf578063439c5f0b146200053f5780634f6ccce714620006245780636352211e146200066857806364ff8fe114620006d8578063677ed49514620007485780636bef1d4a146200078c57806370a0823114620007d0578063715018a6146200082a5780637c05a2a714620008445780637ef791f714620008885780638da5cb5b14620008ec57806395d89b41146200094657806399adc78214620009dc5780639dc29fac1462000ad6578063a22cb4651462000b3e578063aa5965ae1462000b90578063b88d4fde1462000bd4578063c87b56dd1462000c8a578063cfcc1fac1462000d36578063e985e9c51462000da6578063f2fde38b1462000e24575b600080fd5b348015620001b157600080fd5b50620001f160048036038101908080357bffffffffffffffffffffffffffffffffffffffffffffffffffffffff1916906020019092919050505062000e6a565b604051808215151515815260200191505060405180910390f35b3480156200021857600080fd5b506200022362000ed1565b6040518080602001828103825283818151815260200191508051906020019080838360005b838110156200026557808201518184015260208101905062000248565b50505050905090810190601f168015620002935780820380516001836020036101000a031916815260200191505b509250505060405180910390f35b348015620002ae57600080fd5b50620002cf6004803603810190808035906020019092919050505062000f77565b604051808273ffffffffffffffffffffffffffffffffffffffff1673ffffffffffffffffffffffffffffffffffffffff16815260200191505060405180910390f35b3480156200031e57600080fd5b506200035f600480360381019080803573ffffffffffffffffffffffffffffffffffffffff1690602001909291908035906020019092919050505062000fcb565b005b3480156200036e57600080fd5b506200037962001117565b6040518082815260200191505060405180910390f35b3480156200039c57600080fd5b50620003a762001124565b60405180827bffffffffffffffffffffffffffffffffffffffffffffffffffffffff19167bffffffffffffffffffffffffffffffffffffffffffffffffffffffff1916815260200191505060405180910390f35b3480156200040857600080fd5b5062000469600480360381019080803573ffffffffffffffffffffffffffffffffffffffff169060200190929190803573ffffffffffffffffffffffffffffffffffffffff169060200190929190803590602001909291905050506200114b565b005b3480156200047857600080fd5b50620004b9600480360381019080803573ffffffffffffffffffffffffffffffffffffffff1690602001909291908035906020019092919050505062001224565b6040518082815260200191505060405180910390f35b348015620004dc57600080fd5b506200053d600480360381019080803573ffffffffffffffffffffffffffffffffffffffff169060200190929190803573ffffffffffffffffffffffffffffffffffffffff169060200190929190803590602001909291905050506200129f565b005b3480156200054c57600080fd5b5062000581600480360381019080803590602001909291908035906020019092919080359060200190929190505050620012c2565b604051808060200180602001838103835285818151815260200191508051906020019060200280838360005b83811015620005ca578082015181840152602081019050620005ad565b50505050905001838103825284818151815260200191508051906020019060200280838360005b838110156200060e578082015181840152602081019050620005f1565b5050505090500194505050505060405180910390f35b3480156200063157600080fd5b50620006526004803603810190808035906020019092919050505062001464565b6040518082815260200191505060405180910390f35b3480156200067557600080fd5b506200069660048036038101908080359060200190929190505050620014a0565b604051808273ffffffffffffffffffffffffffffffffffffffff1673ffffffffffffffffffffffffffffffffffffffff16815260200191505060405180910390f35b348015620006e557600080fd5b5062000706600480360381019080803590602001909291905050506200151f565b604051808273ffffffffffffffffffffffffffffffffffffffff1673ffffffffffffffffffffffffffffffffffffffff16815260200191505060405180910390f35b3480156200075557600080fd5b5062000776600480360381019080803590602001909291905050506200155c565b6040518082815260200191505060405180910390f35b3480156200079957600080fd5b50620007ba6004803603810190808035906020019092919050505062001574565b6040518082815260200191505060405180910390f35b348015620007dd57600080fd5b5062000814600480360381019080803573ffffffffffffffffffffffffffffffffffffffff16906020019092919050505062001652565b6040518082815260200191505060405180910390f35b3480156200083757600080fd5b5062000842620016d7565b005b3480156200085157600080fd5b506200087260048036038101908080359060200190929190505050620017dd565b6040518082815260200191505060405180910390f35b3480156200089557600080fd5b50620008d660048036038101908080359060200190929190803573ffffffffffffffffffffffffffffffffffffffff169060200190929190505050620017fa565b6040518082815260200191505060405180910390f35b348015620008f957600080fd5b506200090462001910565b604051808273ffffffffffffffffffffffffffffffffffffffff1673ffffffffffffffffffffffffffffffffffffffff16815260200191505060405180910390f35b3480156200095357600080fd5b506200095e62001936565b6040518080602001828103825283818151815260200191508051906020019080838360005b83811015620009a057808201518184015260208101905062000983565b50505050905090810190601f168015620009ce5780820380516001836020036101000a031916815260200191505b509250505060405180910390f35b348015620009e957600080fd5b5062000ac0600480360381019080803590602001908201803590602001908080601f0160208091040260200160405190810160405280939291908181526020018383808284378201915050505050509192919290803590602001908201803590602001908080601f016020809104026020016040519081016040528093929190818152602001838380828437820191505050505050919291929080359060200190929190803573ffffffffffffffffffffffffffffffffffffffff16906020019092919080359060200190929190505050620019dc565b6040518082815260200191505060405180910390f35b34801562000ae357600080fd5b5062000b24600480360381019080803573ffffffffffffffffffffffffffffffffffffffff1690602001909291908035906020019092919050505062001a92565b604051808215151515815260200191505060405180910390f35b34801562000b4b57600080fd5b5062000b8e600480360381019080803573ffffffffffffffffffffffffffffffffffffffff16906020019092919080351515906020019092919050505062001b29565b005b34801562000b9d57600080fd5b5062000bbe6004803603810190808035906020019092919050505062001c66565b6040518082815260200191505060405180910390f35b34801562000be157600080fd5b5062000c88600480360381019080803573ffffffffffffffffffffffffffffffffffffffff169060200190929190803573ffffffffffffffffffffffffffffffffffffffff16906020019092919080359060200190929190803590602001908201803590602001908080601f016020809104026020016040519081016040528093929190818152602001838380828437820191505050505050919291929050505062001c8a565b005b34801562000c9757600080fd5b5062000cb86004803603810190808035906020019092919050505062001cb7565b6040518080602001828103825283818151815260200191508051906020019080838360005b8381101562000cfa57808201518184015260208101905062000cdd565b50505050905090810190601f16801562000d285780820380516001836020036101000a031916815260200191505b509250505060405180910390f35b34801562000d4357600080fd5b5062000d646004803603810190808035906020019092919050505062001d87565b604051808273ffffffffffffffffffffffffffffffffffffffff1673ffffffffffffffffffffffffffffffffffffffff16815260200191505060405180910390f35b34801562000db357600080fd5b5062000e0a600480360381019080803573ffffffffffffffffffffffffffffffffffffffff169060200190929190803573ffffffffffffffffffffffffffffffffffffffff16906020019092919050505062001dba565b604051808215151515815260200191505060405180910390f35b34801562000e3157600080fd5b5062000e68600480360381019080803573ffffffffffffffffffffffffffffffffffffffff16906020019092919050505062001e4e565b005b6000806000837bffffffffffffffffffffffffffffffffffffffffffffffffffffffff19167bffffffffffffffffffffffffffffffffffffffffffffffffffffffff1916815260200190815260200160002060009054906101000a900460ff169050919050565b606060058054600181600116156101000203166002900480601f01602080910402602001604051908101604052809291908181526020018280546001816001161561010002031660029004801562000f6d5780601f1062000f415761010080835404028352916020019162000f6d565b820191906000526020600020905b81548152906001019060200180831162000f4f57829003601f168201915b5050505050905090565b600062000f848262001eb9565b151562000f9057600080fd5b6002600083815260200190815260200160002060009054906101000a900473ffffffffffffffffffffffffffffffffffffffff169050919050565b600062000fd882620014a0565b90508073ffffffffffffffffffffffffffffffffffffffff168373ffffffffffffffffffffffffffffffffffffffff16141515156200101657600080fd5b8073ffffffffffffffffffffffffffffffffffffffff163373ffffffffffffffffffffffffffffffffffffffff16148062001059575062001058813362001dba565b5b15156200106557600080fd5b826002600084815260200190815260200160002060006101000a81548173ffffffffffffffffffffffffffffffffffffffff021916908373ffffffffffffffffffffffffffffffffffffffff160217905550818373ffffffffffffffffffffffffffffffffffffffff168273ffffffffffffffffffffffffffffffffffffffff167f8c5be1e5ebec7d5bd14f71427d1e84f3dd0314c0f7b2291e5b200ac8c7c3b92560405160405180910390a4505050565b6000600a80549050905090565b6301ffc9a77c01000000000000000000000000000000000000000000000000000000000281565b62001157338262001f2b565b15156200116357600080fd5b600073ffffffffffffffffffffffffffffffffffffffff168273ffffffffffffffffffffffffffffffffffffffff1614151515620011a057600080fd5b620011ac838262001fc8565b620011b88382620020cf565b620011c4828262002293565b808273ffffffffffffffffffffffffffffffffffffffff168473ffffffffffffffffffffffffffffffffffffffff167fddf252ad1be2c89b69c2b068fc378daa952ba7f163c4a11628f55a4df523b3ef60405160405180910390a4505050565b6000620012318362001652565b821015156200123f57600080fd5b600860008473ffffffffffffffffffffffffffffffffffffffff1673ffffffffffffffffffffffffffffffffffffffff168152602001908152602001600020828154811015156200128c57fe5b9060005260206000200154905092915050565b620012bd838383602060405190810160405280600081525062001c8a565b505050565b606080600d600086815260200190815260200160002060009054906101000a900473ffffffffffffffffffffffffffffffffffffffff1673ffffffffffffffffffffffffffffffffffffffff1663aed6176e85856040518363ffffffff167c01000000000000000000000000000000000000000000000000000000000281526004018083815260200182815260200192505050600060405180830381600087803b1580156200137057600080fd5b505af115801562001385573d6000803e3d6000fd5b505050506040513d6000823e3d601f19601f820116820180604052506040811015620013b057600080fd5b810190808051640100000000811115620013c957600080fd5b82810190506020810184811115620013e057600080fd5b8151856020820283011164010000000082111715620013fe57600080fd5b505092919060200180516401000000008111156200141b57600080fd5b828101905060208101848111156200143257600080fd5b81518560208202830111640100000000821117156200145057600080fd5b505092919050505091509150935093915050565b60006200147062001117565b821015156200147e57600080fd5b600a828154811015156200148e57fe5b90600052602060002001549050919050565b6000806001600084815260200190815260200160002060009054906101000a900473ffffffffffffffffffffffffffffffffffffffff169050600073ffffffffffffffffffffffffffffffffffffffff168173ffffffffffffffffffffffffffffffffffffffff16141515156200151657600080fd5b80915050919050565b6000600d600083815260200190815260200160002060009054906101000a900473ffffffffffffffffffffffffffffffffffffffff169050919050565b600e6020528060005260406000206000915090505481565b6000600d600083815260200190815260200160002060009054906101000a900473ffffffffffffffffffffffffffffffffffffffff1673ffffffffffffffffffffffffffffffffffffffff16636b4ed21b6040518163ffffffff167c0100000000000000000000000000000000000000000000000000000000028152600401602060405180830381600087803b1580156200160e57600080fd5b505af115801562001623573d6000803e3d6000fd5b505050506040513d60208110156200163a57600080fd5b81019080805190602001909291905050509050919050565b60008073ffffffffffffffffffffffffffffffffffffffff168273ffffffffffffffffffffffffffffffffffffffff16141515156200169057600080fd5b600360008373ffffffffffffffffffffffffffffffffffffffff1673ffffffffffffffffffffffffffffffffffffffff168152602001908152602001600020549050919050565b600c60009054906101000a900473ffffffffffffffffffffffffffffffffffffffff1673ffffffffffffffffffffffffffffffffffffffff163373ffffffffffffffffffffffffffffffffffffffff161415156200173457600080fd5b600c60009054906101000a900473ffffffffffffffffffffffffffffffffffffffff1673ffffffffffffffffffffffffffffffffffffffff167ff8df31144d9c2f0f6b59d69b8b98abd5459d07f2742c4df920b25aae33c6482060405160405180910390a26000600c60006101000a81548173ffffffffffffffffffffffffffffffffffffffff021916908373ffffffffffffffffffffffffffffffffffffffff160217905550565b6000600e6000838152602001908152602001600020549050919050565b6000600d600084815260200190815260200160002060009054906101000a900473ffffffffffffffffffffffffffffffffffffffff1673ffffffffffffffffffffffffffffffffffffffff166370a08231836040518263ffffffff167c0100000000000000000000000000000000000000000000000000000000028152600401808273ffffffffffffffffffffffffffffffffffffffff1673ffffffffffffffffffffffffffffffffffffffff168152602001915050602060405180830381600087803b158015620018cb57600080fd5b505af1158015620018e0573d6000803e3d6000fd5b505050506040513d6020811015620018f757600080fd5b8101908080519060200190929190505050905092915050565b600c60009054906101000a900473ffffffffffffffffffffffffffffffffffffffff1681565b606060068054600181600116156101000203166002900480601f016020809104026020016040519081016040528092919081815260200182805460018160011615610100020316600290048015620019d25780601f10620019a657610100808354040283529160200191620019d2565b820191906000526020600020905b815481529060010190602001808311620019b457829003601f168201915b5050505050905090565b6000806000600a805490509150620019f98888888888876200236c565b90506001151562001a0b868462002567565b151514151562001a1a57600080fd5b80600d600084815260200190815260200160002060006101000a81548173ffffffffffffffffffffffffffffffffffffffff021916908373ffffffffffffffffffffffffffffffffffffffff16021790555083600e600084815260200190815260200160002081905550819250505095945050505050565b60006001151562001aa48484620025db565b151514151562001ab357600080fd5b6000600d600084815260200190815260200160002060006101000a81548173ffffffffffffffffffffffffffffffffffffffff021916908373ffffffffffffffffffffffffffffffffffffffff1602179055506000600e6000848152602001908152602001600020819055506001905092915050565b3373ffffffffffffffffffffffffffffffffffffffff168273ffffffffffffffffffffffffffffffffffffffff161415151562001b6557600080fd5b80600460003373ffffffffffffffffffffffffffffffffffffffff1673ffffffffffffffffffffffffffffffffffffffff16815260200190815260200160002060008473ffffffffffffffffffffffffffffffffffffffff1673ffffffffffffffffffffffffffffffffffffffff16815260200190815260200160002060006101000a81548160ff0219169083151502179055508173ffffffffffffffffffffffffffffffffffffffff163373ffffffffffffffffffffffffffffffffffffffff167f17307eab39ab6107e8899845ad3d59bd9653f200f220920489ca2b5937696c3183604051808215151515815260200191505060405180910390a35050565b600a8181548110151562001c7657fe5b906000526020600020016000915090505481565b62001c978484846200114b565b62001ca584848484620026e5565b151562001cb157600080fd5b50505050565b606062001cc48262001eb9565b151562001cd057600080fd5b600760008381526020019081526020016000208054600181600116156101000203166002900480601f01602080910402602001604051908101604052809291908181526020018280546001816001161561010002031660029004801562001d7b5780601f1062001d4f5761010080835404028352916020019162001d7b565b820191906000526020600020905b81548152906001019060200180831162001d5d57829003601f168201915b50505050509050919050565b600d6020528060005260406000206000915054906101000a900473ffffffffffffffffffffffffffffffffffffffff1681565b6000600460008473ffffffffffffffffffffffffffffffffffffffff1673ffffffffffffffffffffffffffffffffffffffff16815260200190815260200160002060008373ffffffffffffffffffffffffffffffffffffffff1673ffffffffffffffffffffffffffffffffffffffff16815260200190815260200160002060009054906101000a900460ff16905092915050565b600c60009054906101000a900473ffffffffffffffffffffffffffffffffffffffff1673ffffffffffffffffffffffffffffffffffffffff163373ffffffffffffffffffffffffffffffffffffffff1614151562001eab57600080fd5b62001eb68162002911565b50565b6000806001600084815260200190815260200160002060009054906101000a900473ffffffffffffffffffffffffffffffffffffffff169050600073ffffffffffffffffffffffffffffffffffffffff168173ffffffffffffffffffffffffffffffffffffffff161415915050919050565b60008062001f3983620014a0565b90508073ffffffffffffffffffffffffffffffffffffffff168473ffffffffffffffffffffffffffffffffffffffff16148062001fab57508373ffffffffffffffffffffffffffffffffffffffff1662001f938462000f77565b73ffffffffffffffffffffffffffffffffffffffff16145b8062001fbf575062001fbe818562001dba565b5b91505092915050565b8173ffffffffffffffffffffffffffffffffffffffff1662001fea82620014a0565b73ffffffffffffffffffffffffffffffffffffffff161415156200200d57600080fd5b600073ffffffffffffffffffffffffffffffffffffffff166002600083815260200190815260200160002060009054906101000a900473ffffffffffffffffffffffffffffffffffffffff1673ffffffffffffffffffffffffffffffffffffffff16141515620020cb5760006002600083815260200190815260200160002060006101000a81548173ffffffffffffffffffffffffffffffffffffffff021916908373ffffffffffffffffffffffffffffffffffffffff1602179055505b5050565b6000806000620020e0858562002a0e565b600960008581526020019081526020016000205492506200214e6001600860008873ffffffffffffffffffffffffffffffffffffffff1673ffffffffffffffffffffffffffffffffffffffff1681526020019081526020016000208054905062002b4290919063ffffffff16565b9150600860008673ffffffffffffffffffffffffffffffffffffffff1673ffffffffffffffffffffffffffffffffffffffff168152602001908152602001600020828154811015156200219d57fe5b9060005260206000200154905080600860008773ffffffffffffffffffffffffffffffffffffffff1673ffffffffffffffffffffffffffffffffffffffff16815260200190815260200160002084815481101515620021f857fe5b9060005260206000200181905550600860008673ffffffffffffffffffffffffffffffffffffffff1673ffffffffffffffffffffffffffffffffffffffff1681526020019081526020016000208054809190600190036200225a919062002e86565b50600060096000868152602001908152602001600020819055508260096000838152602001908152602001600020819055505050505050565b6000620022a1838362002b5c565b600860008473ffffffffffffffffffffffffffffffffffffffff1673ffffffffffffffffffffffffffffffffffffffff168152602001908152602001600020805490509050600860008473ffffffffffffffffffffffffffffffffffffffff1673ffffffffffffffffffffffffffffffffffffffff168152602001908152602001600020829080600181540180825580915050906001820390600052602060002001600090919290919091505550806009600084815260200190815260200160002081905550505050565b6000806000861115156200237f57600080fd5b600073ffffffffffffffffffffffffffffffffffffffff168573ffffffffffffffffffffffffffffffffffffffff1614151515620023bc57600080fd5b600084111515620023cc57600080fd5b8787878630878a620023dd62002eb5565b8080602001806020018881526020018781526020018673ffffffffffffffffffffffffffffffffffffffff1673ffffffffffffffffffffffffffffffffffffffff1681526020018581526020018473ffffffffffffffffffffffffffffffffffffffff1673ffffffffffffffffffffffffffffffffffffffff16815260200183810383528a818151815260200191508051906020019080838360005b838110156200249657808201518184015260208101905062002479565b50505050905090810190601f168015620024c45780820380516001836020036101000a031916815260200191505b50838103825289818151815260200191508051906020019080838360005b83811015620024ff578082015181840152602081019050620024e2565b50505050905090810190601f1680156200252d5780820380516001836020036101000a031916815260200191505b509950505050505050505050604051809103906000f08015801562002556573d6000803e3d6000fd5b509050809150509695505050505050565b60006001151562002579848462002cb9565b15151415156200258857600080fd5b600a80549050600b600084815260200190815260200160002081905550600a8290806001815401808255809150509060018203906000526020600020016000909192909190915055506001905092915050565b60008060008060011515620025f1878762002d69565b15151415156200260057600080fd5b600b6000868152602001908152602001600020549250620026316001600a8054905062002b4290919063ffffffff16565b9150600a828154811015156200264357fe5b9060005260206000200154905080600a848154811015156200266157fe5b90600052602060002001819055506000600a838154811015156200268157fe5b9060005260206000200181905550600a805480919060019003620026a6919062002e86565b506000600b60008781526020019081526020016000208190555082600b6000838152602001908152602001600020819055506001935050505092915050565b600080620027098573ffffffffffffffffffffffffffffffffffffffff1662002dd6565b15156200271a576001915062002908565b8473ffffffffffffffffffffffffffffffffffffffff16634c3e3934338887876040518563ffffffff167c0100000000000000000000000000000000000000000000000000000000028152600401808573ffffffffffffffffffffffffffffffffffffffff1673ffffffffffffffffffffffffffffffffffffffff1681526020018473ffffffffffffffffffffffffffffffffffffffff1673ffffffffffffffffffffffffffffffffffffffff16815260200183815260200180602001828103825283818151815260200191508051906020019080838360005b8381101562002811578082015181840152602081019050620027f4565b50505050905090810190601f1680156200283f5780820380516001836020036101000a031916815260200191505b5095505050505050602060405180830381600087803b1580156200286257600080fd5b505af115801562002877573d6000803e3d6000fd5b505050506040513d60208110156200288e57600080fd5b8101908080519060200190929190505050905063150b7a027c0100000000000000000000000000000000000000000000000000000000027bffffffffffffffffffffffffffffffffffffffffffffffffffffffff1916817bffffffffffffffffffffffffffffffffffffffffffffffffffffffff19161491505b50949350505050565b600073ffffffffffffffffffffffffffffffffffffffff168173ffffffffffffffffffffffffffffffffffffffff16141515156200294e57600080fd5b8073ffffffffffffffffffffffffffffffffffffffff16600c60009054906101000a900473ffffffffffffffffffffffffffffffffffffffff1673ffffffffffffffffffffffffffffffffffffffff167f8be0079c531659141344cd1fd0a4f28419497f9722a3daafe3b4186f6b6457e060405160405180910390a380600c60006101000a81548173ffffffffffffffffffffffffffffffffffffffff021916908373ffffffffffffffffffffffffffffffffffffffff16021790555050565b8173ffffffffffffffffffffffffffffffffffffffff1662002a3082620014a0565b73ffffffffffffffffffffffffffffffffffffffff1614151562002a5357600080fd5b62002aa86001600360008573ffffffffffffffffffffffffffffffffffffffff1673ffffffffffffffffffffffffffffffffffffffff1681526020019081526020016000205462002b4290919063ffffffff16565b600360008473ffffffffffffffffffffffffffffffffffffffff1673ffffffffffffffffffffffffffffffffffffffff1681526020019081526020016000208190555060006001600083815260200190815260200160002060006101000a81548173ffffffffffffffffffffffffffffffffffffffff021916908373ffffffffffffffffffffffffffffffffffffffff1602179055505050565b600082821115151562002b5157fe5b818303905092915050565b600073ffffffffffffffffffffffffffffffffffffffff166001600083815260200190815260200160002060009054906101000a900473ffffffffffffffffffffffffffffffffffffffff1673ffffffffffffffffffffffffffffffffffffffff1614151562002bcb57600080fd5b816001600083815260200190815260200160002060006101000a81548173ffffffffffffffffffffffffffffffffffffffff021916908373ffffffffffffffffffffffffffffffffffffffff16021790555062002c726001600360008573ffffffffffffffffffffffffffffffffffffffff1673ffffffffffffffffffffffffffffffffffffffff1681526020019081526020016000205462002de990919063ffffffff16565b600360008473ffffffffffffffffffffffffffffffffffffffff1673ffffffffffffffffffffffffffffffffffffffff168152602001908152602001600020819055505050565b60008073ffffffffffffffffffffffffffffffffffffffff168373ffffffffffffffffffffffffffffffffffffffff161415151562002cf757600080fd5b62002d03838362002293565b818373ffffffffffffffffffffffffffffffffffffffff16600073ffffffffffffffffffffffffffffffffffffffff167fddf252ad1be2c89b69c2b068fc378daa952ba7f163c4a11628f55a4df523b3ef60405160405180910390a46001905092915050565b600062002d77838362002e06565b5060006007600084815260200190815260200160002080546001816001161561010002031660029004905014151562002dcc5760076000838152602001908152602001600020600062002dcb919062002ec6565b5b6001905092915050565b600080823b905060008111915050919050565b6000818301905082811015151562002dfd57fe5b80905092915050565b600062002e14838362001fc8565b62002e208383620020cf565b81600073ffffffffffffffffffffffffffffffffffffffff168473ffffffffffffffffffffffffffffffffffffffff167fddf252ad1be2c89b69c2b068fc378daa952ba7f163c4a11628f55a4df523b3ef60405160405180910390a46001905092915050565b81548183558181111562002eb05781836000526020600020918201910162002eaf919062002f12565b5b505050565b60405161236b8062002f3b83390190565b50805460018160011615610100020316600290046000825580601f1062002eee575062002f0f565b601f01602090049060005260206000209081019062002f0e919062002f12565b5b50565b62002f3791905b8082111562002f3357600081600090555060010162002f19565b5090565b90560060806040523480156200001157600080fd5b506040516200236b3803806200236b83398101806040528101908080518201929190602001805182019291906020018051906020019092919080519060200190929190805190602001909291908051906020019092919080519060200190929190505050838383838a8a8a6000811115156200008c57600080fd5b8260039080519060200190620000a4929190620002c4565b508160049080519060200190620000bd929190620002c4565b5080600581905550505050600084111515620000d857600080fd5b600073ffffffffffffffffffffffffffffffffffffffff168373ffffffffffffffffffffffffffffffffffffffff16141515156200011557600080fd5b600082101515156200012657600080fd5b600073ffffffffffffffffffffffffffffffffffffffff168173ffffffffffffffffffffffffffffffffffffffff16141515156200016357600080fd5b8360068190555082600760006101000a81548173ffffffffffffffffffffffffffffffffffffffff021916908373ffffffffffffffffffffffffffffffffffffffff16021790555081600881905550836000808373ffffffffffffffffffffffffffffffffffffffff1673ffffffffffffffffffffffffffffffffffffffff168152602001908152602001600020819055506001600960008373ffffffffffffffffffffffffffffffffffffffff1673ffffffffffffffffffffffffffffffffffffffff16815260200190815260200160002060006101000a81548160ff021916908315150217905550600a8190806001815401808255809150509060018203906000526020600020016000909192909190916101000a81548173ffffffffffffffffffffffffffffffffffffffff021916908373ffffffffffffffffffffffffffffffffffffffff16021790555050505050505050505050505062000373565b828054600181600116156101000203166002900490600052602060002090601f016020900481019282601f106200030757805160ff191683800117855562000338565b8280016001018555821562000338579182015b82811115620003375782518255916020019190600101906200031a565b5b5090506200034791906200034b565b5090565b6200037091905b808211156200036c57600081600090555060010162000352565b5090565b90565b611fe880620003836000396000f30060806040526004361061011d576000357c0100000000000000000000000000000000000000000000000000000000900463ffffffff16806306fdde0314610122578063095ea7b3146101b257806318160ddd1461021757806323b872dd14610242578063313ce567146102c7578063383bbead146102f2578063395093511461035f578063444ae325146103c45780634885b25414610431578063638b5e53146105125780636b4ed21b1461056d5780636ebcf6071461059857806370a08231146105ef57806388a6360e1461064657806388d695b2146106a457806395d89b4114610765578063a457c2d7146107f5578063a9059cbb1461085a578063aed6176e146108bf578063ba0fb86114610993578063dd62ed3e14610a0a575b600080fd5b34801561012e57600080fd5b50610137610a81565b6040518080602001828103825283818151815260200191508051906020019080838360005b8381101561017757808201518184015260208101905061015c565b50505050905090810190601f1680156101a45780820380516001836020036101000a031916815260200191505b509250505060405180910390f35b3480156101be57600080fd5b506101fd600480360381019080803573ffffffffffffffffffffffffffffffffffffffff16906020019092919080359060200190929190505050610b23565b604051808215151515815260200191505060405180910390f35b34801561022357600080fd5b5061022c610c46565b6040518082815260200191505060405180910390f35b34801561024e57600080fd5b506102ad600480360381019080803573ffffffffffffffffffffffffffffffffffffffff169060200190929190803573ffffffffffffffffffffffffffffffffffffffff16906020019092919080359060200190929190505050610c50565b604051808215151515815260200191505060405180910390f35b3480156102d357600080fd5b506102dc610df1565b6040518082815260200191505060405180910390f35b3480156102fe57600080fd5b5061031d60048036038101908080359060200190929190505050610dfb565b604051808273ffffffffffffffffffffffffffffffffffffffff1673ffffffffffffffffffffffffffffffffffffffff16815260200191505060405180910390f35b34801561036b57600080fd5b506103aa600480360381019080803573ffffffffffffffffffffffffffffffffffffffff16906020019092919080359060200190929190505050610e39565b604051808215151515815260200191505060405180910390f35b3480156103d057600080fd5b506103ef60048036038101908080359060200190929190505050611066565b604051808273ffffffffffffffffffffffffffffffffffffffff1673ffffffffffffffffffffffffffffffffffffffff16815260200191505060405180910390f35b34801561043d57600080fd5b506104f8600480360381019080803573ffffffffffffffffffffffffffffffffffffffff16906020019092919080359060200190820180359060200190808060200260200160405190810160405280939291908181526020018383602002808284378201915050505050509192919290803590602001908201803590602001908080602002602001604051908101604052809392919081815260200183836020028082843782019150505050505091929192905050506110a9565b604051808215151515815260200191505060405180910390f35b34801561051e57600080fd5b50610553600480360381019080803573ffffffffffffffffffffffffffffffffffffffff16906020019092919050505061112e565b604051808215151515815260200191505060405180910390f35b34801561057957600080fd5b5061058261114e565b6040518082815260200191505060405180910390f35b3480156105a457600080fd5b506105d9600480360381019080803573ffffffffffffffffffffffffffffffffffffffff16906020019092919050505061115b565b6040518082815260200191505060405180910390f35b3480156105fb57600080fd5b50610630600480360381019080803573ffffffffffffffffffffffffffffffffffffffff169060200190929190505050611173565b6040518082815260200191505060405180910390f35b34801561065257600080fd5b5061065b6111bb565b604051808373ffffffffffffffffffffffffffffffffffffffff1673ffffffffffffffffffffffffffffffffffffffff1681526020018281526020019250505060405180910390f35b3480156106b057600080fd5b5061074b60048036038101908080359060200190820180359060200190808060200260200160405190810160405280939291908181526020018383602002808284378201915050505050509192919290803590602001908201803590602001908080602002602001604051908101604052809392919081815260200183836020028082843782019150505050505091929192905050506111ec565b604051808215151515815260200191505060405180910390f35b34801561077157600080fd5b5061077a61126f565b6040518080602001828103825283818151815260200191508051906020019080838360005b838110156107ba57808201518184015260208101905061079f565b50505050905090810190601f1680156107e75780820380516001836020036101000a031916815260200191505b509250505060405180910390f35b34801561080157600080fd5b50610840600480360381019080803573ffffffffffffffffffffffffffffffffffffffff16906020019092919080359060200190929190505050611311565b604051808215151515815260200191505060405180910390f35b34801561086657600080fd5b506108a5600480360381019080803573ffffffffffffffffffffffffffffffffffffffff1690602001909291908035906020019092919050505061153e565b604051808215151515815260200191505060405180910390f35b3480156108cb57600080fd5b506108f460048036038101908080359060200190929190803590602001909291905050506116dd565b604051808060200180602001838103835285818151815260200191508051906020019060200280838360005b8381101561093b578082015181840152602081019050610920565b50505050905001838103825284818151815260200191508051906020019060200280838360005b8381101561097d578082015181840152602081019050610962565b5050505090500194505050505060405180910390f35b34801561099f57600080fd5b506109f4600480360381019080803573ffffffffffffffffffffffffffffffffffffffff169060200190929190803573ffffffffffffffffffffffffffffffffffffffff16906020019092919050505061189a565b6040518082815260200191505060405180910390f35b348015610a1657600080fd5b50610a6b600480360381019080803573ffffffffffffffffffffffffffffffffffffffff169060200190929190803573ffffffffffffffffffffffffffffffffffffffff1690602001909291905050506118bf565b6040518082815260200191505060405180910390f35b606060038054600181600116156101000203166002900480601f016020809104026020016040519081016040528092919081815260200182805460018160011615610100020316600290048015610b195780601f10610aee57610100808354040283529160200191610b19565b820191906000526020600020905b815481529060010190602001808311610afc57829003601f168201915b5050505050905090565b60008073ffffffffffffffffffffffffffffffffffffffff168373ffffffffffffffffffffffffffffffffffffffff1614151515610b6057600080fd5b81600160003373ffffffffffffffffffffffffffffffffffffffff1673ffffffffffffffffffffffffffffffffffffffff16815260200190815260200160002060008573ffffffffffffffffffffffffffffffffffffffff1673ffffffffffffffffffffffffffffffffffffffff16815260200190815260200160002081905550818373ffffffffffffffffffffffffffffffffffffffff163373ffffffffffffffffffffffffffffffffffffffff167f8c5be1e5ebec7d5bd14f71427d1e84f3dd0314c0f7b2291e5b200ac8c7c3b92560405160405180910390a46001905092915050565b6000600654905090565b600060011515600960008673ffffffffffffffffffffffffffffffffffffffff1673ffffffffffffffffffffffffffffffffffffffff16815260200190815260200160002060009054906101000a900460ff161515141515610cb157600080fd5b60011515610cc0858585611946565b1515141515610cce57600080fd5b60001515600960008573ffffffffffffffffffffffffffffffffffffffff1673ffffffffffffffffffffffffffffffffffffffff16815260200190815260200160002060009054906101000a900460ff1615151415610de6576001600960008573ffffffffffffffffffffffffffffffffffffffff1673ffffffffffffffffffffffffffffffffffffffff16815260200190815260200160002060006101000a81548160ff021916908315150217905550600a8390806001815401808255809150509060018203906000526020600020016000909192909190916101000a81548173ffffffffffffffffffffffffffffffffffffffff021916908373ffffffffffffffffffffffffffffffffffffffff160217905550505b600190509392505050565b6000600554905090565b600a81815481101515610e0a57fe5b906000526020600020016000915054906101000a900473ffffffffffffffffffffffffffffffffffffffff1681565b60008073ffffffffffffffffffffffffffffffffffffffff168373ffffffffffffffffffffffffffffffffffffffff1614151515610e7657600080fd5b610f0582600160003373ffffffffffffffffffffffffffffffffffffffff1673ffffffffffffffffffffffffffffffffffffffff16815260200190815260200160002060008673ffffffffffffffffffffffffffffffffffffffff1673ffffffffffffffffffffffffffffffffffffffff16815260200190815260200160002054611d3490919063ffffffff16565b600160003373ffffffffffffffffffffffffffffffffffffffff1673ffffffffffffffffffffffffffffffffffffffff16815260200190815260200160002060008573ffffffffffffffffffffffffffffffffffffffff1673ffffffffffffffffffffffffffffffffffffffff16815260200190815260200160002081905550600160003373ffffffffffffffffffffffffffffffffffffffff1673ffffffffffffffffffffffffffffffffffffffff16815260200190815260200160002060008473ffffffffffffffffffffffffffffffffffffffff1673ffffffffffffffffffffffffffffffffffffffff168152602001908152602001600020548373ffffffffffffffffffffffffffffffffffffffff163373ffffffffffffffffffffffffffffffffffffffff167f8c5be1e5ebec7d5bd14f71427d1e84f3dd0314c0f7b2291e5b200ac8c7c3b92560405160405180910390a46001905092915050565b6000600a8281548110151561107757fe5b9060005260206000200160009054906101000a900473ffffffffffffffffffffffffffffffffffffffff169050919050565b600080825184511415156110bc57600080fd5b600090505b835181101561112257600115156111078686848151811015156110e057fe5b9060200190602002015186858151811015156110f857fe5b90602001906020020151610c50565b151514151561111557600080fd5b80806001019150506110c1565b60019150509392505050565b60096020528060005260406000206000915054906101000a900460ff1681565b6000600a80549050905090565b60006020528060005260406000206000915090505481565b60008060008373ffffffffffffffffffffffffffffffffffffffff1673ffffffffffffffffffffffffffffffffffffffff168152602001908152602001600020549050919050565b600080600760009054906101000a900473ffffffffffffffffffffffffffffffffffffffff16600854915091509091565b600080825184511415156111ff57600080fd5b600090505b83518110156112645760011515611249858381518110151561122257fe5b90602001906020020151858481518110151561123a57fe5b9060200190602002015161153e565b151514151561125757600080fd5b8080600101915050611204565b600191505092915050565b606060048054600181600116156101000203166002900480601f0160208091040260200160405190810160405280929190818152602001828054600181600116156101000203166002900480156113075780601f106112dc57610100808354040283529160200191611307565b820191906000526020600020905b8154815290600101906020018083116112ea57829003601f168201915b5050505050905090565b60008073ffffffffffffffffffffffffffffffffffffffff168373ffffffffffffffffffffffffffffffffffffffff161415151561134e57600080fd5b6113dd82600160003373ffffffffffffffffffffffffffffffffffffffff1673ffffffffffffffffffffffffffffffffffffffff16815260200190815260200160002060008673ffffffffffffffffffffffffffffffffffffffff1673ffffffffffffffffffffffffffffffffffffffff16815260200190815260200160002054611d5090919063ffffffff16565b600160003373ffffffffffffffffffffffffffffffffffffffff1673ffffffffffffffffffffffffffffffffffffffff16815260200190815260200160002060008573ffffffffffffffffffffffffffffffffffffffff1673ffffffffffffffffffffffffffffffffffffffff16815260200190815260200160002081905550600160003373ffffffffffffffffffffffffffffffffffffffff1673ffffffffffffffffffffffffffffffffffffffff16815260200190815260200160002060008473ffffffffffffffffffffffffffffffffffffffff1673ffffffffffffffffffffffffffffffffffffffff168152602001908152602001600020548373ffffffffffffffffffffffffffffffffffffffff163373ffffffffffffffffffffffffffffffffffffffff167f8c5be1e5ebec7d5bd14f71427d1e84f3dd0314c0f7b2291e5b200ac8c7c3b92560405160405180910390a46001905092915050565b600060011515600960003373ffffffffffffffffffffffffffffffffffffffff1673ffffffffffffffffffffffffffffffffffffffff16815260200190815260200160002060009054906101000a900460ff16151514151561159f57600080fd5b600115156115ad8484611d69565b15151415156115bb57600080fd5b60001515600960008573ffffffffffffffffffffffffffffffffffffffff1673ffffffffffffffffffffffffffffffffffffffff16815260200190815260200160002060009054906101000a900460ff16151514156116d3576001600960008573ffffffffffffffffffffffffffffffffffffffff1673ffffffffffffffffffffffffffffffffffffffff16815260200190815260200160002060006101000a81548160ff021916908315150217905550600a8390806001815401808255809150509060018203906000526020600020016000909192909190916101000a81548173ffffffffffffffffffffffffffffffffffffffff021916908373ffffffffffffffffffffffffffffffffffffffff160217905550505b6001905092915050565b60608060608060008087101580156116fc57506116f861114e565b8611155b151561170757600080fd5b61171a8787611d5090919063ffffffff16565b6040519080825280602002602001820160405280156117485781602001602082028038833980820191505090505b50925061175e8787611d5090919063ffffffff16565b60405190808252806020026020018201604052801561178c5781602001602082028038833980820191505090505b5091508690505b8581101561188a57600a818154811015156117aa57fe5b9060005260206000200160009054906101000a900473ffffffffffffffffffffffffffffffffffffffff1683828151811015156117e357fe5b9060200190602002019073ffffffffffffffffffffffffffffffffffffffff16908173ffffffffffffffffffffffffffffffffffffffff1681525050611861600a8281548110151561183157fe5b9060005260206000200160009054906101000a900473ffffffffffffffffffffffffffffffffffffffff16611173565b828281518110151561186f57fe5b90602001906020020181815250508080600101915050611793565b8282945094505050509250929050565b6001602052816000526040600020602052806000526040600020600091509150505481565b6000600160008473ffffffffffffffffffffffffffffffffffffffff1673ffffffffffffffffffffffffffffffffffffffff16815260200190815260200160002060008373ffffffffffffffffffffffffffffffffffffffff1673ffffffffffffffffffffffffffffffffffffffff16815260200190815260200160002054905092915050565b60008060008573ffffffffffffffffffffffffffffffffffffffff1673ffffffffffffffffffffffffffffffffffffffff16815260200190815260200160002054821115151561199557600080fd5b600160008573ffffffffffffffffffffffffffffffffffffffff1673ffffffffffffffffffffffffffffffffffffffff16815260200190815260200160002060003373ffffffffffffffffffffffffffffffffffffffff1673ffffffffffffffffffffffffffffffffffffffff168152602001908152602001600020548211151515611a2057600080fd5b600073ffffffffffffffffffffffffffffffffffffffff168373ffffffffffffffffffffffffffffffffffffffff1614151515611a5c57600080fd5b611aad826000808773ffffffffffffffffffffffffffffffffffffffff1673ffffffffffffffffffffffffffffffffffffffff16815260200190815260200160002054611d5090919063ffffffff16565b6000808673ffffffffffffffffffffffffffffffffffffffff1673ffffffffffffffffffffffffffffffffffffffff16815260200190815260200160002081905550611b40826000808673ffffffffffffffffffffffffffffffffffffffff1673ffffffffffffffffffffffffffffffffffffffff16815260200190815260200160002054611d3490919063ffffffff16565b6000808573ffffffffffffffffffffffffffffffffffffffff1673ffffffffffffffffffffffffffffffffffffffff16815260200190815260200160002081905550611c1182600160008773ffffffffffffffffffffffffffffffffffffffff1673ffffffffffffffffffffffffffffffffffffffff16815260200190815260200160002060003373ffffffffffffffffffffffffffffffffffffffff1673ffffffffffffffffffffffffffffffffffffffff16815260200190815260200160002054611d5090919063ffffffff16565b600160008673ffffffffffffffffffffffffffffffffffffffff1673ffffffffffffffffffffffffffffffffffffffff16815260200190815260200160002060003373ffffffffffffffffffffffffffffffffffffffff1673ffffffffffffffffffffffffffffffffffffffff16815260200190815260200160002081905550817fddf252ad1be2c89b69c2b068fc378daa952ba7f163c4a11628f55a4df523b3ef8585604051808373ffffffffffffffffffffffffffffffffffffffff1673ffffffffffffffffffffffffffffffffffffffff1681526020018273ffffffffffffffffffffffffffffffffffffffff1673ffffffffffffffffffffffffffffffffffffffff1681526020019250505060405180910390a2600190509392505050565b60008183019050828110151515611d4757fe5b80905092915050565b6000828211151515611d5e57fe5b818303905092915050565b60008060003373ffffffffffffffffffffffffffffffffffffffff1673ffffffffffffffffffffffffffffffffffffffff168152602001908152602001600020548211151515611db857600080fd5b600073ffffffffffffffffffffffffffffffffffffffff168373ffffffffffffffffffffffffffffffffffffffff1614151515611df457600080fd5b611e45826000803373ffffffffffffffffffffffffffffffffffffffff1673ffffffffffffffffffffffffffffffffffffffff16815260200190815260200160002054611d5090919063ffffffff16565b6000803373ffffffffffffffffffffffffffffffffffffffff1673ffffffffffffffffffffffffffffffffffffffff16815260200190815260200160002081905550611ed8826000808673ffffffffffffffffffffffffffffffffffffffff1673ffffffffffffffffffffffffffffffffffffffff16815260200190815260200160002054611d3490919063ffffffff16565b6000808573ffffffffffffffffffffffffffffffffffffffff1673ffffffffffffffffffffffffffffffffffffffff16815260200190815260200160002081905550817fddf252ad1be2c89b69c2b068fc378daa952ba7f163c4a11628f55a4df523b3ef3385604051808373ffffffffffffffffffffffffffffffffffffffff1673ffffffffffffffffffffffffffffffffffffffff1681526020018273ffffffffffffffffffffffffffffffffffffffff1673ffffffffffffffffffffffffffffffffffffffff1681526020019250505060405180910390a260019050929150505600a165627a7a7230582095ff26f0cca43602e1a8ac60cae88304f1162a0004b4736d006600b63f1247de0029a165627a7a72305820607198303218b34774c08eba1758b66d2f579d178e3760dcd20d08ca8b6dcc210029",
  "source": "pragma solidity ^0.4.24;\n\nimport 'openzeppelin-solidity/contracts/ownership/Ownable.sol'; \nimport './RFTNFTFull.sol';\nimport './RFTFTFull.sol';\nimport './IRFT.sol';\n\ncontract RFT is IRFT, RFTNFTFull, Ownable {\n\n    // Mapping from Non-Fungible token id to address of Fungible Token \n    mapping (uint256 => address) public ftAddresses;\n\n    // Mapping from Non-Fungible token id to its value in equivalent of Fungible tokens\n    mapping (uint256 => uint256) public nftValues;\n\n    /**\n     * @dev Constructor for RFT main contract\n     * @param _name - Name for a set of NFTs\n     * @param _symbol - Symbol for a set of NFTs\n     */\n    constructor(\n        string _name,\n        string _symbol\n    ) \n        public\n        RFTNFTFull(_name, _symbol) \n    {\n\n    } \n\n    /**\n     * @dev Creates FT with specified parameters\n     * @param _name - Name for FT\n     * @param _symbol - Symbol for FT\n     * @param _decimals - Precision amount for FT\n     * @param _tokenOwner - Address of FT owner\n     * @param _fungibleTokenSupply - Max token supply for FT\n     * @param _tokenId - Unique identifier of NFT related to this FT\n     */\n    function _createFT(\n        string _name,\n        string _symbol,\n        uint256 _decimals,\n        address _tokenOwner,\n        uint256 _fungibleTokenSupply,\n        uint256 _tokenId\n    ) \n        internal \n        returns (address)\n    {\n        require (_decimals > 0);\n        require (_tokenOwner != address(0));\n        require (_fungibleTokenSupply > 0);\n\n        RFTFTFull fungibleToken = new RFTFTFull(\n            _name,\n            _symbol,\n            _decimals,\n            _fungibleTokenSupply,\n            address(this),\n            _tokenId,\n            _tokenOwner\n        );\n\n        return address(fungibleToken);\n    }\n\n    /** \n     * @dev Mint NFT token and create FT accordingly\n     * @param _name - Name for FT\n     * @param _symbol - Symbol for FT\n     * @param _decimals - Precision amount for FT\n     * @param _tokenOwner - Address of FT owner\n     * @param _fungibleTokenSupply - Max token supply for FT\n     */\n    function mint(\n        string _name,\n        string _symbol,\n        uint256 _decimals,\n        address _tokenOwner,\n        uint256 _fungibleTokenSupply\n    ) \n        public\n        returns (uint256)\n    {\n        uint256 tokenId = _allTokens.length;\n\n        address fungibleToken = _createFT(\n            _name, \n            _symbol,\n            _decimals,\n            _tokenOwner,\n            _fungibleTokenSupply,\n            tokenId\n        );\n\n        require(super._mint(_tokenOwner, tokenId) == true);\n\n        ftAddresses[tokenId] = fungibleToken;\n        nftValues[tokenId] = _fungibleTokenSupply;\n\n        return tokenId;\n    }\n\n    /** \n     * @dev Burn NFT and delete FT data\n     * @param _owner - owner address of NFT to burn\n     * @param _tokenId - Unique identifier of NFT\n     */\n    function burn(\n        address _owner,\n        uint256 _tokenId\n    ) \n        public\n        returns (bool)\n    {\n        require(super._burn(_owner, _tokenId) == true);\n        ftAddresses[_tokenId] = address(0);\n        nftValues[_tokenId] = 0;\n        return true;\n    }\n\n    /**\n     * @dev Returns value of selected NFT\n     * @param _tokenId - Unique identifier of NFT\n     */\n    function nftValue(\n        uint256 _tokenId\n    ) \n        public\n        view \n        returns (uint256)\n    {\n        return nftValues[_tokenId];\n    }\n\n    /** \n     * @dev Returns FT token balance of specified NFT\n     * @param _holder - Holder address \n     * @param _tokenId - Unique identifier of NFT\n     */\n    function ftHolderBalance(\n        uint256 _tokenId,\n        address _holder\n    ) \n        public \n        view \n        returns (uint256) \n    {\n        return RFTFTFull(ftAddresses[_tokenId]).balanceOf(_holder);\n    }\n\n    /**\n     * @dev Returns all FT token holders and their balances of specified NFT\n     * @param _tokenId - Unique identifier of NFT\n     * @param _indexFrom - Start index inside array of token holders\n     * @param _indexTo - End index inside array of token holders\n     */\n    function ftHoldersBalances(\n        uint256 _tokenId,\n        uint256 _indexFrom,\n        uint256 _indexTo\n    ) \n        public\n        view\n        returns (address[], uint256[]) \n    {\n        return RFTFTFull(ftAddresses[_tokenId])\n            .holders(_indexFrom, _indexTo);\n    }\n\n    /**\n     * @dev Returns FT token holders amount of specified NFT\n     * @param _tokenId - Unique identifier of NFT\n     */\n    function ftHoldersCount(uint256 _tokenId)\n        public\n        view\n        returns (uint256)\n    {\n        return RFTFTFull(ftAddresses[_tokenId]).holdersCount();\n    }\n\n    /**\n     * @dev Returns FT smart contract address of specified NFT\n     * @param _tokenId - Unique identifier of NFT\n     */\n    function ftAddress(uint256 _tokenId)\n        public\n        view\n        returns (address _ftAddress) \n    {\n        return ftAddresses[_tokenId];\n    } \n}",
  "sourcePath": "/home/juuzou/Documents/RFT_contracts/contracts/rft/RFT.sol",
  "compiler": {
    "name": "solc",
    "version": "0.4.24+commit.e67f0147.Emscripten.clang"
  },
  "schemaVersion": "3.3.4",
  "updatedAt": "2021-03-08T14:55:07.471Z",
  "devdoc": {
    "methods": {
      "approve(address,uint256)": {
        "details": "Approves to transfer selected NFT (_tokenId) by specific address (_to).",
        "params": {
          "_to": "- Receiver address of transfer approve for selected NFT",
          "_tokenId": "- Unique identifier of NFT"
        }
      },
      "balanceOf(address)": {
        "details": "Returns NFT Token balance of selected address (_owner), which means, how many NFT tokens owner of address has on his balance.",
        "params": {
          "_owner": "- Address of NFT holder"
        }
      },
      "burn(address,uint256)": {
        "details": "Burn NFT and delete FT data",
        "params": {
          "_owner": "- owner address of NFT to burn",
          "_tokenId": "- Unique identifier of NFT"
        }
      },
      "ftAddress(uint256)": {
        "details": "Returns FT smart contract address of specified NFT",
        "params": {
          "_tokenId": "- Unique identifier of NFT"
        }
      },
      "ftHolderBalance(uint256,address)": {
        "details": "Returns FT token balance of specified NFT",
        "params": {
          "_holder": "- Holder address ",
          "_tokenId": "- Unique identifier of NFT"
        }
      },
      "ftHoldersBalances(uint256,uint256,uint256)": {
        "details": "Returns all FT token holders and their balances of specified NFT",
        "params": {
          "_indexFrom": "- Start index inside array of token holders",
          "_indexTo": "- End index inside array of token holders",
          "_tokenId": "- Unique identifier of NFT"
        }
      },
      "ftHoldersCount(uint256)": {
        "details": "Returns FT token holders amount of specified NFT",
        "params": {
          "_tokenId": "- Unique identifier of NFT"
        }
      },
      "getApproved(uint256)": {
        "details": "Returns address of approved for transfer address for selected NFT(_tokenId). ",
        "params": {
          "_tokenId": "- Unique identifier of NFT"
        }
      },
      "isApprovedForAll(address,address)": {
        "details": "Checks if all NFT's of certain address(_owner) is approved to transfer by another address(_operator)",
        "params": {
          "_operator": "- Receipient address of transfer rights",
          "_owner": "- Address of NFT's owner"
        }
      },
      "mint(string,string,uint256,address,uint256)": {
        "details": "Mint NFT token and create FT accordingly",
        "params": {
          "_decimals": "- Precision amount for FT",
          "_fungibleTokenSupply": "- Max token supply for FT",
          "_name": "- Name for FT",
          "_symbol": "- Symbol for FT",
          "_tokenOwner": "- Address of FT owner"
        }
      },
      "name()": {
        "details": "Getter for RFT name"
      },
      "nftValue(uint256)": {
        "details": "Returns value of selected NFT",
        "params": {
          "_tokenId": "- Unique identifier of NFT"
        }
      },
      "ownerOf(uint256)": {
        "details": "Returns owner address of selected NFT token (_tokenId).",
        "params": {
          "_tokenId": "- Unique identifier of NFT"
        }
      },
      "renounceOwnership()": {
        "details": "Allows the current owner to relinquish control of the contract."
      },
      "safeTransferFrom(address,address,uint256)": {
        "details": "Safe implementation of transferFrom function, which additionally checks that NFT receiver address is NFT compatible by calling method of Receipient contract address and supplying sender address, previous owner of NFT, NFT id",
        "params": {
          "_from": "- Address of NFT owner",
          "_to": "- Address of NFT receiver",
          "_tokenId": "- Unique identifier of NFT"
        }
      },
      "safeTransferFrom(address,address,uint256,bytes)": {
        "details": "Extended safeTransferFrom function with bytes parameter",
        "params": {
          "_data": "- Bytes additional transaction data",
          "_from": "- Address of NFT sender",
          "_to": "- Address of NFT receiver",
          "_tokenId": "- Unique identifier of NFT"
        }
      },
      "setApprovalForAll(address,bool)": {
        "details": "Approve/Disapprove(depends on _approved value) transfering of all  caller's NFTs by specific address (_to).",
        "params": {
          "_approved": "- Approval status",
          "_to": "- Receiver of approvals for all NFT's owned by caller address"
        }
      },
      "supportsInterface(bytes4)": {
        "details": "implement supportsInterface(bytes4) using a lookup table"
      },
      "symbol()": {
        "details": "Getter for RFT symbol"
      },
      "tokenByIndex(uint256)": {
        "details": "Returns NFT id from all NFT's array by using its index.",
        "params": {
          "_index": "- Index inside array of all NFT"
        }
      },
      "tokenOfOwnerByIndex(address,uint256)": {
        "details": "Returns NFT id owned by the supplied address and index in  the owner's NFT array. Index could be from 0 to n, where n is owner's balance of NFT's",
        "params": {
          "_index": "- Index inside array of owner's NFT",
          "_owner": "- Address of NFT's owner"
        }
      },
      "tokenURI(uint256)": {
        "details": "Get Uniform Resource Identifier of selected NFT ",
        "params": {
          "_tokenId": "- Unique identifier of NFT"
        }
      },
      "totalSupply()": {
        "details": "Returns total amount of NFT's presented in this NFT contract"
      },
      "transferFrom(address,address,uint256)": {
        "details": "Transfer selected NFT (_tokenId) from owner (_from) to new owner(_to)",
        "params": {
          "_from": "- Address of NFT's owner ",
          "_to": "- Address of NFT receiver",
          "_tokenId": "- Unique identifier of NFT"
        }
      },
      "transferOwnership(address)": {
        "details": "Allows the current owner to transfer control of the contract to a newOwner.",
        "params": {
          "_newOwner": "The address to transfer ownership to."
        }
      }
    }
  },
  "userdoc": {
    "methods": {
      "approve(address,uint256)": {
        "notice": "Approving is needed when you want to give rights for some identified party to transfer your token. Approval event will be generated once approved."
      },
      "getApproved(uint256)": {
        "notice": "Return approved address for NFT, if there is none  approved address for this NFT, it will return zero address"
      },
      "isApprovedForAll(address,address)": {
        "notice": "Returns true in case it was called  setApprovalForAll(_operator, true), otherwise - false"
      },
      "renounceOwnership()": {
        "notice": "Renouncing to ownership will leave the contract without an owner. It will not be possible to call the functions with the `onlyOwner` modifier anymore."
      },
      "safeTransferFrom(address,address,uint256)": {
        "notice": "Safe transfer is being used instead of transferFrom, in case we need  to check that recipient address is compatible with NFT (only in case if  receipient address is contract) "
      },
      "setApprovalForAll(address,bool)": {
        "notice": "Needed in case you want to give rights to transfer of all your NFT's to some address"
      },
      "tokenByIndex(uint256)": {
        "notice": "All NFT's are added during minting to array, for example we have minted 2 NFT's for 2 users, in case we call tokenByIndex(1), it will return unique NFT id, which is located by index 1"
      },
      "tokenOfOwnerByIndex(address,uint256)": {
        "notice": "Every address in contract has array of NFT ids, and this  method provides ability to navigate in it."
      },
      "totalSupply()": {
        "notice": "For example we have minted 2 NFTs for 2 users(1 NFT per 1 user),  in this case totalSupply will equal to 2"
      },
      "transferFrom(address,address,uint256)": {
        "notice": "Transaction sender(msg.sender) should be owner or approved address by  approve or setApprovalForAll"
      }
    }
  }
}