{
  "contractName": "RFTFTFull",
  "abi": [
    {
      "constant": true,
      "inputs": [],
      "name": "name",
      "outputs": [
        {
          "name": "",
          "type": "string"
        }
      ],
      "payable": false,
      "stateMutability": "view",
      "type": "function"
    },
    {
      "constant": false,
      "inputs": [
        {
          "name": "_operator",
          "type": "address"
        },
        {
          "name": "_amount",
          "type": "uint256"
        }
      ],
      "name": "approve",
      "outputs": [
        {
          "name": "",
          "type": "bool"
        }
      ],
      "payable": false,
      "stateMutability": "nonpayable",
      "type": "function"
    },
    {
      "constant": true,
      "inputs": [],
      "name": "totalSupply",
      "outputs": [
        {
          "name": "",
          "type": "uint256"
        }
      ],
      "payable": false,
      "stateMutability": "view",
      "type": "function"
    },
    {
      "constant": true,
      "inputs": [],
      "name": "decimals",
      "outputs": [
        {
          "name": "",
          "type": "uint256"
        }
      ],
      "payable": false,
      "stateMutability": "view",
      "type": "function"
    },
    {
      "constant": true,
      "inputs": [
        {
          "name": "",
          "type": "uint256"
        }
      ],
      "name": "tokenHoldersRegistry",
      "outputs": [
        {
          "name": "",
          "type": "address"
        }
      ],
      "payable": false,
      "stateMutability": "view",
      "type": "function"
    },
    {
      "constant": false,
      "inputs": [
        {
          "name": "_operator",
          "type": "address"
        },
        {
          "name": "_addedAmount",
          "type": "uint256"
        }
      ],
      "name": "increaseAllowance",
      "outputs": [
        {
          "name": "",
          "type": "bool"
        }
      ],
      "payable": false,
      "stateMutability": "nonpayable",
      "type": "function"
    },
    {
      "constant": true,
      "inputs": [
        {
          "name": "_index",
          "type": "uint256"
        }
      ],
      "name": "holderByIndex",
      "outputs": [
        {
          "name": "",
          "type": "address"
        }
      ],
      "payable": false,
      "stateMutability": "view",
      "type": "function"
    },
    {
      "constant": true,
      "inputs": [
        {
          "name": "",
          "type": "address"
        }
      ],
      "name": "tokenHolders",
      "outputs": [
        {
          "name": "",
          "type": "bool"
        }
      ],
      "payable": false,
      "stateMutability": "view",
      "type": "function"
    },
    {
      "constant": true,
      "inputs": [],
      "name": "holdersCount",
      "outputs": [
        {
          "name": "",
          "type": "uint256"
        }
      ],
      "payable": false,
      "stateMutability": "view",
      "type": "function"
    },
    {
      "constant": true,
      "inputs": [
        {
          "name": "",
          "type": "address"
        }
      ],
      "name": "_balances",
      "outputs": [
        {
          "name": "",
          "type": "uint256"
        }
      ],
      "payable": false,
      "stateMutability": "view",
      "type": "function"
    },
    {
      "constant": true,
      "inputs": [
        {
          "name": "_address",
          "type": "address"
        }
      ],
      "name": "balanceOf",
      "outputs": [
        {
          "name": "",
          "type": "uint256"
        }
      ],
      "payable": false,
      "stateMutability": "view",
      "type": "function"
    },
    {
      "constant": true,
      "inputs": [],
      "name": "getNFT",
      "outputs": [
        {
          "name": "",
          "type": "address"
        },
        {
          "name": "",
          "type": "uint256"
        }
      ],
      "payable": false,
      "stateMutability": "view",
      "type": "function"
    },
    {
      "constant": true,
      "inputs": [],
      "name": "symbol",
      "outputs": [
        {
          "name": "",
          "type": "string"
        }
      ],
      "payable": false,
      "stateMutability": "view",
      "type": "function"
    },
    {
      "constant": false,
      "inputs": [
        {
          "name": "_operator",
          "type": "address"
        },
        {
          "name": "_substractedAmount",
          "type": "uint256"
        }
      ],
      "name": "decreaseAllowance",
      "outputs": [
        {
          "name": "",
          "type": "bool"
        }
      ],
      "payable": false,
      "stateMutability": "nonpayable",
      "type": "function"
    },
    {
      "constant": true,
      "inputs": [
        {
          "name": "_from",
          "type": "uint256"
        },
        {
          "name": "_to",
          "type": "uint256"
        }
      ],
      "name": "holders",
      "outputs": [
        {
          "name": "",
          "type": "address[]"
        },
        {
          "name": "",
          "type": "uint256[]"
        }
      ],
      "payable": false,
      "stateMutability": "view",
      "type": "function"
    },
    {
      "constant": true,
      "inputs": [
        {
          "name": "",
          "type": "address"
        },
        {
          "name": "",
          "type": "address"
        }
      ],
      "name": "_allowed",
      "outputs": [
        {
          "name": "",
          "type": "uint256"
        }
      ],
      "payable": false,
      "stateMutability": "view",
      "type": "function"
    },
    {
      "constant": true,
      "inputs": [
        {
          "name": "_owner",
          "type": "address"
        },
        {
          "name": "_operator",
          "type": "address"
        }
      ],
      "name": "allowance",
      "outputs": [
        {
          "name": "",
          "type": "uint256"
        }
      ],
      "payable": false,
      "stateMutability": "view",
      "type": "function"
    },
    {
      "inputs": [
        {
          "name": "_name",
          "type": "string"
        },
        {
          "name": "_symbol",
          "type": "string"
        },
        {
          "name": "_decimals",
          "type": "uint256"
        },
        {
          "name": "_totalSupply",
          "type": "uint256"
        },
        {
          "name": "_nftAddress",
          "type": "address"
        },
        {
          "name": "_initialTokenId",
          "type": "uint256"
        },
        {
          "name": "_owner",
          "type": "address"
        }
      ],
      "payable": false,
      "stateMutability": "nonpayable",
      "type": "constructor"
    },
    {
      "anonymous": false,
      "inputs": [
        {
          "indexed": false,
          "name": "_from",
          "type": "address"
        },
        {
          "indexed": false,
          "name": "_to",
          "type": "address"
        },
        {
          "indexed": true,
          "name": "_tokenId",
          "type": "uint256"
        }
      ],
      "name": "Transfer",
      "type": "event"
    },
    {
      "anonymous": false,
      "inputs": [
        {
          "indexed": true,
          "name": "_owner",
          "type": "address"
        },
        {
          "indexed": true,
          "name": "_approved",
          "type": "address"
        },
        {
          "indexed": true,
          "name": "_tokenId",
          "type": "uint256"
        }
      ],
      "name": "Approval",
      "type": "event"
    },
    {
      "constant": false,
      "inputs": [
        {
          "name": "_receivers",
          "type": "address[]"
        },
        {
          "name": "_values",
          "type": "uint256[]"
        }
      ],
      "name": "batchTransfer",
      "outputs": [
        {
          "name": "",
          "type": "bool"
        }
      ],
      "payable": false,
      "stateMutability": "nonpayable",
      "type": "function"
    },
    {
      "constant": false,
      "inputs": [
        {
          "name": "_from",
          "type": "address"
        },
        {
          "name": "_receivers",
          "type": "address[]"
        },
        {
          "name": "_values",
          "type": "uint256[]"
        }
      ],
      "name": "batchTransferFrom",
      "outputs": [
        {
          "name": "",
          "type": "bool"
        }
      ],
      "payable": false,
      "stateMutability": "nonpayable",
      "type": "function"
    },
    {
      "constant": false,
      "inputs": [
        {
          "name": "_to",
          "type": "address"
        },
        {
          "name": "_amount",
          "type": "uint256"
        }
      ],
      "name": "transfer",
      "outputs": [
        {
          "name": "",
          "type": "bool"
        }
      ],
      "payable": false,
      "stateMutability": "nonpayable",
      "type": "function"
    },
    {
      "constant": false,
      "inputs": [
        {
          "name": "_from",
          "type": "address"
        },
        {
          "name": "_to",
          "type": "address"
        },
        {
          "name": "_amount",
          "type": "uint256"
        }
      ],
      "name": "transferFrom",
      "outputs": [
        {
          "name": "",
          "type": "bool"
        }
      ],
      "payable": false,
      "stateMutability": "nonpayable",
      "type": "function"
    }
  ],
  "bytecode": "0x60806040523480156200001157600080fd5b506040516200236b3803806200236b83398101806040528101908080518201929190602001805182019291906020018051906020019092919080519060200190929190805190602001909291908051906020019092919080519060200190929190505050838383838a8a8a6000811115156200008c57600080fd5b8260039080519060200190620000a4929190620002c4565b508160049080519060200190620000bd929190620002c4565b5080600581905550505050600084111515620000d857600080fd5b600073ffffffffffffffffffffffffffffffffffffffff168373ffffffffffffffffffffffffffffffffffffffff16141515156200011557600080fd5b600082101515156200012657600080fd5b600073ffffffffffffffffffffffffffffffffffffffff168173ffffffffffffffffffffffffffffffffffffffff16141515156200016357600080fd5b8360068190555082600760006101000a81548173ffffffffffffffffffffffffffffffffffffffff021916908373ffffffffffffffffffffffffffffffffffffffff16021790555081600881905550836000808373ffffffffffffffffffffffffffffffffffffffff1673ffffffffffffffffffffffffffffffffffffffff168152602001908152602001600020819055506001600960008373ffffffffffffffffffffffffffffffffffffffff1673ffffffffffffffffffffffffffffffffffffffff16815260200190815260200160002060006101000a81548160ff021916908315150217905550600a8190806001815401808255809150509060018203906000526020600020016000909192909190916101000a81548173ffffffffffffffffffffffffffffffffffffffff021916908373ffffffffffffffffffffffffffffffffffffffff16021790555050505050505050505050505062000373565b828054600181600116156101000203166002900490600052602060002090601f016020900481019282601f106200030757805160ff191683800117855562000338565b8280016001018555821562000338579182015b82811115620003375782518255916020019190600101906200031a565b5b5090506200034791906200034b565b5090565b6200037091905b808211156200036c57600081600090555060010162000352565b5090565b90565b611fe880620003836000396000f30060806040526004361061011d576000357c0100000000000000000000000000000000000000000000000000000000900463ffffffff16806306fdde0314610122578063095ea7b3146101b257806318160ddd1461021757806323b872dd14610242578063313ce567146102c7578063383bbead146102f2578063395093511461035f578063444ae325146103c45780634885b25414610431578063638b5e53146105125780636b4ed21b1461056d5780636ebcf6071461059857806370a08231146105ef57806388a6360e1461064657806388d695b2146106a457806395d89b4114610765578063a457c2d7146107f5578063a9059cbb1461085a578063aed6176e146108bf578063ba0fb86114610993578063dd62ed3e14610a0a575b600080fd5b34801561012e57600080fd5b50610137610a81565b6040518080602001828103825283818151815260200191508051906020019080838360005b8381101561017757808201518184015260208101905061015c565b50505050905090810190601f1680156101a45780820380516001836020036101000a031916815260200191505b509250505060405180910390f35b3480156101be57600080fd5b506101fd600480360381019080803573ffffffffffffffffffffffffffffffffffffffff16906020019092919080359060200190929190505050610b23565b604051808215151515815260200191505060405180910390f35b34801561022357600080fd5b5061022c610c46565b6040518082815260200191505060405180910390f35b34801561024e57600080fd5b506102ad600480360381019080803573ffffffffffffffffffffffffffffffffffffffff169060200190929190803573ffffffffffffffffffffffffffffffffffffffff16906020019092919080359060200190929190505050610c50565b604051808215151515815260200191505060405180910390f35b3480156102d357600080fd5b506102dc610df1565b6040518082815260200191505060405180910390f35b3480156102fe57600080fd5b5061031d60048036038101908080359060200190929190505050610dfb565b604051808273ffffffffffffffffffffffffffffffffffffffff1673ffffffffffffffffffffffffffffffffffffffff16815260200191505060405180910390f35b34801561036b57600080fd5b506103aa600480360381019080803573ffffffffffffffffffffffffffffffffffffffff16906020019092919080359060200190929190505050610e39565b604051808215151515815260200191505060405180910390f35b3480156103d057600080fd5b506103ef60048036038101908080359060200190929190505050611066565b604051808273ffffffffffffffffffffffffffffffffffffffff1673ffffffffffffffffffffffffffffffffffffffff16815260200191505060405180910390f35b34801561043d57600080fd5b506104f8600480360381019080803573ffffffffffffffffffffffffffffffffffffffff16906020019092919080359060200190820180359060200190808060200260200160405190810160405280939291908181526020018383602002808284378201915050505050509192919290803590602001908201803590602001908080602002602001604051908101604052809392919081815260200183836020028082843782019150505050505091929192905050506110a9565b604051808215151515815260200191505060405180910390f35b34801561051e57600080fd5b50610553600480360381019080803573ffffffffffffffffffffffffffffffffffffffff16906020019092919050505061112e565b604051808215151515815260200191505060405180910390f35b34801561057957600080fd5b5061058261114e565b6040518082815260200191505060405180910390f35b3480156105a457600080fd5b506105d9600480360381019080803573ffffffffffffffffffffffffffffffffffffffff16906020019092919050505061115b565b6040518082815260200191505060405180910390f35b3480156105fb57600080fd5b50610630600480360381019080803573ffffffffffffffffffffffffffffffffffffffff169060200190929190505050611173565b6040518082815260200191505060405180910390f35b34801561065257600080fd5b5061065b6111bb565b604051808373ffffffffffffffffffffffffffffffffffffffff1673ffffffffffffffffffffffffffffffffffffffff1681526020018281526020019250505060405180910390f35b3480156106b057600080fd5b5061074b60048036038101908080359060200190820180359060200190808060200260200160405190810160405280939291908181526020018383602002808284378201915050505050509192919290803590602001908201803590602001908080602002602001604051908101604052809392919081815260200183836020028082843782019150505050505091929192905050506111ec565b604051808215151515815260200191505060405180910390f35b34801561077157600080fd5b5061077a61126f565b6040518080602001828103825283818151815260200191508051906020019080838360005b838110156107ba57808201518184015260208101905061079f565b50505050905090810190601f1680156107e75780820380516001836020036101000a031916815260200191505b509250505060405180910390f35b34801561080157600080fd5b50610840600480360381019080803573ffffffffffffffffffffffffffffffffffffffff16906020019092919080359060200190929190505050611311565b604051808215151515815260200191505060405180910390f35b34801561086657600080fd5b506108a5600480360381019080803573ffffffffffffffffffffffffffffffffffffffff1690602001909291908035906020019092919050505061153e565b604051808215151515815260200191505060405180910390f35b3480156108cb57600080fd5b506108f460048036038101908080359060200190929190803590602001909291905050506116dd565b604051808060200180602001838103835285818151815260200191508051906020019060200280838360005b8381101561093b578082015181840152602081019050610920565b50505050905001838103825284818151815260200191508051906020019060200280838360005b8381101561097d578082015181840152602081019050610962565b5050505090500194505050505060405180910390f35b34801561099f57600080fd5b506109f4600480360381019080803573ffffffffffffffffffffffffffffffffffffffff169060200190929190803573ffffffffffffffffffffffffffffffffffffffff16906020019092919050505061189a565b6040518082815260200191505060405180910390f35b348015610a1657600080fd5b50610a6b600480360381019080803573ffffffffffffffffffffffffffffffffffffffff169060200190929190803573ffffffffffffffffffffffffffffffffffffffff1690602001909291905050506118bf565b6040518082815260200191505060405180910390f35b606060038054600181600116156101000203166002900480601f016020809104026020016040519081016040528092919081815260200182805460018160011615610100020316600290048015610b195780601f10610aee57610100808354040283529160200191610b19565b820191906000526020600020905b815481529060010190602001808311610afc57829003601f168201915b5050505050905090565b60008073ffffffffffffffffffffffffffffffffffffffff168373ffffffffffffffffffffffffffffffffffffffff1614151515610b6057600080fd5b81600160003373ffffffffffffffffffffffffffffffffffffffff1673ffffffffffffffffffffffffffffffffffffffff16815260200190815260200160002060008573ffffffffffffffffffffffffffffffffffffffff1673ffffffffffffffffffffffffffffffffffffffff16815260200190815260200160002081905550818373ffffffffffffffffffffffffffffffffffffffff163373ffffffffffffffffffffffffffffffffffffffff167f8c5be1e5ebec7d5bd14f71427d1e84f3dd0314c0f7b2291e5b200ac8c7c3b92560405160405180910390a46001905092915050565b6000600654905090565b600060011515600960008673ffffffffffffffffffffffffffffffffffffffff1673ffffffffffffffffffffffffffffffffffffffff16815260200190815260200160002060009054906101000a900460ff161515141515610cb157600080fd5b60011515610cc0858585611946565b1515141515610cce57600080fd5b60001515600960008573ffffffffffffffffffffffffffffffffffffffff1673ffffffffffffffffffffffffffffffffffffffff16815260200190815260200160002060009054906101000a900460ff1615151415610de6576001600960008573ffffffffffffffffffffffffffffffffffffffff1673ffffffffffffffffffffffffffffffffffffffff16815260200190815260200160002060006101000a81548160ff021916908315150217905550600a8390806001815401808255809150509060018203906000526020600020016000909192909190916101000a81548173ffffffffffffffffffffffffffffffffffffffff021916908373ffffffffffffffffffffffffffffffffffffffff160217905550505b600190509392505050565b6000600554905090565b600a81815481101515610e0a57fe5b906000526020600020016000915054906101000a900473ffffffffffffffffffffffffffffffffffffffff1681565b60008073ffffffffffffffffffffffffffffffffffffffff168373ffffffffffffffffffffffffffffffffffffffff1614151515610e7657600080fd5b610f0582600160003373ffffffffffffffffffffffffffffffffffffffff1673ffffffffffffffffffffffffffffffffffffffff16815260200190815260200160002060008673ffffffffffffffffffffffffffffffffffffffff1673ffffffffffffffffffffffffffffffffffffffff16815260200190815260200160002054611d3490919063ffffffff16565b600160003373ffffffffffffffffffffffffffffffffffffffff1673ffffffffffffffffffffffffffffffffffffffff16815260200190815260200160002060008573ffffffffffffffffffffffffffffffffffffffff1673ffffffffffffffffffffffffffffffffffffffff16815260200190815260200160002081905550600160003373ffffffffffffffffffffffffffffffffffffffff1673ffffffffffffffffffffffffffffffffffffffff16815260200190815260200160002060008473ffffffffffffffffffffffffffffffffffffffff1673ffffffffffffffffffffffffffffffffffffffff168152602001908152602001600020548373ffffffffffffffffffffffffffffffffffffffff163373ffffffffffffffffffffffffffffffffffffffff167f8c5be1e5ebec7d5bd14f71427d1e84f3dd0314c0f7b2291e5b200ac8c7c3b92560405160405180910390a46001905092915050565b6000600a8281548110151561107757fe5b9060005260206000200160009054906101000a900473ffffffffffffffffffffffffffffffffffffffff169050919050565b600080825184511415156110bc57600080fd5b600090505b835181101561112257600115156111078686848151811015156110e057fe5b9060200190602002015186858151811015156110f857fe5b90602001906020020151610c50565b151514151561111557600080fd5b80806001019150506110c1565b60019150509392505050565b60096020528060005260406000206000915054906101000a900460ff1681565b6000600a80549050905090565b60006020528060005260406000206000915090505481565b60008060008373ffffffffffffffffffffffffffffffffffffffff1673ffffffffffffffffffffffffffffffffffffffff168152602001908152602001600020549050919050565b600080600760009054906101000a900473ffffffffffffffffffffffffffffffffffffffff16600854915091509091565b600080825184511415156111ff57600080fd5b600090505b83518110156112645760011515611249858381518110151561122257fe5b90602001906020020151858481518110151561123a57fe5b9060200190602002015161153e565b151514151561125757600080fd5b8080600101915050611204565b600191505092915050565b606060048054600181600116156101000203166002900480601f0160208091040260200160405190810160405280929190818152602001828054600181600116156101000203166002900480156113075780601f106112dc57610100808354040283529160200191611307565b820191906000526020600020905b8154815290600101906020018083116112ea57829003601f168201915b5050505050905090565b60008073ffffffffffffffffffffffffffffffffffffffff168373ffffffffffffffffffffffffffffffffffffffff161415151561134e57600080fd5b6113dd82600160003373ffffffffffffffffffffffffffffffffffffffff1673ffffffffffffffffffffffffffffffffffffffff16815260200190815260200160002060008673ffffffffffffffffffffffffffffffffffffffff1673ffffffffffffffffffffffffffffffffffffffff16815260200190815260200160002054611d5090919063ffffffff16565b600160003373ffffffffffffffffffffffffffffffffffffffff1673ffffffffffffffffffffffffffffffffffffffff16815260200190815260200160002060008573ffffffffffffffffffffffffffffffffffffffff1673ffffffffffffffffffffffffffffffffffffffff16815260200190815260200160002081905550600160003373ffffffffffffffffffffffffffffffffffffffff1673ffffffffffffffffffffffffffffffffffffffff16815260200190815260200160002060008473ffffffffffffffffffffffffffffffffffffffff1673ffffffffffffffffffffffffffffffffffffffff168152602001908152602001600020548373ffffffffffffffffffffffffffffffffffffffff163373ffffffffffffffffffffffffffffffffffffffff167f8c5be1e5ebec7d5bd14f71427d1e84f3dd0314c0f7b2291e5b200ac8c7c3b92560405160405180910390a46001905092915050565b600060011515600960003373ffffffffffffffffffffffffffffffffffffffff1673ffffffffffffffffffffffffffffffffffffffff16815260200190815260200160002060009054906101000a900460ff16151514151561159f57600080fd5b600115156115ad8484611d69565b15151415156115bb57600080fd5b60001515600960008573ffffffffffffffffffffffffffffffffffffffff1673ffffffffffffffffffffffffffffffffffffffff16815260200190815260200160002060009054906101000a900460ff16151514156116d3576001600960008573ffffffffffffffffffffffffffffffffffffffff1673ffffffffffffffffffffffffffffffffffffffff16815260200190815260200160002060006101000a81548160ff021916908315150217905550600a8390806001815401808255809150509060018203906000526020600020016000909192909190916101000a81548173ffffffffffffffffffffffffffffffffffffffff021916908373ffffffffffffffffffffffffffffffffffffffff160217905550505b6001905092915050565b60608060608060008087101580156116fc57506116f861114e565b8611155b151561170757600080fd5b61171a8787611d5090919063ffffffff16565b6040519080825280602002602001820160405280156117485781602001602082028038833980820191505090505b50925061175e8787611d5090919063ffffffff16565b60405190808252806020026020018201604052801561178c5781602001602082028038833980820191505090505b5091508690505b8581101561188a57600a818154811015156117aa57fe5b9060005260206000200160009054906101000a900473ffffffffffffffffffffffffffffffffffffffff1683828151811015156117e357fe5b9060200190602002019073ffffffffffffffffffffffffffffffffffffffff16908173ffffffffffffffffffffffffffffffffffffffff1681525050611861600a8281548110151561183157fe5b9060005260206000200160009054906101000a900473ffffffffffffffffffffffffffffffffffffffff16611173565b828281518110151561186f57fe5b90602001906020020181815250508080600101915050611793565b8282945094505050509250929050565b6001602052816000526040600020602052806000526040600020600091509150505481565b6000600160008473ffffffffffffffffffffffffffffffffffffffff1673ffffffffffffffffffffffffffffffffffffffff16815260200190815260200160002060008373ffffffffffffffffffffffffffffffffffffffff1673ffffffffffffffffffffffffffffffffffffffff16815260200190815260200160002054905092915050565b60008060008573ffffffffffffffffffffffffffffffffffffffff1673ffffffffffffffffffffffffffffffffffffffff16815260200190815260200160002054821115151561199557600080fd5b600160008573ffffffffffffffffffffffffffffffffffffffff1673ffffffffffffffffffffffffffffffffffffffff16815260200190815260200160002060003373ffffffffffffffffffffffffffffffffffffffff1673ffffffffffffffffffffffffffffffffffffffff168152602001908152602001600020548211151515611a2057600080fd5b600073ffffffffffffffffffffffffffffffffffffffff168373ffffffffffffffffffffffffffffffffffffffff1614151515611a5c57600080fd5b611aad826000808773ffffffffffffffffffffffffffffffffffffffff1673ffffffffffffffffffffffffffffffffffffffff16815260200190815260200160002054611d5090919063ffffffff16565b6000808673ffffffffffffffffffffffffffffffffffffffff1673ffffffffffffffffffffffffffffffffffffffff16815260200190815260200160002081905550611b40826000808673ffffffffffffffffffffffffffffffffffffffff1673ffffffffffffffffffffffffffffffffffffffff16815260200190815260200160002054611d3490919063ffffffff16565b6000808573ffffffffffffffffffffffffffffffffffffffff1673ffffffffffffffffffffffffffffffffffffffff16815260200190815260200160002081905550611c1182600160008773ffffffffffffffffffffffffffffffffffffffff1673ffffffffffffffffffffffffffffffffffffffff16815260200190815260200160002060003373ffffffffffffffffffffffffffffffffffffffff1673ffffffffffffffffffffffffffffffffffffffff16815260200190815260200160002054611d5090919063ffffffff16565b600160008673ffffffffffffffffffffffffffffffffffffffff1673ffffffffffffffffffffffffffffffffffffffff16815260200190815260200160002060003373ffffffffffffffffffffffffffffffffffffffff1673ffffffffffffffffffffffffffffffffffffffff16815260200190815260200160002081905550817fddf252ad1be2c89b69c2b068fc378daa952ba7f163c4a11628f55a4df523b3ef8585604051808373ffffffffffffffffffffffffffffffffffffffff1673ffffffffffffffffffffffffffffffffffffffff1681526020018273ffffffffffffffffffffffffffffffffffffffff1673ffffffffffffffffffffffffffffffffffffffff1681526020019250505060405180910390a2600190509392505050565b60008183019050828110151515611d4757fe5b80905092915050565b6000828211151515611d5e57fe5b818303905092915050565b60008060003373ffffffffffffffffffffffffffffffffffffffff1673ffffffffffffffffffffffffffffffffffffffff168152602001908152602001600020548211151515611db857600080fd5b600073ffffffffffffffffffffffffffffffffffffffff168373ffffffffffffffffffffffffffffffffffffffff1614151515611df457600080fd5b611e45826000803373ffffffffffffffffffffffffffffffffffffffff1673ffffffffffffffffffffffffffffffffffffffff16815260200190815260200160002054611d5090919063ffffffff16565b6000803373ffffffffffffffffffffffffffffffffffffffff1673ffffffffffffffffffffffffffffffffffffffff16815260200190815260200160002081905550611ed8826000808673ffffffffffffffffffffffffffffffffffffffff1673ffffffffffffffffffffffffffffffffffffffff16815260200190815260200160002054611d3490919063ffffffff16565b6000808573ffffffffffffffffffffffffffffffffffffffff1673ffffffffffffffffffffffffffffffffffffffff16815260200190815260200160002081905550817fddf252ad1be2c89b69c2b068fc378daa952ba7f163c4a11628f55a4df523b3ef3385604051808373ffffffffffffffffffffffffffffffffffffffff1673ffffffffffffffffffffffffffffffffffffffff1681526020018273ffffffffffffffffffffffffffffffffffffffff1673ffffffffffffffffffffffffffffffffffffffff1681526020019250505060405180910390a260019050929150505600a165627a7a7230582095ff26f0cca43602e1a8ac60cae88304f1162a0004b4736d006600b63f1247de0029",
  "source": "pragma solidity ^0.4.24;\n\nimport './RFTFT.sol';\nimport './RFT.sol';\nimport './RFTFTMetadata.sol';\nimport './RFTFTEnumerable.sol';\n\ncontract RFTFTFull is RFTFT, RFTFTMetadata, RFTFTEnumerable {\n    /**\n     * @dev Constructor for RFTFT full implementation contract\n     * @param _name - Name for FT\n     * @param _symbol - Symbol for FT\n     * @param _decimals - Precision amount for FT\n     * @param _totalSupply - Max token supply ofr FT\n     * @param _nftAddress - Address of main NFT contract\n     * @param _initialTokenId - Unique identifier of dependent NFT\n     * @param _owner - Address of FT owner\n     */\n\tconstructor (\n\t\tstring _name,\n\t\tstring _symbol,\n\t\tuint256 _decimals,\n\t\tuint256 _totalSupply,\n\t\taddress _nftAddress,\n\t\tuint256 _initialTokenId,\n        address _owner\n\t)\n\t\tpublic \n\t\tRFTFTMetadata(\n\t\t\t_name,\n\t\t\t_symbol,\n\t\t\t_decimals\n\t\t)\n\t\tRFTFTEnumerable(\n\t\t\t_totalSupply,\n\t\t\t_nftAddress,\n\t\t\t_initialTokenId,\n            _owner\n\t\t) \n\t{\n\t\t\n\t}\n\n    /** \n     * @dev Transfer specified token amounts from token holder to receipients\n     * @notice Means that _receivers[index] address will get _values[index] tokens\n     * @param _receivers - Array of FT's receivers addresses\n     * @param _values - Array of FT's amount\n     */\n    function batchTransfer(\n        address[] _receivers,\n        uint256[] _values \n    ) \n        public\n        returns (bool)\n    {\n        require(_receivers.length == _values.length);\n        for (uint256 i = 0; i < _receivers.length; i++) {\n            require(transfer(_receivers[i], _values[i]) == true);\n        }\n        return true;\n    }\n\n    /**\n     * @dev Transfer specified token amounts from token holder to receipients\n     * @notice Allowance balance will be decreased with _values\n     * @param _from - Holder of NFT's\n     * @param _receivers - Array of FT's receivers addresses\n     * @param _values - Array of FT's amount\n     */\n    function batchTransferFrom(\n        address _from,\n        address[] _receivers,\n        uint256[] _values\n    )\n        public\n        returns (bool)\n    {\n        require(_receivers.length == _values.length);\n        for (uint256 i = 0; i < _receivers.length; i++) {\n            require(transferFrom(_from, _receivers[i], _values[i]) == true);\n        }\n        return true;\n    }\n\n    /** \n     * @dev Overrided transfer function\n     * @notice Require function caller to be token holder\n     * @param _to - Address of token receiver\n     * @param _amount - Token amount to transfer\n     */\n\tfunction transfer(\n        address _to,\n        uint256 _amount\n    ) \n        public \n        returns (bool) \n    {\n        require(tokenHolders[msg.sender] == true);\n        require(super.transfer(_to, _amount) == true);\n        if (tokenHolders[_to] == false) {\n            tokenHolders[_to] = true;\n            tokenHoldersRegistry.push(_to);\n        }\n        return true;\n    }\n\n    /**\n     * @dev Overrided transferFrom function, to transferFrom function\n     * @param _from - Address of token sender\n     * @param _to - Address of token receiver\n     * @param _amount - Token amount to transfer\n     */\n    function transferFrom(\n        address _from,\n        address _to,\n        uint256 _amount\n    )\n        public\n        returns (bool) \n    {\n        require(tokenHolders[_from] == true);\n        require(super.transferFrom(_from, _to, _amount) == true);\n        if (tokenHolders[_to] == false) {\n            tokenHolders[_to] = true;\n            tokenHoldersRegistry.push(_to);\n        }\n        return true;\n    }\n}",
  "sourcePath": "/home/juuzou/Documents/RFT_contracts/contracts/rft/RFTFTFull.sol",
  "compiler": {
    "name": "solc",
    "version": "0.4.24+commit.e67f0147.Emscripten.clang"
  },
  "schemaVersion": "3.3.4",
  "updatedAt": "2021-03-08T14:55:07.478Z",
  "devdoc": {
    "methods": {
      "allowance(address,address)": {
        "details": "Returns amount of tokens allowed to be transfered for approved address from balance of owner",
        "params": {
          "_operator": "- Approved address",
          "_owner": "- Holder of FT's"
        }
      },
      "approve(address,uint256)": {
        "details": "Allow _operator to withdraw from your account, multiple times,  up to the _amount. If this function is called again it overwrites  the current allowance with _value.",
        "params": {
          "_amount": "- Amount of approved FT's",
          "_operator": "- Address that allowed to withdraw from FT owner balance"
        }
      },
      "balanceOf(address)": {
        "details": "Returns fungible token balance of specific address",
        "params": {
          "_address": "- ETH address of FT holder"
        }
      },
      "batchTransfer(address[],uint256[])": {
        "details": "Transfer specified token amounts from token holder to receipients",
        "params": {
          "_receivers": "- Array of FT's receivers addresses",
          "_values": "- Array of FT's amount"
        }
      },
      "batchTransferFrom(address,address[],uint256[])": {
        "details": "Transfer specified token amounts from token holder to receipients",
        "params": {
          "_from": "- Holder of NFT's",
          "_receivers": "- Array of FT's receivers addresses",
          "_values": "- Array of FT's amount"
        }
      },
      "decimals()": {
        "details": "Return decimals precision of FT"
      },
      "decreaseAllowance(address,uint256)": {
        "details": "Decrease amount of tokens allowed to be transfered for approved address from balance of owner ",
        "params": {
          "_operator": "- Approved address",
          "_substractedAmount": "- Amount to be substracted from approved address allowance balance"
        }
      },
      "getNFT()": {
        "details": "Returns address of NFT contract and NFT id that was generated for FT"
      },
      "holderByIndex(uint256)": {
        "details": "Returns address of token holder by index inside array of token holders",
        "params": {
          "_index": "- Index inside array of token holders"
        }
      },
      "holders(uint256,uint256)": {
        "details": "Returns token holders addresses and their balances in some range",
        "params": {
          "_from": "- Start index inside array of token holders",
          "_to": "- End index inside array of token holders"
        }
      },
      "holdersCount()": {
        "details": "Returns count of token holders"
      },
      "increaseAllowance(address,uint256)": {
        "details": "Increase amount of tokens allowed to be transfered for approved  address from balance of owner ",
        "params": {
          "_addedAmount": "- Amount to be added to approved address allowance balance",
          "_operator": "- Approved address"
        }
      },
      "name()": {
        "details": "Return name of FT"
      },
      "symbol()": {
        "details": "Return symbol of FT"
      },
      "totalSupply()": {
        "details": "Returns total supply of Fungible Token"
      },
      "transfer(address,uint256)": {
        "details": "Overrided transfer function",
        "params": {
          "_amount": "- Token amount to transfer",
          "_to": "- Address of token receiver"
        }
      },
      "transferFrom(address,address,uint256)": {
        "details": "Overrided transferFrom function, to transferFrom function",
        "params": {
          "_amount": "- Token amount to transfer",
          "_from": "- Address of token sender",
          "_to": "- Address of token receiver"
        }
      }
    }
  },
  "userdoc": {
    "methods": {
      "batchTransfer(address[],uint256[])": {
        "notice": "Means that _receivers[index] address will get _values[index] tokens"
      },
      "batchTransferFrom(address,address[],uint256[])": {
        "notice": "Allowance balance will be decreased with _values"
      },
      "decreaseAllowance(address,uint256)": {
        "notice": "owner means caller address"
      },
      "increaseAllowance(address,uint256)": {
        "notice": "owner means caller address"
      },
      "transfer(address,uint256)": {
        "notice": "Require function caller to be token holder"
      }
    }
  }
}