{
  "contractName": "RFTFTEnumerable",
  "abi": [
    {
      "constant": false,
      "inputs": [
        {
          "name": "_operator",
          "type": "address"
        },
        {
          "name": "_amount",
          "type": "uint256"
        }
      ],
      "name": "approve",
      "outputs": [
        {
          "name": "",
          "type": "bool"
        }
      ],
      "payable": false,
      "stateMutability": "nonpayable",
      "type": "function"
    },
    {
      "constant": false,
      "inputs": [
        {
          "name": "_from",
          "type": "address"
        },
        {
          "name": "_to",
          "type": "address"
        },
        {
          "name": "_amount",
          "type": "uint256"
        }
      ],
      "name": "transferFrom",
      "outputs": [
        {
          "name": "",
          "type": "bool"
        }
      ],
      "payable": false,
      "stateMutability": "nonpayable",
      "type": "function"
    },
    {
      "constant": true,
      "inputs": [
        {
          "name": "",
          "type": "uint256"
        }
      ],
      "name": "tokenHoldersRegistry",
      "outputs": [
        {
          "name": "",
          "type": "address"
        }
      ],
      "payable": false,
      "stateMutability": "view",
      "type": "function"
    },
    {
      "constant": false,
      "inputs": [
        {
          "name": "_operator",
          "type": "address"
        },
        {
          "name": "_addedAmount",
          "type": "uint256"
        }
      ],
      "name": "increaseAllowance",
      "outputs": [
        {
          "name": "",
          "type": "bool"
        }
      ],
      "payable": false,
      "stateMutability": "nonpayable",
      "type": "function"
    },
    {
      "constant": true,
      "inputs": [
        {
          "name": "",
          "type": "address"
        }
      ],
      "name": "tokenHolders",
      "outputs": [
        {
          "name": "",
          "type": "bool"
        }
      ],
      "payable": false,
      "stateMutability": "view",
      "type": "function"
    },
    {
      "constant": true,
      "inputs": [
        {
          "name": "",
          "type": "address"
        }
      ],
      "name": "_balances",
      "outputs": [
        {
          "name": "",
          "type": "uint256"
        }
      ],
      "payable": false,
      "stateMutability": "view",
      "type": "function"
    },
    {
      "constant": true,
      "inputs": [
        {
          "name": "_address",
          "type": "address"
        }
      ],
      "name": "balanceOf",
      "outputs": [
        {
          "name": "",
          "type": "uint256"
        }
      ],
      "payable": false,
      "stateMutability": "view",
      "type": "function"
    },
    {
      "constant": false,
      "inputs": [
        {
          "name": "_operator",
          "type": "address"
        },
        {
          "name": "_substractedAmount",
          "type": "uint256"
        }
      ],
      "name": "decreaseAllowance",
      "outputs": [
        {
          "name": "",
          "type": "bool"
        }
      ],
      "payable": false,
      "stateMutability": "nonpayable",
      "type": "function"
    },
    {
      "constant": false,
      "inputs": [
        {
          "name": "_to",
          "type": "address"
        },
        {
          "name": "_amount",
          "type": "uint256"
        }
      ],
      "name": "transfer",
      "outputs": [
        {
          "name": "",
          "type": "bool"
        }
      ],
      "payable": false,
      "stateMutability": "nonpayable",
      "type": "function"
    },
    {
      "constant": true,
      "inputs": [
        {
          "name": "",
          "type": "address"
        },
        {
          "name": "",
          "type": "address"
        }
      ],
      "name": "_allowed",
      "outputs": [
        {
          "name": "",
          "type": "uint256"
        }
      ],
      "payable": false,
      "stateMutability": "view",
      "type": "function"
    },
    {
      "constant": true,
      "inputs": [
        {
          "name": "_owner",
          "type": "address"
        },
        {
          "name": "_operator",
          "type": "address"
        }
      ],
      "name": "allowance",
      "outputs": [
        {
          "name": "",
          "type": "uint256"
        }
      ],
      "payable": false,
      "stateMutability": "view",
      "type": "function"
    },
    {
      "inputs": [
        {
          "name": "_totalSupply",
          "type": "uint256"
        },
        {
          "name": "_nftAddress",
          "type": "address"
        },
        {
          "name": "_initialTokenId",
          "type": "uint256"
        },
        {
          "name": "_owner",
          "type": "address"
        }
      ],
      "payable": false,
      "stateMutability": "nonpayable",
      "type": "constructor"
    },
    {
      "anonymous": false,
      "inputs": [
        {
          "indexed": false,
          "name": "_from",
          "type": "address"
        },
        {
          "indexed": false,
          "name": "_to",
          "type": "address"
        },
        {
          "indexed": true,
          "name": "_tokenId",
          "type": "uint256"
        }
      ],
      "name": "Transfer",
      "type": "event"
    },
    {
      "anonymous": false,
      "inputs": [
        {
          "indexed": true,
          "name": "_owner",
          "type": "address"
        },
        {
          "indexed": true,
          "name": "_approved",
          "type": "address"
        },
        {
          "indexed": true,
          "name": "_tokenId",
          "type": "uint256"
        }
      ],
      "name": "Approval",
      "type": "event"
    },
    {
      "constant": true,
      "inputs": [],
      "name": "holdersCount",
      "outputs": [
        {
          "name": "",
          "type": "uint256"
        }
      ],
      "payable": false,
      "stateMutability": "view",
      "type": "function"
    },
    {
      "constant": true,
      "inputs": [
        {
          "name": "_index",
          "type": "uint256"
        }
      ],
      "name": "holderByIndex",
      "outputs": [
        {
          "name": "",
          "type": "address"
        }
      ],
      "payable": false,
      "stateMutability": "view",
      "type": "function"
    },
    {
      "constant": true,
      "inputs": [],
      "name": "totalSupply",
      "outputs": [
        {
          "name": "",
          "type": "uint256"
        }
      ],
      "payable": false,
      "stateMutability": "view",
      "type": "function"
    },
    {
      "constant": true,
      "inputs": [
        {
          "name": "_from",
          "type": "uint256"
        },
        {
          "name": "_to",
          "type": "uint256"
        }
      ],
      "name": "holders",
      "outputs": [
        {
          "name": "",
          "type": "address[]"
        },
        {
          "name": "",
          "type": "uint256[]"
        }
      ],
      "payable": false,
      "stateMutability": "view",
      "type": "function"
    },
    {
      "constant": true,
      "inputs": [],
      "name": "getNFT",
      "outputs": [
        {
          "name": "",
          "type": "address"
        },
        {
          "name": "",
          "type": "uint256"
        }
      ],
      "payable": false,
      "stateMutability": "view",
      "type": "function"
    }
  ],
  "bytecode": "0x608060405234801561001057600080fd5b506040516080806119798339810180604052810190808051906020019092919080519060200190929190805190602001909291908051906020019092919050505060008411151561006057600080fd5b600073ffffffffffffffffffffffffffffffffffffffff168373ffffffffffffffffffffffffffffffffffffffff161415151561009c57600080fd5b600082101515156100ac57600080fd5b600073ffffffffffffffffffffffffffffffffffffffff168173ffffffffffffffffffffffffffffffffffffffff16141515156100e857600080fd5b8360038190555082600460006101000a81548173ffffffffffffffffffffffffffffffffffffffff021916908373ffffffffffffffffffffffffffffffffffffffff16021790555081600581905550836000808373ffffffffffffffffffffffffffffffffffffffff1673ffffffffffffffffffffffffffffffffffffffff168152602001908152602001600020819055506001600660008373ffffffffffffffffffffffffffffffffffffffff1673ffffffffffffffffffffffffffffffffffffffff16815260200190815260200160002060006101000a81548160ff02191690831515021790555060078190806001815401808255809150509060018203906000526020600020016000909192909190916101000a81548173ffffffffffffffffffffffffffffffffffffffff021916908373ffffffffffffffffffffffffffffffffffffffff160217905550505050505061172e8061024b6000396000f3006080604052600436106100e6576000357c0100000000000000000000000000000000000000000000000000000000900463ffffffff168063095ea7b3146100eb57806318160ddd1461015057806323b872dd1461017b578063383bbead14610200578063395093511461026d578063444ae325146102d2578063638b5e531461033f5780636b4ed21b1461039a5780636ebcf607146103c557806370a082311461041c57806388a6360e14610473578063a457c2d7146104d1578063a9059cbb14610536578063aed6176e1461059b578063ba0fb8611461066f578063dd62ed3e146106e6575b600080fd5b3480156100f757600080fd5b50610136600480360381019080803573ffffffffffffffffffffffffffffffffffffffff1690602001909291908035906020019092919050505061075d565b604051808215151515815260200191505060405180910390f35b34801561015c57600080fd5b50610165610880565b6040518082815260200191505060405180910390f35b34801561018757600080fd5b506101e6600480360381019080803573ffffffffffffffffffffffffffffffffffffffff169060200190929190803573ffffffffffffffffffffffffffffffffffffffff1690602001909291908035906020019092919050505061088a565b604051808215151515815260200191505060405180910390f35b34801561020c57600080fd5b5061022b60048036038101908080359060200190929190505050610c78565b604051808273ffffffffffffffffffffffffffffffffffffffff1673ffffffffffffffffffffffffffffffffffffffff16815260200191505060405180910390f35b34801561027957600080fd5b506102b8600480360381019080803573ffffffffffffffffffffffffffffffffffffffff16906020019092919080359060200190929190505050610cb6565b604051808215151515815260200191505060405180910390f35b3480156102de57600080fd5b506102fd60048036038101908080359060200190929190505050610ee3565b604051808273ffffffffffffffffffffffffffffffffffffffff1673ffffffffffffffffffffffffffffffffffffffff16815260200191505060405180910390f35b34801561034b57600080fd5b50610380600480360381019080803573ffffffffffffffffffffffffffffffffffffffff169060200190929190505050610f26565b604051808215151515815260200191505060405180910390f35b3480156103a657600080fd5b506103af610f46565b6040518082815260200191505060405180910390f35b3480156103d157600080fd5b50610406600480360381019080803573ffffffffffffffffffffffffffffffffffffffff169060200190929190505050610f53565b6040518082815260200191505060405180910390f35b34801561042857600080fd5b5061045d600480360381019080803573ffffffffffffffffffffffffffffffffffffffff169060200190929190505050610f6b565b6040518082815260200191505060405180910390f35b34801561047f57600080fd5b50610488610fb3565b604051808373ffffffffffffffffffffffffffffffffffffffff1673ffffffffffffffffffffffffffffffffffffffff1681526020018281526020019250505060405180910390f35b3480156104dd57600080fd5b5061051c600480360381019080803573ffffffffffffffffffffffffffffffffffffffff16906020019092919080359060200190929190505050610fe4565b604051808215151515815260200191505060405180910390f35b34801561054257600080fd5b50610581600480360381019080803573ffffffffffffffffffffffffffffffffffffffff16906020019092919080359060200190929190505050611211565b604051808215151515815260200191505060405180910390f35b3480156105a757600080fd5b506105d06004803603810190808035906020019092919080359060200190929190505050611464565b604051808060200180602001838103835285818151815260200191508051906020019060200280838360005b838110156106175780820151818401526020810190506105fc565b50505050905001838103825284818151815260200191508051906020019060200280838360005b8381101561065957808201518184015260208101905061063e565b5050505090500194505050505060405180910390f35b34801561067b57600080fd5b506106d0600480360381019080803573ffffffffffffffffffffffffffffffffffffffff169060200190929190803573ffffffffffffffffffffffffffffffffffffffff169060200190929190505050611621565b6040518082815260200191505060405180910390f35b3480156106f257600080fd5b50610747600480360381019080803573ffffffffffffffffffffffffffffffffffffffff169060200190929190803573ffffffffffffffffffffffffffffffffffffffff169060200190929190505050611646565b6040518082815260200191505060405180910390f35b60008073ffffffffffffffffffffffffffffffffffffffff168373ffffffffffffffffffffffffffffffffffffffff161415151561079a57600080fd5b81600160003373ffffffffffffffffffffffffffffffffffffffff1673ffffffffffffffffffffffffffffffffffffffff16815260200190815260200160002060008573ffffffffffffffffffffffffffffffffffffffff1673ffffffffffffffffffffffffffffffffffffffff16815260200190815260200160002081905550818373ffffffffffffffffffffffffffffffffffffffff163373ffffffffffffffffffffffffffffffffffffffff167f8c5be1e5ebec7d5bd14f71427d1e84f3dd0314c0f7b2291e5b200ac8c7c3b92560405160405180910390a46001905092915050565b6000600354905090565b60008060008573ffffffffffffffffffffffffffffffffffffffff1673ffffffffffffffffffffffffffffffffffffffff1681526020019081526020016000205482111515156108d957600080fd5b600160008573ffffffffffffffffffffffffffffffffffffffff1673ffffffffffffffffffffffffffffffffffffffff16815260200190815260200160002060003373ffffffffffffffffffffffffffffffffffffffff1673ffffffffffffffffffffffffffffffffffffffff16815260200190815260200160002054821115151561096457600080fd5b600073ffffffffffffffffffffffffffffffffffffffff168373ffffffffffffffffffffffffffffffffffffffff16141515156109a057600080fd5b6109f1826000808773ffffffffffffffffffffffffffffffffffffffff1673ffffffffffffffffffffffffffffffffffffffff168152602001908152602001600020546116cd90919063ffffffff16565b6000808673ffffffffffffffffffffffffffffffffffffffff1673ffffffffffffffffffffffffffffffffffffffff16815260200190815260200160002081905550610a84826000808673ffffffffffffffffffffffffffffffffffffffff1673ffffffffffffffffffffffffffffffffffffffff168152602001908152602001600020546116e690919063ffffffff16565b6000808573ffffffffffffffffffffffffffffffffffffffff1673ffffffffffffffffffffffffffffffffffffffff16815260200190815260200160002081905550610b5582600160008773ffffffffffffffffffffffffffffffffffffffff1673ffffffffffffffffffffffffffffffffffffffff16815260200190815260200160002060003373ffffffffffffffffffffffffffffffffffffffff1673ffffffffffffffffffffffffffffffffffffffff168152602001908152602001600020546116cd90919063ffffffff16565b600160008673ffffffffffffffffffffffffffffffffffffffff1673ffffffffffffffffffffffffffffffffffffffff16815260200190815260200160002060003373ffffffffffffffffffffffffffffffffffffffff1673ffffffffffffffffffffffffffffffffffffffff16815260200190815260200160002081905550817fddf252ad1be2c89b69c2b068fc378daa952ba7f163c4a11628f55a4df523b3ef8585604051808373ffffffffffffffffffffffffffffffffffffffff1673ffffffffffffffffffffffffffffffffffffffff1681526020018273ffffffffffffffffffffffffffffffffffffffff1673ffffffffffffffffffffffffffffffffffffffff1681526020019250505060405180910390a2600190509392505050565b600781815481101515610c8757fe5b906000526020600020016000915054906101000a900473ffffffffffffffffffffffffffffffffffffffff1681565b60008073ffffffffffffffffffffffffffffffffffffffff168373ffffffffffffffffffffffffffffffffffffffff1614151515610cf357600080fd5b610d8282600160003373ffffffffffffffffffffffffffffffffffffffff1673ffffffffffffffffffffffffffffffffffffffff16815260200190815260200160002060008673ffffffffffffffffffffffffffffffffffffffff1673ffffffffffffffffffffffffffffffffffffffff168152602001908152602001600020546116e690919063ffffffff16565b600160003373ffffffffffffffffffffffffffffffffffffffff1673ffffffffffffffffffffffffffffffffffffffff16815260200190815260200160002060008573ffffffffffffffffffffffffffffffffffffffff1673ffffffffffffffffffffffffffffffffffffffff16815260200190815260200160002081905550600160003373ffffffffffffffffffffffffffffffffffffffff1673ffffffffffffffffffffffffffffffffffffffff16815260200190815260200160002060008473ffffffffffffffffffffffffffffffffffffffff1673ffffffffffffffffffffffffffffffffffffffff168152602001908152602001600020548373ffffffffffffffffffffffffffffffffffffffff163373ffffffffffffffffffffffffffffffffffffffff167f8c5be1e5ebec7d5bd14f71427d1e84f3dd0314c0f7b2291e5b200ac8c7c3b92560405160405180910390a46001905092915050565b6000600782815481101515610ef457fe5b9060005260206000200160009054906101000a900473ffffffffffffffffffffffffffffffffffffffff169050919050565b60066020528060005260406000206000915054906101000a900460ff1681565b6000600780549050905090565b60006020528060005260406000206000915090505481565b60008060008373ffffffffffffffffffffffffffffffffffffffff1673ffffffffffffffffffffffffffffffffffffffff168152602001908152602001600020549050919050565b600080600460009054906101000a900473ffffffffffffffffffffffffffffffffffffffff16600554915091509091565b60008073ffffffffffffffffffffffffffffffffffffffff168373ffffffffffffffffffffffffffffffffffffffff161415151561102157600080fd5b6110b082600160003373ffffffffffffffffffffffffffffffffffffffff1673ffffffffffffffffffffffffffffffffffffffff16815260200190815260200160002060008673ffffffffffffffffffffffffffffffffffffffff1673ffffffffffffffffffffffffffffffffffffffff168152602001908152602001600020546116cd90919063ffffffff16565b600160003373ffffffffffffffffffffffffffffffffffffffff1673ffffffffffffffffffffffffffffffffffffffff16815260200190815260200160002060008573ffffffffffffffffffffffffffffffffffffffff1673ffffffffffffffffffffffffffffffffffffffff16815260200190815260200160002081905550600160003373ffffffffffffffffffffffffffffffffffffffff1673ffffffffffffffffffffffffffffffffffffffff16815260200190815260200160002060008473ffffffffffffffffffffffffffffffffffffffff1673ffffffffffffffffffffffffffffffffffffffff168152602001908152602001600020548373ffffffffffffffffffffffffffffffffffffffff163373ffffffffffffffffffffffffffffffffffffffff167f8c5be1e5ebec7d5bd14f71427d1e84f3dd0314c0f7b2291e5b200ac8c7c3b92560405160405180910390a46001905092915050565b60008060003373ffffffffffffffffffffffffffffffffffffffff1673ffffffffffffffffffffffffffffffffffffffff16815260200190815260200160002054821115151561126057600080fd5b600073ffffffffffffffffffffffffffffffffffffffff168373ffffffffffffffffffffffffffffffffffffffff161415151561129c57600080fd5b6112ed826000803373ffffffffffffffffffffffffffffffffffffffff1673ffffffffffffffffffffffffffffffffffffffff168152602001908152602001600020546116cd90919063ffffffff16565b6000803373ffffffffffffffffffffffffffffffffffffffff1673ffffffffffffffffffffffffffffffffffffffff16815260200190815260200160002081905550611380826000808673ffffffffffffffffffffffffffffffffffffffff1673ffffffffffffffffffffffffffffffffffffffff168152602001908152602001600020546116e690919063ffffffff16565b6000808573ffffffffffffffffffffffffffffffffffffffff1673ffffffffffffffffffffffffffffffffffffffff16815260200190815260200160002081905550817fddf252ad1be2c89b69c2b068fc378daa952ba7f163c4a11628f55a4df523b3ef3385604051808373ffffffffffffffffffffffffffffffffffffffff1673ffffffffffffffffffffffffffffffffffffffff1681526020018273ffffffffffffffffffffffffffffffffffffffff1673ffffffffffffffffffffffffffffffffffffffff1681526020019250505060405180910390a26001905092915050565b6060806060806000808710158015611483575061147f610f46565b8611155b151561148e57600080fd5b6114a187876116cd90919063ffffffff16565b6040519080825280602002602001820160405280156114cf5781602001602082028038833980820191505090505b5092506114e587876116cd90919063ffffffff16565b6040519080825280602002602001820160405280156115135781602001602082028038833980820191505090505b5091508690505b858110156116115760078181548110151561153157fe5b9060005260206000200160009054906101000a900473ffffffffffffffffffffffffffffffffffffffff16838281518110151561156a57fe5b9060200190602002019073ffffffffffffffffffffffffffffffffffffffff16908173ffffffffffffffffffffffffffffffffffffffff16815250506115e86007828154811015156115b857fe5b9060005260206000200160009054906101000a900473ffffffffffffffffffffffffffffffffffffffff16610f6b565b82828151811015156115f657fe5b9060200190602002018181525050808060010191505061151a565b8282945094505050509250929050565b6001602052816000526040600020602052806000526040600020600091509150505481565b6000600160008473ffffffffffffffffffffffffffffffffffffffff1673ffffffffffffffffffffffffffffffffffffffff16815260200190815260200160002060008373ffffffffffffffffffffffffffffffffffffffff1673ffffffffffffffffffffffffffffffffffffffff16815260200190815260200160002054905092915050565b60008282111515156116db57fe5b818303905092915050565b600081830190508281101515156116f957fe5b809050929150505600a165627a7a72305820c8abcde2b1182a33c845105f7bef566f59d73ea8ad1f1818c559ca414bf84a720029",
  "source": "pragma solidity ^0.4.24;\n\nimport './IRFTFTEnumerable.sol';\nimport './RFTFT.sol';\n\ncontract RFTFTEnumerable is RFTFT {\n\n    // Total tokens supply \n    uint256 internal totalSupply_;\n\n    // Address of main NFT\n    address internal nftAddress_;\n\n    // tokenId of NFT, for which this FT is supplier\n    uint256 internal initialTokenId_;\n\n    // Mapping from address of token holer to its status\n    mapping (address => bool) public tokenHolders;\n\n    // Array of all token holders\n    address[] public tokenHoldersRegistry;\n\n    /**\n     * @dev Constructor for RFTFT contract with Enumerable extension\n     * @param _totalSupply - Max amount of tokens\n     * @param _nftAddress - Address of main NFT, by which this FT was created\n     * @param _initialTokenId - Unique identifier of NFT linked to this FT\n     * @param _owner - Address of FT token owner\n     */\n    constructor (\n        uint256 _totalSupply,\n        address _nftAddress,\n        uint256 _initialTokenId,\n        address _owner\n    ) public {\n        require(_totalSupply > 0);\n        require(_nftAddress != address(0));\n        require(_initialTokenId >= 0);\n        require(_owner != address(0));\n\n        totalSupply_ = _totalSupply;\n        nftAddress_ = _nftAddress;\n        initialTokenId_ = _initialTokenId;\n        _balances[_owner] = _totalSupply;\n        tokenHolders[_owner] = true;\n        tokenHoldersRegistry.push(_owner);\n    }\n\n    /**\n     * @dev Returns count of token holders\n     */\n    function holdersCount() public view returns (uint256) {\n        return tokenHoldersRegistry.length;\n    }\n\n    /** \n     * @dev Returns address of token holder by index inside array\n     * of token holders\n     * @param _index - Index inside array of token holders\n     */\n    function holderByIndex(uint256 _index) public view returns (address) {\n        return tokenHoldersRegistry[_index];\n    }\n\n    /**\n    * @dev Returns total supply of Fungible Token\n    */\n    function totalSupply() public view returns (uint256) {\n        return totalSupply_;\n    }\n\n    /**\n     * @dev Returns token holders addresses and their balances in some range\n     * @param _from - Start index inside array of token holders\n     * @param _to - End index inside array of token holders\n     */\n    function holders(\n        uint256 _from,\n        uint256 _to\n    ) \n        public \n        view \n        returns (address[], uint256[]) \n    {\n        require(\n            _from >= 0 &&\n            _to <= holdersCount()\n        );\n\n        address[] memory holdersAddresses = new address[](_to.sub(_from));\n        uint256[] memory holdersBalance = new uint256[](_to.sub(_from));\n    \n        for (uint256 i = _from; i < _to; i++) {\n            holdersAddresses[i] = tokenHoldersRegistry[i];\n            holdersBalance[i] = balanceOf(tokenHoldersRegistry[i]);\n        }\n        return (holdersAddresses, holdersBalance);\n    }\n\n    /**\n     * @dev Returns address of NFT contract and NFT id that was generated for FT\n     */\n    function getNFT() public view returns (address, uint256) {\n        return (nftAddress_, initialTokenId_);\n    }\n}",
  "sourcePath": "/home/juuzou/Documents/RFT_contracts/contracts/rft/RFTFTEnumerable.sol",
  "compiler": {
    "name": "solc",
    "version": "0.4.24+commit.e67f0147.Emscripten.clang"
  },
  "schemaVersion": "3.3.4",
  "updatedAt": "2021-03-08T14:55:07.476Z",
  "devdoc": {
    "methods": {
      "allowance(address,address)": {
        "details": "Returns amount of tokens allowed to be transfered for approved address from balance of owner",
        "params": {
          "_operator": "- Approved address",
          "_owner": "- Holder of FT's"
        }
      },
      "approve(address,uint256)": {
        "details": "Allow _operator to withdraw from your account, multiple times,  up to the _amount. If this function is called again it overwrites  the current allowance with _value.",
        "params": {
          "_amount": "- Amount of approved FT's",
          "_operator": "- Address that allowed to withdraw from FT owner balance"
        }
      },
      "balanceOf(address)": {
        "details": "Returns fungible token balance of specific address",
        "params": {
          "_address": "- ETH address of FT holder"
        }
      },
      "decreaseAllowance(address,uint256)": {
        "details": "Decrease amount of tokens allowed to be transfered for approved address from balance of owner ",
        "params": {
          "_operator": "- Approved address",
          "_substractedAmount": "- Amount to be substracted from approved address allowance balance"
        }
      },
      "getNFT()": {
        "details": "Returns address of NFT contract and NFT id that was generated for FT"
      },
      "holderByIndex(uint256)": {
        "details": "Returns address of token holder by index inside array of token holders",
        "params": {
          "_index": "- Index inside array of token holders"
        }
      },
      "holders(uint256,uint256)": {
        "details": "Returns token holders addresses and their balances in some range",
        "params": {
          "_from": "- Start index inside array of token holders",
          "_to": "- End index inside array of token holders"
        }
      },
      "holdersCount()": {
        "details": "Returns count of token holders"
      },
      "increaseAllowance(address,uint256)": {
        "details": "Increase amount of tokens allowed to be transfered for approved  address from balance of owner ",
        "params": {
          "_addedAmount": "- Amount to be added to approved address allowance balance",
          "_operator": "- Approved address"
        }
      },
      "totalSupply()": {
        "details": "Returns total supply of Fungible Token"
      },
      "transfer(address,uint256)": {
        "details": "Transfer specified amount of tokens from token holder to receipient, could throw in case function caller has not enough tokens",
        "params": {
          "_amount": "- Amount of FT's to be transfered",
          "_to": "- New holder of FT's"
        }
      },
      "transferFrom(address,address,uint256)": {
        "details": "Transfer specified amount of tokens from token holder to receipient, function caller address is approved address  ",
        "params": {
          "_amount": "- Amount of FT's to be transfered",
          "_from": "- Holder of FT's to transfer from",
          "_to": "- New holder of FT's to transfer to"
        }
      }
    }
  },
  "userdoc": {
    "methods": {
      "decreaseAllowance(address,uint256)": {
        "notice": "owner means caller address"
      },
      "increaseAllowance(address,uint256)": {
        "notice": "owner means caller address"
      },
      "transfer(address,uint256)": {
        "notice": "owner means holder of FT's"
      },
      "transferFrom(address,address,uint256)": {
        "notice": "Allowance balance will be decreased with _amount"
      }
    }
  }
}