{
  "contractName": "RFTFT",
  "abi": [
    {
      "constant": true,
      "inputs": [
        {
          "name": "",
          "type": "address"
        }
      ],
      "name": "_balances",
      "outputs": [
        {
          "name": "",
          "type": "uint256"
        }
      ],
      "payable": false,
      "stateMutability": "view",
      "type": "function"
    },
    {
      "constant": true,
      "inputs": [
        {
          "name": "",
          "type": "address"
        },
        {
          "name": "",
          "type": "address"
        }
      ],
      "name": "_allowed",
      "outputs": [
        {
          "name": "",
          "type": "uint256"
        }
      ],
      "payable": false,
      "stateMutability": "view",
      "type": "function"
    },
    {
      "anonymous": false,
      "inputs": [
        {
          "indexed": false,
          "name": "_from",
          "type": "address"
        },
        {
          "indexed": false,
          "name": "_to",
          "type": "address"
        },
        {
          "indexed": true,
          "name": "_tokenId",
          "type": "uint256"
        }
      ],
      "name": "Transfer",
      "type": "event"
    },
    {
      "anonymous": false,
      "inputs": [
        {
          "indexed": true,
          "name": "_owner",
          "type": "address"
        },
        {
          "indexed": true,
          "name": "_approved",
          "type": "address"
        },
        {
          "indexed": true,
          "name": "_tokenId",
          "type": "uint256"
        }
      ],
      "name": "Approval",
      "type": "event"
    },
    {
      "constant": true,
      "inputs": [],
      "name": "totalSupply",
      "outputs": [
        {
          "name": "",
          "type": "uint256"
        }
      ],
      "payable": false,
      "stateMutability": "view",
      "type": "function"
    },
    {
      "constant": true,
      "inputs": [
        {
          "name": "_address",
          "type": "address"
        }
      ],
      "name": "balanceOf",
      "outputs": [
        {
          "name": "",
          "type": "uint256"
        }
      ],
      "payable": false,
      "stateMutability": "view",
      "type": "function"
    },
    {
      "constant": false,
      "inputs": [
        {
          "name": "_to",
          "type": "address"
        },
        {
          "name": "_amount",
          "type": "uint256"
        }
      ],
      "name": "transfer",
      "outputs": [
        {
          "name": "",
          "type": "bool"
        }
      ],
      "payable": false,
      "stateMutability": "nonpayable",
      "type": "function"
    },
    {
      "constant": false,
      "inputs": [
        {
          "name": "_operator",
          "type": "address"
        },
        {
          "name": "_amount",
          "type": "uint256"
        }
      ],
      "name": "approve",
      "outputs": [
        {
          "name": "",
          "type": "bool"
        }
      ],
      "payable": false,
      "stateMutability": "nonpayable",
      "type": "function"
    },
    {
      "constant": false,
      "inputs": [
        {
          "name": "_from",
          "type": "address"
        },
        {
          "name": "_to",
          "type": "address"
        },
        {
          "name": "_amount",
          "type": "uint256"
        }
      ],
      "name": "transferFrom",
      "outputs": [
        {
          "name": "",
          "type": "bool"
        }
      ],
      "payable": false,
      "stateMutability": "nonpayable",
      "type": "function"
    },
    {
      "constant": false,
      "inputs": [
        {
          "name": "_operator",
          "type": "address"
        },
        {
          "name": "_addedAmount",
          "type": "uint256"
        }
      ],
      "name": "increaseAllowance",
      "outputs": [
        {
          "name": "",
          "type": "bool"
        }
      ],
      "payable": false,
      "stateMutability": "nonpayable",
      "type": "function"
    },
    {
      "constant": false,
      "inputs": [
        {
          "name": "_operator",
          "type": "address"
        },
        {
          "name": "_substractedAmount",
          "type": "uint256"
        }
      ],
      "name": "decreaseAllowance",
      "outputs": [
        {
          "name": "",
          "type": "bool"
        }
      ],
      "payable": false,
      "stateMutability": "nonpayable",
      "type": "function"
    },
    {
      "constant": true,
      "inputs": [
        {
          "name": "_owner",
          "type": "address"
        },
        {
          "name": "_operator",
          "type": "address"
        }
      ],
      "name": "allowance",
      "outputs": [
        {
          "name": "",
          "type": "uint256"
        }
      ],
      "payable": false,
      "stateMutability": "view",
      "type": "function"
    }
  ],
  "bytecode": "0x608060405234801561001057600080fd5b506111be806100206000396000f3006080604052600436106100a4576000357c0100000000000000000000000000000000000000000000000000000000900463ffffffff168063095ea7b3146100a957806318160ddd1461010e57806323b872dd1461013957806339509351146101be5780636ebcf6071461022357806370a082311461027a578063a457c2d7146102d1578063a9059cbb14610336578063ba0fb8611461039b578063dd62ed3e14610412575b600080fd5b3480156100b557600080fd5b506100f4600480360381019080803573ffffffffffffffffffffffffffffffffffffffff16906020019092919080359060200190929190505050610489565b604051808215151515815260200191505060405180910390f35b34801561011a57600080fd5b506101236105ac565b6040518082815260200191505060405180910390f35b34801561014557600080fd5b506101a4600480360381019080803573ffffffffffffffffffffffffffffffffffffffff169060200190929190803573ffffffffffffffffffffffffffffffffffffffff169060200190929190803590602001909291905050506105b6565b604051808215151515815260200191505060405180910390f35b3480156101ca57600080fd5b50610209600480360381019080803573ffffffffffffffffffffffffffffffffffffffff169060200190929190803590602001909291905050506109a4565b604051808215151515815260200191505060405180910390f35b34801561022f57600080fd5b50610264600480360381019080803573ffffffffffffffffffffffffffffffffffffffff169060200190929190505050610bd1565b6040518082815260200191505060405180910390f35b34801561028657600080fd5b506102bb600480360381019080803573ffffffffffffffffffffffffffffffffffffffff169060200190929190505050610be9565b6040518082815260200191505060405180910390f35b3480156102dd57600080fd5b5061031c600480360381019080803573ffffffffffffffffffffffffffffffffffffffff16906020019092919080359060200190929190505050610c31565b604051808215151515815260200191505060405180910390f35b34801561034257600080fd5b50610381600480360381019080803573ffffffffffffffffffffffffffffffffffffffff16906020019092919080359060200190929190505050610e5e565b604051808215151515815260200191505060405180910390f35b3480156103a757600080fd5b506103fc600480360381019080803573ffffffffffffffffffffffffffffffffffffffff169060200190929190803573ffffffffffffffffffffffffffffffffffffffff1690602001909291905050506110b1565b6040518082815260200191505060405180910390f35b34801561041e57600080fd5b50610473600480360381019080803573ffffffffffffffffffffffffffffffffffffffff169060200190929190803573ffffffffffffffffffffffffffffffffffffffff1690602001909291905050506110d6565b6040518082815260200191505060405180910390f35b60008073ffffffffffffffffffffffffffffffffffffffff168373ffffffffffffffffffffffffffffffffffffffff16141515156104c657600080fd5b81600160003373ffffffffffffffffffffffffffffffffffffffff1673ffffffffffffffffffffffffffffffffffffffff16815260200190815260200160002060008573ffffffffffffffffffffffffffffffffffffffff1673ffffffffffffffffffffffffffffffffffffffff16815260200190815260200160002081905550818373ffffffffffffffffffffffffffffffffffffffff163373ffffffffffffffffffffffffffffffffffffffff167f8c5be1e5ebec7d5bd14f71427d1e84f3dd0314c0f7b2291e5b200ac8c7c3b92560405160405180910390a46001905092915050565b6000600254905090565b60008060008573ffffffffffffffffffffffffffffffffffffffff1673ffffffffffffffffffffffffffffffffffffffff16815260200190815260200160002054821115151561060557600080fd5b600160008573ffffffffffffffffffffffffffffffffffffffff1673ffffffffffffffffffffffffffffffffffffffff16815260200190815260200160002060003373ffffffffffffffffffffffffffffffffffffffff1673ffffffffffffffffffffffffffffffffffffffff16815260200190815260200160002054821115151561069057600080fd5b600073ffffffffffffffffffffffffffffffffffffffff168373ffffffffffffffffffffffffffffffffffffffff16141515156106cc57600080fd5b61071d826000808773ffffffffffffffffffffffffffffffffffffffff1673ffffffffffffffffffffffffffffffffffffffff1681526020019081526020016000205461115d90919063ffffffff16565b6000808673ffffffffffffffffffffffffffffffffffffffff1673ffffffffffffffffffffffffffffffffffffffff168152602001908152602001600020819055506107b0826000808673ffffffffffffffffffffffffffffffffffffffff1673ffffffffffffffffffffffffffffffffffffffff1681526020019081526020016000205461117690919063ffffffff16565b6000808573ffffffffffffffffffffffffffffffffffffffff1673ffffffffffffffffffffffffffffffffffffffff1681526020019081526020016000208190555061088182600160008773ffffffffffffffffffffffffffffffffffffffff1673ffffffffffffffffffffffffffffffffffffffff16815260200190815260200160002060003373ffffffffffffffffffffffffffffffffffffffff1673ffffffffffffffffffffffffffffffffffffffff1681526020019081526020016000205461115d90919063ffffffff16565b600160008673ffffffffffffffffffffffffffffffffffffffff1673ffffffffffffffffffffffffffffffffffffffff16815260200190815260200160002060003373ffffffffffffffffffffffffffffffffffffffff1673ffffffffffffffffffffffffffffffffffffffff16815260200190815260200160002081905550817fddf252ad1be2c89b69c2b068fc378daa952ba7f163c4a11628f55a4df523b3ef8585604051808373ffffffffffffffffffffffffffffffffffffffff1673ffffffffffffffffffffffffffffffffffffffff1681526020018273ffffffffffffffffffffffffffffffffffffffff1673ffffffffffffffffffffffffffffffffffffffff1681526020019250505060405180910390a2600190509392505050565b60008073ffffffffffffffffffffffffffffffffffffffff168373ffffffffffffffffffffffffffffffffffffffff16141515156109e157600080fd5b610a7082600160003373ffffffffffffffffffffffffffffffffffffffff1673ffffffffffffffffffffffffffffffffffffffff16815260200190815260200160002060008673ffffffffffffffffffffffffffffffffffffffff1673ffffffffffffffffffffffffffffffffffffffff1681526020019081526020016000205461117690919063ffffffff16565b600160003373ffffffffffffffffffffffffffffffffffffffff1673ffffffffffffffffffffffffffffffffffffffff16815260200190815260200160002060008573ffffffffffffffffffffffffffffffffffffffff1673ffffffffffffffffffffffffffffffffffffffff16815260200190815260200160002081905550600160003373ffffffffffffffffffffffffffffffffffffffff1673ffffffffffffffffffffffffffffffffffffffff16815260200190815260200160002060008473ffffffffffffffffffffffffffffffffffffffff1673ffffffffffffffffffffffffffffffffffffffff168152602001908152602001600020548373ffffffffffffffffffffffffffffffffffffffff163373ffffffffffffffffffffffffffffffffffffffff167f8c5be1e5ebec7d5bd14f71427d1e84f3dd0314c0f7b2291e5b200ac8c7c3b92560405160405180910390a46001905092915050565b60006020528060005260406000206000915090505481565b60008060008373ffffffffffffffffffffffffffffffffffffffff1673ffffffffffffffffffffffffffffffffffffffff168152602001908152602001600020549050919050565b60008073ffffffffffffffffffffffffffffffffffffffff168373ffffffffffffffffffffffffffffffffffffffff1614151515610c6e57600080fd5b610cfd82600160003373ffffffffffffffffffffffffffffffffffffffff1673ffffffffffffffffffffffffffffffffffffffff16815260200190815260200160002060008673ffffffffffffffffffffffffffffffffffffffff1673ffffffffffffffffffffffffffffffffffffffff1681526020019081526020016000205461115d90919063ffffffff16565b600160003373ffffffffffffffffffffffffffffffffffffffff1673ffffffffffffffffffffffffffffffffffffffff16815260200190815260200160002060008573ffffffffffffffffffffffffffffffffffffffff1673ffffffffffffffffffffffffffffffffffffffff16815260200190815260200160002081905550600160003373ffffffffffffffffffffffffffffffffffffffff1673ffffffffffffffffffffffffffffffffffffffff16815260200190815260200160002060008473ffffffffffffffffffffffffffffffffffffffff1673ffffffffffffffffffffffffffffffffffffffff168152602001908152602001600020548373ffffffffffffffffffffffffffffffffffffffff163373ffffffffffffffffffffffffffffffffffffffff167f8c5be1e5ebec7d5bd14f71427d1e84f3dd0314c0f7b2291e5b200ac8c7c3b92560405160405180910390a46001905092915050565b60008060003373ffffffffffffffffffffffffffffffffffffffff1673ffffffffffffffffffffffffffffffffffffffff168152602001908152602001600020548211151515610ead57600080fd5b600073ffffffffffffffffffffffffffffffffffffffff168373ffffffffffffffffffffffffffffffffffffffff1614151515610ee957600080fd5b610f3a826000803373ffffffffffffffffffffffffffffffffffffffff1673ffffffffffffffffffffffffffffffffffffffff1681526020019081526020016000205461115d90919063ffffffff16565b6000803373ffffffffffffffffffffffffffffffffffffffff1673ffffffffffffffffffffffffffffffffffffffff16815260200190815260200160002081905550610fcd826000808673ffffffffffffffffffffffffffffffffffffffff1673ffffffffffffffffffffffffffffffffffffffff1681526020019081526020016000205461117690919063ffffffff16565b6000808573ffffffffffffffffffffffffffffffffffffffff1673ffffffffffffffffffffffffffffffffffffffff16815260200190815260200160002081905550817fddf252ad1be2c89b69c2b068fc378daa952ba7f163c4a11628f55a4df523b3ef3385604051808373ffffffffffffffffffffffffffffffffffffffff1673ffffffffffffffffffffffffffffffffffffffff1681526020018273ffffffffffffffffffffffffffffffffffffffff1673ffffffffffffffffffffffffffffffffffffffff1681526020019250505060405180910390a26001905092915050565b6001602052816000526040600020602052806000526040600020600091509150505481565b6000600160008473ffffffffffffffffffffffffffffffffffffffff1673ffffffffffffffffffffffffffffffffffffffff16815260200190815260200160002060008373ffffffffffffffffffffffffffffffffffffffff1673ffffffffffffffffffffffffffffffffffffffff16815260200190815260200160002054905092915050565b600082821115151561116b57fe5b818303905092915050565b6000818301905082811015151561118957fe5b809050929150505600a165627a7a7230582034ef400fe1d46b30aa08dd186a9d07f58f80536ce2ed507158cb08b8eee93f5e0029",
  "source": "pragma solidity ^0.4.24;\n\nimport 'openzeppelin-solidity/contracts/math/SafeMath.sol';\nimport './IRFTFT.sol';\n\ncontract RFTFT is IRFTFT {\n    using SafeMath for uint256;\n\n    // Mapping of Fungible Token holder balances\n    mapping (address => uint256) public _balances;\n\n    // Mapping of Fungible Token allowance\n    mapping (address => mapping (address => uint256)) public _allowed;\n\n    // Total supply of Fungible Token \n    uint256 private totalSupply_;\n\n    /**\n    * @dev Returns all supply of tokens that was initially created\n    */\n    function totalSupply() public view returns (uint256) {\n        return totalSupply_;\n    }\n\n    /**\n    * @dev Returns fungible token balance of specific address\n    * @param _address - ETH address of FT holder\n    */\n    function balanceOf(address _address) public view returns (uint256) {\n        return _balances[_address];\n    }\n\n    /**\n    * @dev Transfer specified amount of tokens from token holder to\n    * receipient, could throw in case function caller has not enough tokens\n    * @notice owner means holder of FT's\n    * @param _to - New holder of FT's\n    * @param _amount - Amount of FT's to be transfered\n    */\n    function transfer(\n        address _to,\n        uint256 _amount\n    ) \n        public \n        returns (bool) \n    {\n        require(_amount <= _balances[msg.sender]);\n        require(_to != address(0));\n\n        _balances[msg.sender] = _balances[msg.sender].sub(_amount);\n        _balances[_to] = _balances[_to].add(_amount);\n        emit Transfer(msg.sender, _to, _amount);\n        return true;\n    }\n\n    /**\n    * @dev Allow _operator to withdraw from your account, multiple times, \n    * up to the _amount. If this function is called again it overwrites \n    * the current allowance with _value.\n    * @param _operator - Address that allowed to withdraw from FT owner balance\n    * @param _amount - Amount of approved FT's\n    */\n    function approve(\n        address _operator,\n        uint256 _amount\n    )\n        public \n        returns (bool) \n    {\n        require(_operator != address(0));\n        _allowed[msg.sender][_operator] = _amount;\n        emit Approval(msg.sender, _operator, _amount);\n        return true;\n    }\n\n    /**\n    * @dev Transfer specified amount of tokens from token holder to receipient,\n    * function caller address is approved address  \n    * @notice Allowance balance will be decreased with _amount\n    * @param _from - Holder of FT's to transfer from\n    * @param _to - New holder of FT's to transfer to\n    * @param _amount - Amount of FT's to be transfered\n    */\n    function transferFrom(\n        address _from,\n        address _to,\n        uint256 _amount\n    )\n        public \n        returns (bool) \n    {\n        require(_amount <= _balances[_from]);\n        require(_amount <= _allowed[_from][msg.sender]);\n        require(_to != address(0));\n\n        _balances[_from] = _balances[_from].sub(_amount);\n        _balances[_to] = _balances[_to].add(_amount);\n        _allowed[_from][msg.sender] = _allowed[_from][msg.sender].sub(_amount);\n        emit Transfer(_from, _to, _amount);\n        return true;\n    }\n\n    /**\n    * @dev Increase amount of tokens allowed to be transfered for approved \n    * address from balance of owner \n    * @notice owner means caller address\n    * @param _operator - Approved address\n    * @param _addedAmount - Amount to be added to approved address allowance balance\n    */\n    function increaseAllowance(\n        address _operator,\n        uint256 _addedAmount\n    )\n        public \n        returns (bool) \n    {\n        require(_operator != address(0));\n        _allowed[msg.sender][_operator] = (\n            _allowed[msg.sender][_operator].add(_addedAmount)\n        );\n        emit Approval(msg.sender, _operator, _allowed[msg.sender][_operator]);\n        return true;\n    }\n\n    /**\n    * @dev Decrease amount of tokens allowed to be transfered for approved\n    * address from balance of owner \n    * @notice owner means caller address\n    * @param _operator - Approved address\n    * @param _substractedAmount - Amount to be substracted from approved address allowance balance\n    */\n    function decreaseAllowance(\n        address _operator,\n        uint256 _substractedAmount\n    )\n        public \n        returns (bool) \n    {\n        require(_operator != address(0));\n        _allowed[msg.sender][_operator] = (\n            _allowed[msg.sender][_operator].sub(_substractedAmount)\n        );\n        emit Approval(msg.sender, _operator, _allowed[msg.sender][_operator]);\n        return true;\n    }\n\n    /**\n    * @dev Returns amount of tokens allowed to be transfered for approved address\n    * from balance of owner\n    * @param _owner - Holder of FT's\n    * @param _operator - Approved address\n    */\n    function allowance(\n        address _owner,\n        address _operator\n    )  \n        public \n        view \n        returns (uint256) \n    {\n       return _allowed[_owner][_operator];\n    }\n}",
  "sourcePath": "/home/juuzou/Documents/RFT_contracts/contracts/rft/RFTFT.sol",
  "compiler": {
    "name": "solc",
    "version": "0.4.24+commit.e67f0147.Emscripten.clang"
  },
  "schemaVersion": "3.3.4",
  "updatedAt": "2021-03-09T10:37:48.669Z",
  "networkType": "ethereum",
  "devdoc": {
    "methods": {
      "allowance(address,address)": {
        "details": "Returns amount of tokens allowed to be transfered for approved address from balance of owner",
        "params": {
          "_operator": "- Approved address",
          "_owner": "- Holder of FT's"
        }
      },
      "approve(address,uint256)": {
        "details": "Allow _operator to withdraw from your account, multiple times,  up to the _amount. If this function is called again it overwrites  the current allowance with _value.",
        "params": {
          "_amount": "- Amount of approved FT's",
          "_operator": "- Address that allowed to withdraw from FT owner balance"
        }
      },
      "balanceOf(address)": {
        "details": "Returns fungible token balance of specific address",
        "params": {
          "_address": "- ETH address of FT holder"
        }
      },
      "decreaseAllowance(address,uint256)": {
        "details": "Decrease amount of tokens allowed to be transfered for approved address from balance of owner ",
        "params": {
          "_operator": "- Approved address",
          "_substractedAmount": "- Amount to be substracted from approved address allowance balance"
        }
      },
      "increaseAllowance(address,uint256)": {
        "details": "Increase amount of tokens allowed to be transfered for approved  address from balance of owner ",
        "params": {
          "_addedAmount": "- Amount to be added to approved address allowance balance",
          "_operator": "- Approved address"
        }
      },
      "totalSupply()": {
        "details": "Returns all supply of tokens that was initially created"
      },
      "transfer(address,uint256)": {
        "details": "Transfer specified amount of tokens from token holder to receipient, could throw in case function caller has not enough tokens",
        "params": {
          "_amount": "- Amount of FT's to be transfered",
          "_to": "- New holder of FT's"
        }
      },
      "transferFrom(address,address,uint256)": {
        "details": "Transfer specified amount of tokens from token holder to receipient, function caller address is approved address  ",
        "params": {
          "_amount": "- Amount of FT's to be transfered",
          "_from": "- Holder of FT's to transfer from",
          "_to": "- New holder of FT's to transfer to"
        }
      }
    }
  },
  "userdoc": {
    "methods": {
      "decreaseAllowance(address,uint256)": {
        "notice": "owner means caller address"
      },
      "increaseAllowance(address,uint256)": {
        "notice": "owner means caller address"
      },
      "transfer(address,uint256)": {
        "notice": "owner means holder of FT's"
      },
      "transferFrom(address,address,uint256)": {
        "notice": "Allowance balance will be decreased with _amount"
      }
    }
  }
}