{
  "contractName": "RFTNFTEnumerable",
  "abi": [
    {
      "constant": true,
      "inputs": [
        {
          "name": "_interfaceId",
          "type": "bytes4"
        }
      ],
      "name": "supportsInterface",
      "outputs": [
        {
          "name": "",
          "type": "bool"
        }
      ],
      "payable": false,
      "stateMutability": "view",
      "type": "function"
    },
    {
      "constant": true,
      "inputs": [
        {
          "name": "_tokenId",
          "type": "uint256"
        }
      ],
      "name": "getApproved",
      "outputs": [
        {
          "name": "",
          "type": "address"
        }
      ],
      "payable": false,
      "stateMutability": "view",
      "type": "function"
    },
    {
      "constant": false,
      "inputs": [
        {
          "name": "_to",
          "type": "address"
        },
        {
          "name": "_tokenId",
          "type": "uint256"
        }
      ],
      "name": "approve",
      "outputs": [],
      "payable": false,
      "stateMutability": "nonpayable",
      "type": "function"
    },
    {
      "constant": true,
      "inputs": [],
      "name": "InterfaceId_ERC165",
      "outputs": [
        {
          "name": "",
          "type": "bytes4"
        }
      ],
      "payable": false,
      "stateMutability": "view",
      "type": "function"
    },
    {
      "constant": false,
      "inputs": [
        {
          "name": "_from",
          "type": "address"
        },
        {
          "name": "_to",
          "type": "address"
        },
        {
          "name": "_tokenId",
          "type": "uint256"
        }
      ],
      "name": "transferFrom",
      "outputs": [],
      "payable": false,
      "stateMutability": "nonpayable",
      "type": "function"
    },
    {
      "constant": false,
      "inputs": [
        {
          "name": "_from",
          "type": "address"
        },
        {
          "name": "_to",
          "type": "address"
        },
        {
          "name": "_tokenId",
          "type": "uint256"
        }
      ],
      "name": "safeTransferFrom",
      "outputs": [],
      "payable": false,
      "stateMutability": "nonpayable",
      "type": "function"
    },
    {
      "constant": true,
      "inputs": [
        {
          "name": "_tokenId",
          "type": "uint256"
        }
      ],
      "name": "ownerOf",
      "outputs": [
        {
          "name": "",
          "type": "address"
        }
      ],
      "payable": false,
      "stateMutability": "view",
      "type": "function"
    },
    {
      "constant": true,
      "inputs": [
        {
          "name": "_owner",
          "type": "address"
        }
      ],
      "name": "balanceOf",
      "outputs": [
        {
          "name": "",
          "type": "uint256"
        }
      ],
      "payable": false,
      "stateMutability": "view",
      "type": "function"
    },
    {
      "constant": false,
      "inputs": [
        {
          "name": "_to",
          "type": "address"
        },
        {
          "name": "_approved",
          "type": "bool"
        }
      ],
      "name": "setApprovalForAll",
      "outputs": [],
      "payable": false,
      "stateMutability": "nonpayable",
      "type": "function"
    },
    {
      "constant": true,
      "inputs": [
        {
          "name": "",
          "type": "uint256"
        }
      ],
      "name": "_allTokens",
      "outputs": [
        {
          "name": "",
          "type": "uint256"
        }
      ],
      "payable": false,
      "stateMutability": "view",
      "type": "function"
    },
    {
      "constant": false,
      "inputs": [
        {
          "name": "_from",
          "type": "address"
        },
        {
          "name": "_to",
          "type": "address"
        },
        {
          "name": "_tokenId",
          "type": "uint256"
        },
        {
          "name": "_data",
          "type": "bytes"
        }
      ],
      "name": "safeTransferFrom",
      "outputs": [],
      "payable": false,
      "stateMutability": "nonpayable",
      "type": "function"
    },
    {
      "constant": true,
      "inputs": [
        {
          "name": "_owner",
          "type": "address"
        },
        {
          "name": "_operator",
          "type": "address"
        }
      ],
      "name": "isApprovedForAll",
      "outputs": [
        {
          "name": "",
          "type": "bool"
        }
      ],
      "payable": false,
      "stateMutability": "view",
      "type": "function"
    },
    {
      "inputs": [],
      "payable": false,
      "stateMutability": "nonpayable",
      "type": "constructor"
    },
    {
      "anonymous": false,
      "inputs": [
        {
          "indexed": true,
          "name": "from",
          "type": "address"
        },
        {
          "indexed": true,
          "name": "to",
          "type": "address"
        },
        {
          "indexed": true,
          "name": "tokenId",
          "type": "uint256"
        }
      ],
      "name": "Transfer",
      "type": "event"
    },
    {
      "anonymous": false,
      "inputs": [
        {
          "indexed": true,
          "name": "owner",
          "type": "address"
        },
        {
          "indexed": true,
          "name": "approved",
          "type": "address"
        },
        {
          "indexed": true,
          "name": "tokenId",
          "type": "uint256"
        }
      ],
      "name": "Approval",
      "type": "event"
    },
    {
      "anonymous": false,
      "inputs": [
        {
          "indexed": true,
          "name": "owner",
          "type": "address"
        },
        {
          "indexed": true,
          "name": "operator",
          "type": "address"
        },
        {
          "indexed": false,
          "name": "approved",
          "type": "bool"
        }
      ],
      "name": "ApprovalForAll",
      "type": "event"
    },
    {
      "constant": true,
      "inputs": [
        {
          "name": "_owner",
          "type": "address"
        },
        {
          "name": "_index",
          "type": "uint256"
        }
      ],
      "name": "tokenOfOwnerByIndex",
      "outputs": [
        {
          "name": "",
          "type": "uint256"
        }
      ],
      "payable": false,
      "stateMutability": "view",
      "type": "function"
    },
    {
      "constant": true,
      "inputs": [],
      "name": "totalSupply",
      "outputs": [
        {
          "name": "",
          "type": "uint256"
        }
      ],
      "payable": false,
      "stateMutability": "view",
      "type": "function"
    },
    {
      "constant": true,
      "inputs": [
        {
          "name": "_index",
          "type": "uint256"
        }
      ],
      "name": "tokenByIndex",
      "outputs": [
        {
          "name": "",
          "type": "uint256"
        }
      ],
      "payable": false,
      "stateMutability": "view",
      "type": "function"
    }
  ],
  "bytecode": "0x608060405234801561001057600080fd5b5061004c6301ffc9a77c0100000000000000000000000000000000000000000000000000000000026100c7640100000000026401000000009004565b6100876380ac58cd7c0100000000000000000000000000000000000000000000000000000000026100c7640100000000026401000000009004565b6100c263780e9d637c0100000000000000000000000000000000000000000000000000000000026100c7640100000000026401000000009004565b610184565b63ffffffff7c010000000000000000000000000000000000000000000000000000000002817bffffffffffffffffffffffffffffffffffffffffffffffffffffffff19161415151561011857600080fd5b6001600080837bffffffffffffffffffffffffffffffffffffffffffffffffffffffff19167bffffffffffffffffffffffffffffffffffffffffffffffffffffffff1916815260200190815260200160002060006101000a81548160ff02191690831515021790555050565b61178a80620001946000396000f3006080604052600436106100db576000357c0100000000000000000000000000000000000000000000000000000000900463ffffffff16806301ffc9a7146100e0578063081812fc14610144578063095ea7b3146101b157806318160ddd146101fe57806319fa8f501461022957806323b872dd146102925780632f745c59146102ff57806342842e0e146103605780634f6ccce7146103cd5780636352211e1461040e57806370a082311461047b578063a22cb465146104d2578063aa5965ae14610521578063b88d4fde14610562578063e985e9c514610615575b600080fd5b3480156100ec57600080fd5b5061012a60048036038101908080357bffffffffffffffffffffffffffffffffffffffffffffffffffffffff19169060200190929190505050610690565b604051808215151515815260200191505060405180910390f35b34801561015057600080fd5b5061016f600480360381019080803590602001909291905050506106f7565b604051808273ffffffffffffffffffffffffffffffffffffffff1673ffffffffffffffffffffffffffffffffffffffff16815260200191505060405180910390f35b3480156101bd57600080fd5b506101fc600480360381019080803573ffffffffffffffffffffffffffffffffffffffff16906020019092919080359060200190929190505050610748565b005b34801561020a57600080fd5b5061021361088d565b6040518082815260200191505060405180910390f35b34801561023557600080fd5b5061023e61089a565b60405180827bffffffffffffffffffffffffffffffffffffffffffffffffffffffff19167bffffffffffffffffffffffffffffffffffffffffffffffffffffffff1916815260200191505060405180910390f35b34801561029e57600080fd5b506102fd600480360381019080803573ffffffffffffffffffffffffffffffffffffffff169060200190929190803573ffffffffffffffffffffffffffffffffffffffff169060200190929190803590602001909291905050506108c1565b005b34801561030b57600080fd5b5061034a600480360381019080803573ffffffffffffffffffffffffffffffffffffffff16906020019092919080359060200190929190505050610990565b6040518082815260200191505060405180910390f35b34801561036c57600080fd5b506103cb600480360381019080803573ffffffffffffffffffffffffffffffffffffffff169060200190929190803573ffffffffffffffffffffffffffffffffffffffff16906020019092919080359060200190929190505050610a07565b005b3480156103d957600080fd5b506103f860048036038101908080359060200190929190505050610a28565b6040518082815260200191505060405180910390f35b34801561041a57600080fd5b5061043960048036038101908080359060200190929190505050610a60565b604051808273ffffffffffffffffffffffffffffffffffffffff1673ffffffffffffffffffffffffffffffffffffffff16815260200191505060405180910390f35b34801561048757600080fd5b506104bc600480360381019080803573ffffffffffffffffffffffffffffffffffffffff169060200190929190505050610ade565b6040518082815260200191505060405180910390f35b3480156104de57600080fd5b5061051f600480360381019080803573ffffffffffffffffffffffffffffffffffffffff169060200190929190803515159060200190929190505050610b62565b005b34801561052d57600080fd5b5061054c60048036038101908080359060200190929190505050610c9e565b6040518082815260200191505060405180910390f35b34801561056e57600080fd5b50610613600480360381019080803573ffffffffffffffffffffffffffffffffffffffff169060200190929190803573ffffffffffffffffffffffffffffffffffffffff16906020019092919080359060200190929190803590602001908201803590602001908080601f0160208091040260200160405190810160405280939291908181526020018383808284378201915050505050509192919290505050610cc1565b005b34801561062157600080fd5b50610676600480360381019080803573ffffffffffffffffffffffffffffffffffffffff169060200190929190803573ffffffffffffffffffffffffffffffffffffffff169060200190929190505050610ce9565b604051808215151515815260200191505060405180910390f35b6000806000837bffffffffffffffffffffffffffffffffffffffffffffffffffffffff19167bffffffffffffffffffffffffffffffffffffffffffffffffffffffff1916815260200190815260200160002060009054906101000a900460ff169050919050565b600061070282610d7d565b151561070d57600080fd5b6002600083815260200190815260200160002060009054906101000a900473ffffffffffffffffffffffffffffffffffffffff169050919050565b600061075382610a60565b90508073ffffffffffffffffffffffffffffffffffffffff168373ffffffffffffffffffffffffffffffffffffffff161415151561079057600080fd5b8073ffffffffffffffffffffffffffffffffffffffff163373ffffffffffffffffffffffffffffffffffffffff1614806107d057506107cf8133610ce9565b5b15156107db57600080fd5b826002600084815260200190815260200160002060006101000a81548173ffffffffffffffffffffffffffffffffffffffff021916908373ffffffffffffffffffffffffffffffffffffffff160217905550818373ffffffffffffffffffffffffffffffffffffffff168273ffffffffffffffffffffffffffffffffffffffff167f8c5be1e5ebec7d5bd14f71427d1e84f3dd0314c0f7b2291e5b200ac8c7c3b92560405160405180910390a4505050565b6000600780549050905090565b6301ffc9a77c01000000000000000000000000000000000000000000000000000000000281565b6108cb3382610def565b15156108d657600080fd5b600073ffffffffffffffffffffffffffffffffffffffff168273ffffffffffffffffffffffffffffffffffffffff161415151561091257600080fd5b61091c8382610e84565b6109268382610f87565b6109308282611143565b808273ffffffffffffffffffffffffffffffffffffffff168473ffffffffffffffffffffffffffffffffffffffff167fddf252ad1be2c89b69c2b068fc378daa952ba7f163c4a11628f55a4df523b3ef60405160405180910390a4505050565b600061099b83610ade565b821015156109a857600080fd5b600560008473ffffffffffffffffffffffffffffffffffffffff1673ffffffffffffffffffffffffffffffffffffffff168152602001908152602001600020828154811015156109f457fe5b9060005260206000200154905092915050565b610a238383836020604051908101604052806000815250610cc1565b505050565b6000610a3261088d565b82101515610a3f57600080fd5b600782815481101515610a4e57fe5b90600052602060002001549050919050565b6000806001600084815260200190815260200160002060009054906101000a900473ffffffffffffffffffffffffffffffffffffffff169050600073ffffffffffffffffffffffffffffffffffffffff168173ffffffffffffffffffffffffffffffffffffffff1614151515610ad557600080fd5b80915050919050565b60008073ffffffffffffffffffffffffffffffffffffffff168273ffffffffffffffffffffffffffffffffffffffff1614151515610b1b57600080fd5b600360008373ffffffffffffffffffffffffffffffffffffffff1673ffffffffffffffffffffffffffffffffffffffff168152602001908152602001600020549050919050565b3373ffffffffffffffffffffffffffffffffffffffff168273ffffffffffffffffffffffffffffffffffffffff1614151515610b9d57600080fd5b80600460003373ffffffffffffffffffffffffffffffffffffffff1673ffffffffffffffffffffffffffffffffffffffff16815260200190815260200160002060008473ffffffffffffffffffffffffffffffffffffffff1673ffffffffffffffffffffffffffffffffffffffff16815260200190815260200160002060006101000a81548160ff0219169083151502179055508173ffffffffffffffffffffffffffffffffffffffff163373ffffffffffffffffffffffffffffffffffffffff167f17307eab39ab6107e8899845ad3d59bd9653f200f220920489ca2b5937696c3183604051808215151515815260200191505060405180910390a35050565b600781815481101515610cad57fe5b906000526020600020016000915090505481565b610ccc8484846108c1565b610cd88484848461121a565b1515610ce357600080fd5b50505050565b6000600460008473ffffffffffffffffffffffffffffffffffffffff1673ffffffffffffffffffffffffffffffffffffffff16815260200190815260200160002060008373ffffffffffffffffffffffffffffffffffffffff1673ffffffffffffffffffffffffffffffffffffffff16815260200190815260200160002060009054906101000a900460ff16905092915050565b6000806001600084815260200190815260200160002060009054906101000a900473ffffffffffffffffffffffffffffffffffffffff169050600073ffffffffffffffffffffffffffffffffffffffff168173ffffffffffffffffffffffffffffffffffffffff161415915050919050565b600080610dfb83610a60565b90508073ffffffffffffffffffffffffffffffffffffffff168473ffffffffffffffffffffffffffffffffffffffff161480610e6a57508373ffffffffffffffffffffffffffffffffffffffff16610e52846106f7565b73ffffffffffffffffffffffffffffffffffffffff16145b80610e7b5750610e7a8185610ce9565b5b91505092915050565b8173ffffffffffffffffffffffffffffffffffffffff16610ea482610a60565b73ffffffffffffffffffffffffffffffffffffffff16141515610ec657600080fd5b600073ffffffffffffffffffffffffffffffffffffffff166002600083815260200190815260200160002060009054906101000a900473ffffffffffffffffffffffffffffffffffffffff1673ffffffffffffffffffffffffffffffffffffffff16141515610f835760006002600083815260200190815260200160002060006101000a81548173ffffffffffffffffffffffffffffffffffffffff021916908373ffffffffffffffffffffffffffffffffffffffff1602179055505b5050565b6000806000610f96858561143c565b600660008581526020019081526020016000205492506110026001600560008873ffffffffffffffffffffffffffffffffffffffff1673ffffffffffffffffffffffffffffffffffffffff1681526020019081526020016000208054905061156b90919063ffffffff16565b9150600560008673ffffffffffffffffffffffffffffffffffffffff1673ffffffffffffffffffffffffffffffffffffffff1681526020019081526020016000208281548110151561105057fe5b9060005260206000200154905080600560008773ffffffffffffffffffffffffffffffffffffffff1673ffffffffffffffffffffffffffffffffffffffff168152602001908152602001600020848154811015156110aa57fe5b9060005260206000200181905550600560008673ffffffffffffffffffffffffffffffffffffffff1673ffffffffffffffffffffffffffffffffffffffff16815260200190815260200160002080548091906001900361110a919061170d565b50600060066000868152602001908152602001600020819055508260066000838152602001908152602001600020819055505050505050565b600061114f8383611584565b600560008473ffffffffffffffffffffffffffffffffffffffff1673ffffffffffffffffffffffffffffffffffffffff168152602001908152602001600020805490509050600560008473ffffffffffffffffffffffffffffffffffffffff1673ffffffffffffffffffffffffffffffffffffffff168152602001908152602001600020829080600181540180825580915050906001820390600052602060002001600090919290919091505550806006600084815260200190815260200160002081905550505050565b60008061123c8573ffffffffffffffffffffffffffffffffffffffff166116de565b151561124b5760019150611433565b8473ffffffffffffffffffffffffffffffffffffffff16634c3e3934338887876040518563ffffffff167c0100000000000000000000000000000000000000000000000000000000028152600401808573ffffffffffffffffffffffffffffffffffffffff1673ffffffffffffffffffffffffffffffffffffffff1681526020018473ffffffffffffffffffffffffffffffffffffffff1673ffffffffffffffffffffffffffffffffffffffff16815260200183815260200180602001828103825283818151815260200191508051906020019080838360005b83811015611340578082015181840152602081019050611325565b50505050905090810190601f16801561136d5780820380516001836020036101000a031916815260200191505b5095505050505050602060405180830381600087803b15801561138f57600080fd5b505af11580156113a3573d6000803e3d6000fd5b505050506040513d60208110156113b957600080fd5b8101908080519060200190929190505050905063150b7a027c0100000000000000000000000000000000000000000000000000000000027bffffffffffffffffffffffffffffffffffffffffffffffffffffffff1916817bffffffffffffffffffffffffffffffffffffffffffffffffffffffff19161491505b50949350505050565b8173ffffffffffffffffffffffffffffffffffffffff1661145c82610a60565b73ffffffffffffffffffffffffffffffffffffffff1614151561147e57600080fd5b6114d16001600360008573ffffffffffffffffffffffffffffffffffffffff1673ffffffffffffffffffffffffffffffffffffffff1681526020019081526020016000205461156b90919063ffffffff16565b600360008473ffffffffffffffffffffffffffffffffffffffff1673ffffffffffffffffffffffffffffffffffffffff1681526020019081526020016000208190555060006001600083815260200190815260200160002060006101000a81548173ffffffffffffffffffffffffffffffffffffffff021916908373ffffffffffffffffffffffffffffffffffffffff1602179055505050565b600082821115151561157957fe5b818303905092915050565b600073ffffffffffffffffffffffffffffffffffffffff166001600083815260200190815260200160002060009054906101000a900473ffffffffffffffffffffffffffffffffffffffff1673ffffffffffffffffffffffffffffffffffffffff161415156115f257600080fd5b816001600083815260200190815260200160002060006101000a81548173ffffffffffffffffffffffffffffffffffffffff021916908373ffffffffffffffffffffffffffffffffffffffff1602179055506116976001600360008573ffffffffffffffffffffffffffffffffffffffff1673ffffffffffffffffffffffffffffffffffffffff168152602001908152602001600020546116f190919063ffffffff16565b600360008473ffffffffffffffffffffffffffffffffffffffff1673ffffffffffffffffffffffffffffffffffffffff168152602001908152602001600020819055505050565b600080823b905060008111915050919050565b6000818301905082811015151561170457fe5b80905092915050565b815481835581811115611734578183600052602060002091820191016117339190611739565b5b505050565b61175b91905b8082111561175757600081600090555060010161173f565b5090565b905600a165627a7a723058207917dc2107d26458212212872ec753dbbb8d1cb8cfc81678e4082564900def590029",
  "source": "pragma solidity ^0.4.24;\n\nimport 'openzeppelin-solidity/contracts/introspection/ERC165.sol';\nimport './RFTNFT.sol';\n\ncontract RFTNFTEnumerable is ERC165, RFTNFT {\n\n\t// Mapping from Address of NFT holder to a set of his NFTs\n\tmapping (address => uint256[]) internal _ownedTokens;\n\n\t// Mapping from owned NFT unique identifiers to their position in array\n\tmapping (uint256 => uint256) internal _ownedTokensIndex;\n\n\t// Array of all NFTs\n\tuint256[] public _allTokens;\n\n\t// Mapping from NFT unique identifiers to their position in array\n\tmapping (uint256 => uint256) internal _allTokensIndex;\n\n\t// InterfaceId for RFT Enumerable contract\n\tbytes4 private constant _InterfaceId_RFTNFTEnumerable = 0x780e9d63;\n\n\t/**\n\t * @dev Constructor for RFT NFT Enumarable contract\n\t */\n\tconstructor() public {\n\t\t_registerInterface(_InterfaceId_RFTNFTEnumerable);\n\t}\n\n\t/**\n     * @dev Returns NFT id owned by the supplied address and index in \n     * the owner's NFT array.\n\t * Index could be from 0 to n, where n is owner's balance of NFT's\n\t * @notice Every address in contract has array of NFT ids, and this \n\t * method provides ability to navigate in it.\n     * @param _owner - Address of NFT's owner\n     * @param _index - Index inside array of owner's NFT\n     */\n\tfunction tokenOfOwnerByIndex(\n\t\taddress _owner,\n\t\tuint256 _index\n\t)\n\t\tpublic \n\t\tview \n\t\treturns (uint256) \n\t{\n\t\trequire(_index < balanceOf(_owner));\n\t\treturn _ownedTokens[_owner][_index];\n\t}\n\n    /**\n     * @dev Returns total amount of NFT's presented in this NFT contract\n     * @notice For example we have minted 2 NFTs for 2 users(1 NFT per 1 user), \n     * in this case totalSupply will equal to 2\n     */\n\tfunction totalSupply() public view returns (uint256) {\n\t\treturn _allTokens.length;\n\t}\n\n    /**\n     * @dev Returns NFT id from all NFT's array by using its index.\n     * @notice All NFT's are added during minting to array, for example\n     * we have minted 2 NFT's for 2 users, in case we call tokenByIndex(1),\n     * it will return unique NFT id, which is located by index 1\n     * @param _index - Index inside array of all NFT\n     */\n\tfunction tokenByIndex(uint256 _index) \n\t\tpublic \n\t\tview \n\t\treturns (uint256) \n\t{\n\t\trequire (_index < totalSupply());\n\t\treturn _allTokens[_index];\n\t}\n\n    /**\n     * @dev Transfers ownership from token owner to certain receiver\n     * @param _to - Address of NFT's receiver\n     * @param _tokenId - Unique identifier for NFT\n     */\n\tfunction _addTokenTo(\n\t\taddress _to,\n\t\tuint256 _tokenId\n\t) internal {\n\t\tsuper._addTokenTo(_to, _tokenId);\n\t\tuint256 _length = _ownedTokens[_to].length;\n\t\t_ownedTokens[_to].push(_tokenId);\n\t\t_ownedTokensIndex[_tokenId] = _length;\n\t}\n\n    /**\n     * @dev Discards ownership for specified NFT owner, making NFT unassigned\n     * @param _from - Address of NFT's owner\n     * @param _tokenId - Unique identifier for NFT\n     */\n\tfunction _removeTokenFrom(\n\t\taddress _from,\n\t\tuint256 _tokenId\n\t) internal {\n\t\tsuper._removeTokenFrom(_from, _tokenId);\n\n\t\tuint256 _tokenIndex = _ownedTokensIndex[_tokenId];\n\t\tuint256 _lastTokenIndex = _ownedTokens[_from].length.sub(1);\n\t\tuint256 _lastToken = _ownedTokens[_from][_lastTokenIndex];\n\n\t\t_ownedTokens[_from][_tokenIndex] = _lastToken;\n\t\t_ownedTokens[_from].length--;\n\n\t\t_ownedTokensIndex[_tokenId] = 0;\n\t\t_ownedTokensIndex[_lastToken] = _tokenIndex;\n\t}\n\n    /** \n     * @dev Mint new NFT for specified address\n     * @param _to - Address of new Non-Fungible token owner\n     * @param _tokenId - Unique identifier of NFT\n     */\n\tfunction _mint(\n\t\taddress _to,\n\t\tuint256 _tokenId\n\t) \n\t\tinternal \n\t\treturns (bool)\n\t{\n\t\trequire(super._mint(_to, _tokenId) == true);\n\n\t\t_allTokensIndex[_tokenId] = _allTokens.length;\n\t\t_allTokens.push(_tokenId);\n\t\t\n\t\treturn true;\n\t}\n\n    /**\n     * @dev Burn Non-Fungible token for specified NFT holder\n     * @param _owner - Address of Non-Fungible token owner\n     * @param _tokenId - Unique identifier of NFT\n     */\n\tfunction _burn(\n\t\taddress _owner,\n\t\tuint256 _tokenId\n\t) \n\t\tinternal \n\t\treturns (bool)\n\t{\n\t\trequire(super._burn(_owner, _tokenId) == true);\n\n\t\tuint256 _tokenIndex = _allTokensIndex[_tokenId];\n\t\tuint256 _lastTokenIndex = _allTokens.length.sub(1);\n\t\tuint256 _lastToken = _allTokens[_lastTokenIndex];\n\n\t\t_allTokens[_tokenIndex] = _lastToken;\n\t\t_allTokens[_lastTokenIndex] = 0;\n\n\t\t_allTokens.length--;\n\t\t_allTokensIndex[_tokenId] = 0;\n\t\t_allTokensIndex[_lastToken] = _tokenIndex;\n\n\t\treturn true;\n\t}\n}",
  "sourcePath": "/home/juuzou/Documents/RFT_contracts/contracts/rft/RFTNFTEnumerable.sol",
  "compiler": {
    "name": "solc",
    "version": "0.4.24+commit.e67f0147.Emscripten.clang"
  },
  "schemaVersion": "3.3.4",
  "updatedAt": "2021-03-09T13:44:50.055Z",
  "devdoc": {
    "methods": {
      "approve(address,uint256)": {
        "details": "Approves to transfer selected NFT (_tokenId) by specific address (_to).",
        "params": {
          "_to": "- Receiver address of transfer approve for selected NFT",
          "_tokenId": "- Unique identifier of NFT"
        }
      },
      "balanceOf(address)": {
        "details": "Returns NFT Token balance of selected address (_owner), which means, how many NFT tokens owner of address has on his balance.",
        "params": {
          "_owner": "- Address of NFT holder"
        }
      },
      "getApproved(uint256)": {
        "details": "Returns address of approved for transfer address for selected NFT(_tokenId). ",
        "params": {
          "_tokenId": "- Unique identifier of NFT"
        }
      },
      "isApprovedForAll(address,address)": {
        "details": "Checks if all NFT's of certain address(_owner) is approved to transfer by another address(_operator)",
        "params": {
          "_operator": "- Receipient address of transfer rights",
          "_owner": "- Address of NFT's owner"
        }
      },
      "ownerOf(uint256)": {
        "details": "Returns owner address of selected NFT token (_tokenId).",
        "params": {
          "_tokenId": "- Unique identifier of NFT"
        }
      },
      "safeTransferFrom(address,address,uint256)": {
        "details": "Safe implementation of transferFrom function, which additionally checks that NFT receiver address is NFT compatible by calling method of Receipient contract address and supplying sender address, previous owner of NFT, NFT id",
        "params": {
          "_from": "- Address of NFT owner",
          "_to": "- Address of NFT receiver",
          "_tokenId": "- Unique identifier of NFT"
        }
      },
      "safeTransferFrom(address,address,uint256,bytes)": {
        "details": "Extended safeTransferFrom function with bytes parameter",
        "params": {
          "_data": "- Bytes additional transaction data",
          "_from": "- Address of NFT sender",
          "_to": "- Address of NFT receiver",
          "_tokenId": "- Unique identifier of NFT"
        }
      },
      "setApprovalForAll(address,bool)": {
        "details": "Approve/Disapprove(depends on _approved value) transfering of all  caller's NFTs by specific address (_to).",
        "params": {
          "_approved": "- Approval status",
          "_to": "- Receiver of approvals for all NFT's owned by caller address"
        }
      },
      "supportsInterface(bytes4)": {
        "details": "implement supportsInterface(bytes4) using a lookup table"
      },
      "tokenByIndex(uint256)": {
        "details": "Returns NFT id from all NFT's array by using its index.",
        "params": {
          "_index": "- Index inside array of all NFT"
        }
      },
      "tokenOfOwnerByIndex(address,uint256)": {
        "details": "Returns NFT id owned by the supplied address and index in  the owner's NFT array. Index could be from 0 to n, where n is owner's balance of NFT's",
        "params": {
          "_index": "- Index inside array of owner's NFT",
          "_owner": "- Address of NFT's owner"
        }
      },
      "totalSupply()": {
        "details": "Returns total amount of NFT's presented in this NFT contract"
      },
      "transferFrom(address,address,uint256)": {
        "details": "Transfer selected NFT (_tokenId) from owner (_from) to new owner(_to)",
        "params": {
          "_from": "- Address of NFT's owner ",
          "_to": "- Address of NFT receiver",
          "_tokenId": "- Unique identifier of NFT"
        }
      }
    }
  },
  "userdoc": {
    "methods": {
      "approve(address,uint256)": {
        "notice": "Approving is needed when you want to give rights for some identified party to transfer your token. Approval event will be generated once approved."
      },
      "getApproved(uint256)": {
        "notice": "Return approved address for NFT, if there is none  approved address for this NFT, it will return zero address"
      },
      "isApprovedForAll(address,address)": {
        "notice": "Returns true in case it was called  setApprovalForAll(_operator, true), otherwise - false"
      },
      "safeTransferFrom(address,address,uint256)": {
        "notice": "Safe transfer is being used instead of transferFrom, in case we need  to check that recipient address is compatible with NFT (only in case if  receipient address is contract) "
      },
      "setApprovalForAll(address,bool)": {
        "notice": "Needed in case you want to give rights to transfer of all your NFT's to some address"
      },
      "tokenByIndex(uint256)": {
        "notice": "All NFT's are added during minting to array, for example we have minted 2 NFT's for 2 users, in case we call tokenByIndex(1), it will return unique NFT id, which is located by index 1"
      },
      "tokenOfOwnerByIndex(address,uint256)": {
        "notice": "Every address in contract has array of NFT ids, and this  method provides ability to navigate in it."
      },
      "totalSupply()": {
        "notice": "For example we have minted 2 NFTs for 2 users(1 NFT per 1 user),  in this case totalSupply will equal to 2"
      },
      "transferFrom(address,address,uint256)": {
        "notice": "Transaction sender(msg.sender) should be owner or approved address by  approve or setApprovalForAll"
      }
    }
  }
}