{
  "contractName": "RFTNFTMetadata",
  "abi": [
    {
      "constant": true,
      "inputs": [
        {
          "name": "_interfaceId",
          "type": "bytes4"
        }
      ],
      "name": "supportsInterface",
      "outputs": [
        {
          "name": "",
          "type": "bool"
        }
      ],
      "payable": false,
      "stateMutability": "view",
      "type": "function"
    },
    {
      "constant": true,
      "inputs": [
        {
          "name": "_tokenId",
          "type": "uint256"
        }
      ],
      "name": "getApproved",
      "outputs": [
        {
          "name": "",
          "type": "address"
        }
      ],
      "payable": false,
      "stateMutability": "view",
      "type": "function"
    },
    {
      "constant": false,
      "inputs": [
        {
          "name": "_to",
          "type": "address"
        },
        {
          "name": "_tokenId",
          "type": "uint256"
        }
      ],
      "name": "approve",
      "outputs": [],
      "payable": false,
      "stateMutability": "nonpayable",
      "type": "function"
    },
    {
      "constant": true,
      "inputs": [],
      "name": "InterfaceId_ERC165",
      "outputs": [
        {
          "name": "",
          "type": "bytes4"
        }
      ],
      "payable": false,
      "stateMutability": "view",
      "type": "function"
    },
    {
      "constant": false,
      "inputs": [
        {
          "name": "_from",
          "type": "address"
        },
        {
          "name": "_to",
          "type": "address"
        },
        {
          "name": "_tokenId",
          "type": "uint256"
        }
      ],
      "name": "transferFrom",
      "outputs": [],
      "payable": false,
      "stateMutability": "nonpayable",
      "type": "function"
    },
    {
      "constant": false,
      "inputs": [
        {
          "name": "_from",
          "type": "address"
        },
        {
          "name": "_to",
          "type": "address"
        },
        {
          "name": "_tokenId",
          "type": "uint256"
        }
      ],
      "name": "safeTransferFrom",
      "outputs": [],
      "payable": false,
      "stateMutability": "nonpayable",
      "type": "function"
    },
    {
      "constant": true,
      "inputs": [
        {
          "name": "_tokenId",
          "type": "uint256"
        }
      ],
      "name": "ownerOf",
      "outputs": [
        {
          "name": "",
          "type": "address"
        }
      ],
      "payable": false,
      "stateMutability": "view",
      "type": "function"
    },
    {
      "constant": true,
      "inputs": [
        {
          "name": "_owner",
          "type": "address"
        }
      ],
      "name": "balanceOf",
      "outputs": [
        {
          "name": "",
          "type": "uint256"
        }
      ],
      "payable": false,
      "stateMutability": "view",
      "type": "function"
    },
    {
      "constant": false,
      "inputs": [
        {
          "name": "_to",
          "type": "address"
        },
        {
          "name": "_approved",
          "type": "bool"
        }
      ],
      "name": "setApprovalForAll",
      "outputs": [],
      "payable": false,
      "stateMutability": "nonpayable",
      "type": "function"
    },
    {
      "constant": false,
      "inputs": [
        {
          "name": "_from",
          "type": "address"
        },
        {
          "name": "_to",
          "type": "address"
        },
        {
          "name": "_tokenId",
          "type": "uint256"
        },
        {
          "name": "_data",
          "type": "bytes"
        }
      ],
      "name": "safeTransferFrom",
      "outputs": [],
      "payable": false,
      "stateMutability": "nonpayable",
      "type": "function"
    },
    {
      "constant": true,
      "inputs": [
        {
          "name": "_owner",
          "type": "address"
        },
        {
          "name": "_operator",
          "type": "address"
        }
      ],
      "name": "isApprovedForAll",
      "outputs": [
        {
          "name": "",
          "type": "bool"
        }
      ],
      "payable": false,
      "stateMutability": "view",
      "type": "function"
    },
    {
      "inputs": [
        {
          "name": "_name",
          "type": "string"
        },
        {
          "name": "_symbol",
          "type": "string"
        }
      ],
      "payable": false,
      "stateMutability": "nonpayable",
      "type": "constructor"
    },
    {
      "anonymous": false,
      "inputs": [
        {
          "indexed": true,
          "name": "from",
          "type": "address"
        },
        {
          "indexed": true,
          "name": "to",
          "type": "address"
        },
        {
          "indexed": true,
          "name": "tokenId",
          "type": "uint256"
        }
      ],
      "name": "Transfer",
      "type": "event"
    },
    {
      "anonymous": false,
      "inputs": [
        {
          "indexed": true,
          "name": "owner",
          "type": "address"
        },
        {
          "indexed": true,
          "name": "approved",
          "type": "address"
        },
        {
          "indexed": true,
          "name": "tokenId",
          "type": "uint256"
        }
      ],
      "name": "Approval",
      "type": "event"
    },
    {
      "anonymous": false,
      "inputs": [
        {
          "indexed": true,
          "name": "owner",
          "type": "address"
        },
        {
          "indexed": true,
          "name": "operator",
          "type": "address"
        },
        {
          "indexed": false,
          "name": "approved",
          "type": "bool"
        }
      ],
      "name": "ApprovalForAll",
      "type": "event"
    },
    {
      "constant": true,
      "inputs": [],
      "name": "name",
      "outputs": [
        {
          "name": "",
          "type": "string"
        }
      ],
      "payable": false,
      "stateMutability": "view",
      "type": "function"
    },
    {
      "constant": true,
      "inputs": [],
      "name": "symbol",
      "outputs": [
        {
          "name": "",
          "type": "string"
        }
      ],
      "payable": false,
      "stateMutability": "view",
      "type": "function"
    },
    {
      "constant": true,
      "inputs": [
        {
          "name": "_tokenId",
          "type": "uint256"
        }
      ],
      "name": "tokenURI",
      "outputs": [
        {
          "name": "",
          "type": "string"
        }
      ],
      "payable": false,
      "stateMutability": "view",
      "type": "function"
    }
  ],
  "bytecode": "0x60806040523480156200001157600080fd5b50604051620018f2380380620018f283398101806040528101908080518201929190602001805182019291905050506200007d6301ffc9a77c010000000000000000000000000000000000000000000000000000000002620000f4640100000000026401000000009004565b620000ba6380ac58cd7c010000000000000000000000000000000000000000000000000000000002620000f4640100000000026401000000009004565b8160059080519060200190620000d2929190620001b2565b508060069080519060200190620000eb929190620001b2565b50505062000261565b63ffffffff7c010000000000000000000000000000000000000000000000000000000002817bffffffffffffffffffffffffffffffffffffffffffffffffffffffff1916141515156200014657600080fd5b6001600080837bffffffffffffffffffffffffffffffffffffffffffffffffffffffff19167bffffffffffffffffffffffffffffffffffffffffffffffffffffffff1916815260200190815260200160002060006101000a81548160ff02191690831515021790555050565b828054600181600116156101000203166002900490600052602060002090601f016020900481019282601f10620001f557805160ff191683800117855562000226565b8280016001018555821562000226579182015b828111156200022557825182559160200191906001019062000208565b5b50905062000235919062000239565b5090565b6200025e91905b808211156200025a57600081600090555060010162000240565b5090565b90565b61168180620002716000396000f3006080604052600436106100d0576000357c0100000000000000000000000000000000000000000000000000000000900463ffffffff16806301ffc9a7146100d557806306fdde0314610139578063081812fc146101c9578063095ea7b31461023657806319fa8f501461028357806323b872dd146102ec57806342842e0e146103595780636352211e146103c657806370a082311461043357806395d89b411461048a578063a22cb4651461051a578063b88d4fde14610569578063c87b56dd1461061c578063e985e9c5146106c2575b600080fd5b3480156100e157600080fd5b5061011f60048036038101908080357bffffffffffffffffffffffffffffffffffffffffffffffffffffffff1916906020019092919050505061073d565b604051808215151515815260200191505060405180910390f35b34801561014557600080fd5b5061014e6107a4565b6040518080602001828103825283818151815260200191508051906020019080838360005b8381101561018e578082015181840152602081019050610173565b50505050905090810190601f1680156101bb5780820380516001836020036101000a031916815260200191505b509250505060405180910390f35b3480156101d557600080fd5b506101f460048036038101908080359060200190929190505050610846565b604051808273ffffffffffffffffffffffffffffffffffffffff1673ffffffffffffffffffffffffffffffffffffffff16815260200191505060405180910390f35b34801561024257600080fd5b50610281600480360381019080803573ffffffffffffffffffffffffffffffffffffffff16906020019092919080359060200190929190505050610897565b005b34801561028f57600080fd5b506102986109dc565b60405180827bffffffffffffffffffffffffffffffffffffffffffffffffffffffff19167bffffffffffffffffffffffffffffffffffffffffffffffffffffffff1916815260200191505060405180910390f35b3480156102f857600080fd5b50610357600480360381019080803573ffffffffffffffffffffffffffffffffffffffff169060200190929190803573ffffffffffffffffffffffffffffffffffffffff16906020019092919080359060200190929190505050610a03565b005b34801561036557600080fd5b506103c4600480360381019080803573ffffffffffffffffffffffffffffffffffffffff169060200190929190803573ffffffffffffffffffffffffffffffffffffffff16906020019092919080359060200190929190505050610ad2565b005b3480156103d257600080fd5b506103f160048036038101908080359060200190929190505050610af3565b604051808273ffffffffffffffffffffffffffffffffffffffff1673ffffffffffffffffffffffffffffffffffffffff16815260200191505060405180910390f35b34801561043f57600080fd5b50610474600480360381019080803573ffffffffffffffffffffffffffffffffffffffff169060200190929190505050610b71565b6040518082815260200191505060405180910390f35b34801561049657600080fd5b5061049f610bf5565b6040518080602001828103825283818151815260200191508051906020019080838360005b838110156104df5780820151818401526020810190506104c4565b50505050905090810190601f16801561050c5780820380516001836020036101000a031916815260200191505b509250505060405180910390f35b34801561052657600080fd5b50610567600480360381019080803573ffffffffffffffffffffffffffffffffffffffff169060200190929190803515159060200190929190505050610c97565b005b34801561057557600080fd5b5061061a600480360381019080803573ffffffffffffffffffffffffffffffffffffffff169060200190929190803573ffffffffffffffffffffffffffffffffffffffff16906020019092919080359060200190929190803590602001908201803590602001908080601f0160208091040260200160405190810160405280939291908181526020018383808284378201915050505050509192919290505050610dd3565b005b34801561062857600080fd5b5061064760048036038101908080359060200190929190505050610dfb565b6040518080602001828103825283818151815260200191508051906020019080838360005b8381101561068757808201518184015260208101905061066c565b50505050905090810190601f1680156106b45780820380516001836020036101000a031916815260200191505b509250505060405180910390f35b3480156106ce57600080fd5b50610723600480360381019080803573ffffffffffffffffffffffffffffffffffffffff169060200190929190803573ffffffffffffffffffffffffffffffffffffffff169060200190929190505050610ec4565b604051808215151515815260200191505060405180910390f35b6000806000837bffffffffffffffffffffffffffffffffffffffffffffffffffffffff19167bffffffffffffffffffffffffffffffffffffffffffffffffffffffff1916815260200190815260200160002060009054906101000a900460ff169050919050565b606060058054600181600116156101000203166002900480601f01602080910402602001604051908101604052809291908181526020018280546001816001161561010002031660029004801561083c5780601f106108115761010080835404028352916020019161083c565b820191906000526020600020905b81548152906001019060200180831161081f57829003601f168201915b5050505050905090565b600061085182610f58565b151561085c57600080fd5b6002600083815260200190815260200160002060009054906101000a900473ffffffffffffffffffffffffffffffffffffffff169050919050565b60006108a282610af3565b90508073ffffffffffffffffffffffffffffffffffffffff168373ffffffffffffffffffffffffffffffffffffffff16141515156108df57600080fd5b8073ffffffffffffffffffffffffffffffffffffffff163373ffffffffffffffffffffffffffffffffffffffff16148061091f575061091e8133610ec4565b5b151561092a57600080fd5b826002600084815260200190815260200160002060006101000a81548173ffffffffffffffffffffffffffffffffffffffff021916908373ffffffffffffffffffffffffffffffffffffffff160217905550818373ffffffffffffffffffffffffffffffffffffffff168273ffffffffffffffffffffffffffffffffffffffff167f8c5be1e5ebec7d5bd14f71427d1e84f3dd0314c0f7b2291e5b200ac8c7c3b92560405160405180910390a4505050565b6301ffc9a77c01000000000000000000000000000000000000000000000000000000000281565b610a0d3382610fca565b1515610a1857600080fd5b600073ffffffffffffffffffffffffffffffffffffffff168273ffffffffffffffffffffffffffffffffffffffff1614151515610a5457600080fd5b610a5e838261105f565b610a688382611162565b610a728282611291565b808273ffffffffffffffffffffffffffffffffffffffff168473ffffffffffffffffffffffffffffffffffffffff167fddf252ad1be2c89b69c2b068fc378daa952ba7f163c4a11628f55a4df523b3ef60405160405180910390a4505050565b610aee8383836020604051908101604052806000815250610dd3565b505050565b6000806001600084815260200190815260200160002060009054906101000a900473ffffffffffffffffffffffffffffffffffffffff169050600073ffffffffffffffffffffffffffffffffffffffff168173ffffffffffffffffffffffffffffffffffffffff1614151515610b6857600080fd5b80915050919050565b60008073ffffffffffffffffffffffffffffffffffffffff168273ffffffffffffffffffffffffffffffffffffffff1614151515610bae57600080fd5b600360008373ffffffffffffffffffffffffffffffffffffffff1673ffffffffffffffffffffffffffffffffffffffff168152602001908152602001600020549050919050565b606060068054600181600116156101000203166002900480601f016020809104026020016040519081016040528092919081815260200182805460018160011615610100020316600290048015610c8d5780601f10610c6257610100808354040283529160200191610c8d565b820191906000526020600020905b815481529060010190602001808311610c7057829003601f168201915b5050505050905090565b3373ffffffffffffffffffffffffffffffffffffffff168273ffffffffffffffffffffffffffffffffffffffff1614151515610cd257600080fd5b80600460003373ffffffffffffffffffffffffffffffffffffffff1673ffffffffffffffffffffffffffffffffffffffff16815260200190815260200160002060008473ffffffffffffffffffffffffffffffffffffffff1673ffffffffffffffffffffffffffffffffffffffff16815260200190815260200160002060006101000a81548160ff0219169083151502179055508173ffffffffffffffffffffffffffffffffffffffff163373ffffffffffffffffffffffffffffffffffffffff167f17307eab39ab6107e8899845ad3d59bd9653f200f220920489ca2b5937696c3183604051808215151515815260200191505060405180910390a35050565b610dde848484610a03565b610dea848484846113eb565b1515610df557600080fd5b50505050565b6060610e0682610f58565b1515610e1157600080fd5b600760008381526020019081526020016000208054600181600116156101000203166002900480601f016020809104026020016040519081016040528092919081815260200182805460018160011615610100020316600290048015610eb85780601f10610e8d57610100808354040283529160200191610eb8565b820191906000526020600020905b815481529060010190602001808311610e9b57829003601f168201915b50505050509050919050565b6000600460008473ffffffffffffffffffffffffffffffffffffffff1673ffffffffffffffffffffffffffffffffffffffff16815260200190815260200160002060008373ffffffffffffffffffffffffffffffffffffffff1673ffffffffffffffffffffffffffffffffffffffff16815260200190815260200160002060009054906101000a900460ff16905092915050565b6000806001600084815260200190815260200160002060009054906101000a900473ffffffffffffffffffffffffffffffffffffffff169050600073ffffffffffffffffffffffffffffffffffffffff168173ffffffffffffffffffffffffffffffffffffffff161415915050919050565b600080610fd683610af3565b90508073ffffffffffffffffffffffffffffffffffffffff168473ffffffffffffffffffffffffffffffffffffffff16148061104557508373ffffffffffffffffffffffffffffffffffffffff1661102d84610846565b73ffffffffffffffffffffffffffffffffffffffff16145b8061105657506110558185610ec4565b5b91505092915050565b8173ffffffffffffffffffffffffffffffffffffffff1661107f82610af3565b73ffffffffffffffffffffffffffffffffffffffff161415156110a157600080fd5b600073ffffffffffffffffffffffffffffffffffffffff166002600083815260200190815260200160002060009054906101000a900473ffffffffffffffffffffffffffffffffffffffff1673ffffffffffffffffffffffffffffffffffffffff1614151561115e5760006002600083815260200190815260200160002060006101000a81548173ffffffffffffffffffffffffffffffffffffffff021916908373ffffffffffffffffffffffffffffffffffffffff1602179055505b5050565b8173ffffffffffffffffffffffffffffffffffffffff1661118282610af3565b73ffffffffffffffffffffffffffffffffffffffff161415156111a457600080fd5b6111f76001600360008573ffffffffffffffffffffffffffffffffffffffff1673ffffffffffffffffffffffffffffffffffffffff1681526020019081526020016000205461160d90919063ffffffff16565b600360008473ffffffffffffffffffffffffffffffffffffffff1673ffffffffffffffffffffffffffffffffffffffff1681526020019081526020016000208190555060006001600083815260200190815260200160002060006101000a81548173ffffffffffffffffffffffffffffffffffffffff021916908373ffffffffffffffffffffffffffffffffffffffff1602179055505050565b600073ffffffffffffffffffffffffffffffffffffffff166001600083815260200190815260200160002060009054906101000a900473ffffffffffffffffffffffffffffffffffffffff1673ffffffffffffffffffffffffffffffffffffffff161415156112ff57600080fd5b816001600083815260200190815260200160002060006101000a81548173ffffffffffffffffffffffffffffffffffffffff021916908373ffffffffffffffffffffffffffffffffffffffff1602179055506113a46001600360008573ffffffffffffffffffffffffffffffffffffffff1673ffffffffffffffffffffffffffffffffffffffff1681526020019081526020016000205461162690919063ffffffff16565b600360008473ffffffffffffffffffffffffffffffffffffffff1673ffffffffffffffffffffffffffffffffffffffff168152602001908152602001600020819055505050565b60008061140d8573ffffffffffffffffffffffffffffffffffffffff16611642565b151561141c5760019150611604565b8473ffffffffffffffffffffffffffffffffffffffff16634c3e3934338887876040518563ffffffff167c0100000000000000000000000000000000000000000000000000000000028152600401808573ffffffffffffffffffffffffffffffffffffffff1673ffffffffffffffffffffffffffffffffffffffff1681526020018473ffffffffffffffffffffffffffffffffffffffff1673ffffffffffffffffffffffffffffffffffffffff16815260200183815260200180602001828103825283818151815260200191508051906020019080838360005b838110156115115780820151818401526020810190506114f6565b50505050905090810190601f16801561153e5780820380516001836020036101000a031916815260200191505b5095505050505050602060405180830381600087803b15801561156057600080fd5b505af1158015611574573d6000803e3d6000fd5b505050506040513d602081101561158a57600080fd5b8101908080519060200190929190505050905063150b7a027c0100000000000000000000000000000000000000000000000000000000027bffffffffffffffffffffffffffffffffffffffffffffffffffffffff1916817bffffffffffffffffffffffffffffffffffffffffffffffffffffffff19161491505b50949350505050565b600082821115151561161b57fe5b818303905092915050565b6000818301905082811015151561163957fe5b80905092915050565b600080823b9050600081119150509190505600a165627a7a72305820dea053717955b72a3b4a952d65aba520d57b6101812d8ab81e601d032fbe12cf0029",
  "source": "pragma solidity ^0.4.24;\n\nimport 'openzeppelin-solidity/contracts/introspection/ERC165.sol';\nimport './RFTNFT.sol';\n\ncontract RFTNFTMetadata is ERC165, RFTNFT {\n\n    // Name for a set of Non-Fungible tokens\n    string internal name_;\n\n    // Symbol (abbreviated from name) for a set of Non-Fungible tokens\n    string internal symbol_;\n\n    // Registry of token Uniform Resource Identifiers\n    mapping (uint256 => string) private _tokenURIs;\n\n    // Identefier of RFT NFT Metadata contract interface\n    bytes4 private constant InterfaceId_RFTNFTMetadata = 0x5b5e139f;\n    /**\n     * 0x5b5e139f ===\n     *   bytes4(keccak256('name()')) ^\n     *   bytes4(keccak256('symbol()')) ^\n     *   bytes4(keccak256('tokenURI(uint256)'))\n     */\n\n    /**\n     * @dev Constructor for RFT contract extended with metadata\n     * @param _name - Name for a set of NFTs\n     * @param _symbol - Symbol for a set of NFTs\n     */\n    constructor (\n        string _name,\n        string _symbol\n    ) public {\n        name_ = _name;\n        symbol_ = _symbol;\n    }\n\n    /**\n     * @dev Getter for RFT name\n     */\n    function name() external view returns (string) {\n        return name_;\n    }\n\n    /**\n     * @dev Getter for RFT symbol\n     */\n    function symbol() external view returns (string) {\n        return symbol_;\n    }\n\n    /**\n     * @dev Get Uniform Resource Identifier of selected NFT \n     * @param _tokenId - Unique identifier of NFT\n     */\n    function tokenURI(uint256 _tokenId) \n        public \n        view \n        returns (string) \n    {\n        require(_exists(_tokenId));\n        return _tokenURIs[_tokenId];\n    }\n\n    /**\n     * @dev Set Uniform Resource Identifier for selected NFT \n     * @param _tokenId - Unique identifier of NFT\n     * @param _uri - URI string \n     */\n    function _setTokenURI(\n        uint256 _tokenId,\n        string _uri\n    ) internal {\n        require(_exists(_tokenId));\n        _tokenURIs[_tokenId] = _uri;\n    }\n\n    /**\n     * @dev Burn NFT \n     * @param _owner - Address of Non-Fungible token owner\n     * @param _tokenId - Unique identifier of NFT\n     */\n    function _burn(\n        address _owner, \n        uint256 _tokenId\n    ) \n        internal \n        returns (bool)\n    {\n        super._burn(_owner, _tokenId);\n        // Clear metadata (if any)\n        if (bytes(_tokenURIs[_tokenId]).length != 0) {\n            delete _tokenURIs[_tokenId];\n        }\n        return true;\n    }\n}",
  "sourcePath": "/home/juuzou/Documents/RFT_contracts/contracts/rft/RFTNFTMetadata.sol",
  "compiler": {
    "name": "solc",
    "version": "0.4.24+commit.e67f0147.Emscripten.clang"
  },
  "schemaVersion": "3.3.4",
  "updatedAt": "2021-03-08T14:55:07.486Z",
  "devdoc": {
    "methods": {
      "approve(address,uint256)": {
        "details": "Approves to transfer selected NFT (_tokenId) by specific address (_to).",
        "params": {
          "_to": "- Receiver address of transfer approve for selected NFT",
          "_tokenId": "- Unique identifier of NFT"
        }
      },
      "balanceOf(address)": {
        "details": "Returns NFT Token balance of selected address (_owner), which means, how many NFT tokens owner of address has on his balance.",
        "params": {
          "_owner": "- Address of NFT holder"
        }
      },
      "getApproved(uint256)": {
        "details": "Returns address of approved for transfer address for selected NFT(_tokenId). ",
        "params": {
          "_tokenId": "- Unique identifier of NFT"
        }
      },
      "isApprovedForAll(address,address)": {
        "details": "Checks if all NFT's of certain address(_owner) is approved to transfer by another address(_operator)",
        "params": {
          "_operator": "- Receipient address of transfer rights",
          "_owner": "- Address of NFT's owner"
        }
      },
      "name()": {
        "details": "Getter for RFT name"
      },
      "ownerOf(uint256)": {
        "details": "Returns owner address of selected NFT token (_tokenId).",
        "params": {
          "_tokenId": "- Unique identifier of NFT"
        }
      },
      "safeTransferFrom(address,address,uint256)": {
        "details": "Safe implementation of transferFrom function, which additionally checks that NFT receiver address is NFT compatible by calling method of Receipient contract address and supplying sender address, previous owner of NFT, NFT id",
        "params": {
          "_from": "- Address of NFT owner",
          "_to": "- Address of NFT receiver",
          "_tokenId": "- Unique identifier of NFT"
        }
      },
      "safeTransferFrom(address,address,uint256,bytes)": {
        "details": "Extended safeTransferFrom function with bytes parameter",
        "params": {
          "_data": "- Bytes additional transaction data",
          "_from": "- Address of NFT sender",
          "_to": "- Address of NFT receiver",
          "_tokenId": "- Unique identifier of NFT"
        }
      },
      "setApprovalForAll(address,bool)": {
        "details": "Approve/Disapprove(depends on _approved value) transfering of all  caller's NFTs by specific address (_to).",
        "params": {
          "_approved": "- Approval status",
          "_to": "- Receiver of approvals for all NFT's owned by caller address"
        }
      },
      "supportsInterface(bytes4)": {
        "details": "implement supportsInterface(bytes4) using a lookup table"
      },
      "symbol()": {
        "details": "Getter for RFT symbol"
      },
      "tokenURI(uint256)": {
        "details": "Get Uniform Resource Identifier of selected NFT ",
        "params": {
          "_tokenId": "- Unique identifier of NFT"
        }
      },
      "transferFrom(address,address,uint256)": {
        "details": "Transfer selected NFT (_tokenId) from owner (_from) to new owner(_to)",
        "params": {
          "_from": "- Address of NFT's owner ",
          "_to": "- Address of NFT receiver",
          "_tokenId": "- Unique identifier of NFT"
        }
      }
    }
  },
  "userdoc": {
    "methods": {
      "approve(address,uint256)": {
        "notice": "Approving is needed when you want to give rights for some identified party to transfer your token. Approval event will be generated once approved."
      },
      "getApproved(uint256)": {
        "notice": "Return approved address for NFT, if there is none  approved address for this NFT, it will return zero address"
      },
      "isApprovedForAll(address,address)": {
        "notice": "Returns true in case it was called  setApprovalForAll(_operator, true), otherwise - false"
      },
      "safeTransferFrom(address,address,uint256)": {
        "notice": "Safe transfer is being used instead of transferFrom, in case we need  to check that recipient address is compatible with NFT (only in case if  receipient address is contract) "
      },
      "setApprovalForAll(address,bool)": {
        "notice": "Needed in case you want to give rights to transfer of all your NFT's to some address"
      },
      "transferFrom(address,address,uint256)": {
        "notice": "Transaction sender(msg.sender) should be owner or approved address by  approve or setApprovalForAll"
      }
    }
  }
}