{
  "contractName": "RFTNFT",
  "abi": [
    {
      "constant": true,
      "inputs": [
        {
          "name": "_interfaceId",
          "type": "bytes4"
        }
      ],
      "name": "supportsInterface",
      "outputs": [
        {
          "name": "",
          "type": "bool"
        }
      ],
      "payable": false,
      "stateMutability": "view",
      "type": "function"
    },
    {
      "constant": true,
      "inputs": [],
      "name": "InterfaceId_ERC165",
      "outputs": [
        {
          "name": "",
          "type": "bytes4"
        }
      ],
      "payable": false,
      "stateMutability": "view",
      "type": "function"
    },
    {
      "inputs": [],
      "payable": false,
      "stateMutability": "nonpayable",
      "type": "constructor"
    },
    {
      "anonymous": false,
      "inputs": [
        {
          "indexed": true,
          "name": "from",
          "type": "address"
        },
        {
          "indexed": true,
          "name": "to",
          "type": "address"
        },
        {
          "indexed": true,
          "name": "tokenId",
          "type": "uint256"
        }
      ],
      "name": "Transfer",
      "type": "event"
    },
    {
      "anonymous": false,
      "inputs": [
        {
          "indexed": true,
          "name": "owner",
          "type": "address"
        },
        {
          "indexed": true,
          "name": "approved",
          "type": "address"
        },
        {
          "indexed": true,
          "name": "tokenId",
          "type": "uint256"
        }
      ],
      "name": "Approval",
      "type": "event"
    },
    {
      "anonymous": false,
      "inputs": [
        {
          "indexed": true,
          "name": "owner",
          "type": "address"
        },
        {
          "indexed": true,
          "name": "operator",
          "type": "address"
        },
        {
          "indexed": false,
          "name": "approved",
          "type": "bool"
        }
      ],
      "name": "ApprovalForAll",
      "type": "event"
    },
    {
      "constant": true,
      "inputs": [
        {
          "name": "_owner",
          "type": "address"
        }
      ],
      "name": "balanceOf",
      "outputs": [
        {
          "name": "",
          "type": "uint256"
        }
      ],
      "payable": false,
      "stateMutability": "view",
      "type": "function"
    },
    {
      "constant": true,
      "inputs": [
        {
          "name": "_tokenId",
          "type": "uint256"
        }
      ],
      "name": "ownerOf",
      "outputs": [
        {
          "name": "",
          "type": "address"
        }
      ],
      "payable": false,
      "stateMutability": "view",
      "type": "function"
    },
    {
      "constant": false,
      "inputs": [
        {
          "name": "_to",
          "type": "address"
        },
        {
          "name": "_tokenId",
          "type": "uint256"
        }
      ],
      "name": "approve",
      "outputs": [],
      "payable": false,
      "stateMutability": "nonpayable",
      "type": "function"
    },
    {
      "constant": true,
      "inputs": [
        {
          "name": "_tokenId",
          "type": "uint256"
        }
      ],
      "name": "getApproved",
      "outputs": [
        {
          "name": "",
          "type": "address"
        }
      ],
      "payable": false,
      "stateMutability": "view",
      "type": "function"
    },
    {
      "constant": false,
      "inputs": [
        {
          "name": "_to",
          "type": "address"
        },
        {
          "name": "_approved",
          "type": "bool"
        }
      ],
      "name": "setApprovalForAll",
      "outputs": [],
      "payable": false,
      "stateMutability": "nonpayable",
      "type": "function"
    },
    {
      "constant": true,
      "inputs": [
        {
          "name": "_owner",
          "type": "address"
        },
        {
          "name": "_operator",
          "type": "address"
        }
      ],
      "name": "isApprovedForAll",
      "outputs": [
        {
          "name": "",
          "type": "bool"
        }
      ],
      "payable": false,
      "stateMutability": "view",
      "type": "function"
    },
    {
      "constant": false,
      "inputs": [
        {
          "name": "_from",
          "type": "address"
        },
        {
          "name": "_to",
          "type": "address"
        },
        {
          "name": "_tokenId",
          "type": "uint256"
        }
      ],
      "name": "transferFrom",
      "outputs": [],
      "payable": false,
      "stateMutability": "nonpayable",
      "type": "function"
    },
    {
      "constant": false,
      "inputs": [
        {
          "name": "_from",
          "type": "address"
        },
        {
          "name": "_to",
          "type": "address"
        },
        {
          "name": "_tokenId",
          "type": "uint256"
        }
      ],
      "name": "safeTransferFrom",
      "outputs": [],
      "payable": false,
      "stateMutability": "nonpayable",
      "type": "function"
    },
    {
      "constant": false,
      "inputs": [
        {
          "name": "_from",
          "type": "address"
        },
        {
          "name": "_to",
          "type": "address"
        },
        {
          "name": "_tokenId",
          "type": "uint256"
        },
        {
          "name": "_data",
          "type": "bytes"
        }
      ],
      "name": "safeTransferFrom",
      "outputs": [],
      "payable": false,
      "stateMutability": "nonpayable",
      "type": "function"
    }
  ],
  "bytecode": "0x608060405234801561001057600080fd5b5061004c6301ffc9a77c01000000000000000000000000000000000000000000000000000000000261008c640100000000026401000000009004565b6100876380ac58cd7c01000000000000000000000000000000000000000000000000000000000261008c640100000000026401000000009004565b610149565b63ffffffff7c010000000000000000000000000000000000000000000000000000000002817bffffffffffffffffffffffffffffffffffffffffffffffffffffffff1916141515156100dd57600080fd5b6001600080837bffffffffffffffffffffffffffffffffffffffffffffffffffffffff19167bffffffffffffffffffffffffffffffffffffffffffffffffffffffff1916815260200190815260200160002060006101000a81548160ff02191690831515021790555050565b61128d806101586000396000f3006080604052600436106100af576000357c0100000000000000000000000000000000000000000000000000000000900463ffffffff16806301ffc9a7146100b4578063081812fc14610118578063095ea7b31461018557806319fa8f50146101d257806323b872dd1461023b57806342842e0e146102a85780636352211e1461031557806370a0823114610382578063a22cb465146103d9578063b88d4fde14610428578063e985e9c5146104db575b600080fd5b3480156100c057600080fd5b506100fe60048036038101908080357bffffffffffffffffffffffffffffffffffffffffffffffffffffffff19169060200190929190505050610556565b604051808215151515815260200191505060405180910390f35b34801561012457600080fd5b50610143600480360381019080803590602001909291905050506105bd565b604051808273ffffffffffffffffffffffffffffffffffffffff1673ffffffffffffffffffffffffffffffffffffffff16815260200191505060405180910390f35b34801561019157600080fd5b506101d0600480360381019080803573ffffffffffffffffffffffffffffffffffffffff1690602001909291908035906020019092919050505061060e565b005b3480156101de57600080fd5b506101e7610753565b60405180827bffffffffffffffffffffffffffffffffffffffffffffffffffffffff19167bffffffffffffffffffffffffffffffffffffffffffffffffffffffff1916815260200191505060405180910390f35b34801561024757600080fd5b506102a6600480360381019080803573ffffffffffffffffffffffffffffffffffffffff169060200190929190803573ffffffffffffffffffffffffffffffffffffffff1690602001909291908035906020019092919050505061077a565b005b3480156102b457600080fd5b50610313600480360381019080803573ffffffffffffffffffffffffffffffffffffffff169060200190929190803573ffffffffffffffffffffffffffffffffffffffff16906020019092919080359060200190929190505050610849565b005b34801561032157600080fd5b506103406004803603810190808035906020019092919050505061086a565b604051808273ffffffffffffffffffffffffffffffffffffffff1673ffffffffffffffffffffffffffffffffffffffff16815260200191505060405180910390f35b34801561038e57600080fd5b506103c3600480360381019080803573ffffffffffffffffffffffffffffffffffffffff1690602001909291905050506108e8565b6040518082815260200191505060405180910390f35b3480156103e557600080fd5b50610426600480360381019080803573ffffffffffffffffffffffffffffffffffffffff16906020019092919080351515906020019092919050505061096c565b005b34801561043457600080fd5b506104d9600480360381019080803573ffffffffffffffffffffffffffffffffffffffff169060200190929190803573ffffffffffffffffffffffffffffffffffffffff16906020019092919080359060200190929190803590602001908201803590602001908080601f0160208091040260200160405190810160405280939291908181526020018383808284378201915050505050509192919290505050610aa8565b005b3480156104e757600080fd5b5061053c600480360381019080803573ffffffffffffffffffffffffffffffffffffffff169060200190929190803573ffffffffffffffffffffffffffffffffffffffff169060200190929190505050610ad0565b604051808215151515815260200191505060405180910390f35b6000806000837bffffffffffffffffffffffffffffffffffffffffffffffffffffffff19167bffffffffffffffffffffffffffffffffffffffffffffffffffffffff1916815260200190815260200160002060009054906101000a900460ff169050919050565b60006105c882610b64565b15156105d357600080fd5b6002600083815260200190815260200160002060009054906101000a900473ffffffffffffffffffffffffffffffffffffffff169050919050565b60006106198261086a565b90508073ffffffffffffffffffffffffffffffffffffffff168373ffffffffffffffffffffffffffffffffffffffff161415151561065657600080fd5b8073ffffffffffffffffffffffffffffffffffffffff163373ffffffffffffffffffffffffffffffffffffffff16148061069657506106958133610ad0565b5b15156106a157600080fd5b826002600084815260200190815260200160002060006101000a81548173ffffffffffffffffffffffffffffffffffffffff021916908373ffffffffffffffffffffffffffffffffffffffff160217905550818373ffffffffffffffffffffffffffffffffffffffff168273ffffffffffffffffffffffffffffffffffffffff167f8c5be1e5ebec7d5bd14f71427d1e84f3dd0314c0f7b2291e5b200ac8c7c3b92560405160405180910390a4505050565b6301ffc9a77c01000000000000000000000000000000000000000000000000000000000281565b6107843382610bd6565b151561078f57600080fd5b600073ffffffffffffffffffffffffffffffffffffffff168273ffffffffffffffffffffffffffffffffffffffff16141515156107cb57600080fd5b6107d58382610c6b565b6107df8382610d6e565b6107e98282610e9d565b808273ffffffffffffffffffffffffffffffffffffffff168473ffffffffffffffffffffffffffffffffffffffff167fddf252ad1be2c89b69c2b068fc378daa952ba7f163c4a11628f55a4df523b3ef60405160405180910390a4505050565b6108658383836020604051908101604052806000815250610aa8565b505050565b6000806001600084815260200190815260200160002060009054906101000a900473ffffffffffffffffffffffffffffffffffffffff169050600073ffffffffffffffffffffffffffffffffffffffff168173ffffffffffffffffffffffffffffffffffffffff16141515156108df57600080fd5b80915050919050565b60008073ffffffffffffffffffffffffffffffffffffffff168273ffffffffffffffffffffffffffffffffffffffff161415151561092557600080fd5b600360008373ffffffffffffffffffffffffffffffffffffffff1673ffffffffffffffffffffffffffffffffffffffff168152602001908152602001600020549050919050565b3373ffffffffffffffffffffffffffffffffffffffff168273ffffffffffffffffffffffffffffffffffffffff16141515156109a757600080fd5b80600460003373ffffffffffffffffffffffffffffffffffffffff1673ffffffffffffffffffffffffffffffffffffffff16815260200190815260200160002060008473ffffffffffffffffffffffffffffffffffffffff1673ffffffffffffffffffffffffffffffffffffffff16815260200190815260200160002060006101000a81548160ff0219169083151502179055508173ffffffffffffffffffffffffffffffffffffffff163373ffffffffffffffffffffffffffffffffffffffff167f17307eab39ab6107e8899845ad3d59bd9653f200f220920489ca2b5937696c3183604051808215151515815260200191505060405180910390a35050565b610ab384848461077a565b610abf84848484610ff7565b1515610aca57600080fd5b50505050565b6000600460008473ffffffffffffffffffffffffffffffffffffffff1673ffffffffffffffffffffffffffffffffffffffff16815260200190815260200160002060008373ffffffffffffffffffffffffffffffffffffffff1673ffffffffffffffffffffffffffffffffffffffff16815260200190815260200160002060009054906101000a900460ff16905092915050565b6000806001600084815260200190815260200160002060009054906101000a900473ffffffffffffffffffffffffffffffffffffffff169050600073ffffffffffffffffffffffffffffffffffffffff168173ffffffffffffffffffffffffffffffffffffffff161415915050919050565b600080610be28361086a565b90508073ffffffffffffffffffffffffffffffffffffffff168473ffffffffffffffffffffffffffffffffffffffff161480610c5157508373ffffffffffffffffffffffffffffffffffffffff16610c39846105bd565b73ffffffffffffffffffffffffffffffffffffffff16145b80610c625750610c618185610ad0565b5b91505092915050565b8173ffffffffffffffffffffffffffffffffffffffff16610c8b8261086a565b73ffffffffffffffffffffffffffffffffffffffff16141515610cad57600080fd5b600073ffffffffffffffffffffffffffffffffffffffff166002600083815260200190815260200160002060009054906101000a900473ffffffffffffffffffffffffffffffffffffffff1673ffffffffffffffffffffffffffffffffffffffff16141515610d6a5760006002600083815260200190815260200160002060006101000a81548173ffffffffffffffffffffffffffffffffffffffff021916908373ffffffffffffffffffffffffffffffffffffffff1602179055505b5050565b8173ffffffffffffffffffffffffffffffffffffffff16610d8e8261086a565b73ffffffffffffffffffffffffffffffffffffffff16141515610db057600080fd5b610e036001600360008573ffffffffffffffffffffffffffffffffffffffff1673ffffffffffffffffffffffffffffffffffffffff1681526020019081526020016000205461121990919063ffffffff16565b600360008473ffffffffffffffffffffffffffffffffffffffff1673ffffffffffffffffffffffffffffffffffffffff1681526020019081526020016000208190555060006001600083815260200190815260200160002060006101000a81548173ffffffffffffffffffffffffffffffffffffffff021916908373ffffffffffffffffffffffffffffffffffffffff1602179055505050565b600073ffffffffffffffffffffffffffffffffffffffff166001600083815260200190815260200160002060009054906101000a900473ffffffffffffffffffffffffffffffffffffffff1673ffffffffffffffffffffffffffffffffffffffff16141515610f0b57600080fd5b816001600083815260200190815260200160002060006101000a81548173ffffffffffffffffffffffffffffffffffffffff021916908373ffffffffffffffffffffffffffffffffffffffff160217905550610fb06001600360008573ffffffffffffffffffffffffffffffffffffffff1673ffffffffffffffffffffffffffffffffffffffff1681526020019081526020016000205461123290919063ffffffff16565b600360008473ffffffffffffffffffffffffffffffffffffffff1673ffffffffffffffffffffffffffffffffffffffff168152602001908152602001600020819055505050565b6000806110198573ffffffffffffffffffffffffffffffffffffffff1661124e565b15156110285760019150611210565b8473ffffffffffffffffffffffffffffffffffffffff16634c3e3934338887876040518563ffffffff167c0100000000000000000000000000000000000000000000000000000000028152600401808573ffffffffffffffffffffffffffffffffffffffff1673ffffffffffffffffffffffffffffffffffffffff1681526020018473ffffffffffffffffffffffffffffffffffffffff1673ffffffffffffffffffffffffffffffffffffffff16815260200183815260200180602001828103825283818151815260200191508051906020019080838360005b8381101561111d578082015181840152602081019050611102565b50505050905090810190601f16801561114a5780820380516001836020036101000a031916815260200191505b5095505050505050602060405180830381600087803b15801561116c57600080fd5b505af1158015611180573d6000803e3d6000fd5b505050506040513d602081101561119657600080fd5b8101908080519060200190929190505050905063150b7a027c0100000000000000000000000000000000000000000000000000000000027bffffffffffffffffffffffffffffffffffffffffffffffffffffffff1916817bffffffffffffffffffffffffffffffffffffffffffffffffffffffff19161491505b50949350505050565b600082821115151561122757fe5b818303905092915050565b6000818301905082811015151561124557fe5b80905092915050565b600080823b9050600081119150509190505600a165627a7a7230582081106099708230f05511d8f90661af3dd1295e5af860fbf45777ee21c8978e8d0029",
  "source": "pragma solidity ^0.4.24;\n\nimport 'openzeppelin-solidity/contracts/math/SafeMath.sol';\nimport 'openzeppelin-solidity/contracts/AddressUtils.sol';\nimport 'openzeppelin-solidity/contracts/introspection/SupportsInterfaceWithLookup.sol';\nimport './IRFTNFT.sol';\nimport './IRFTNFTReceiver.sol';\n\n\ncontract RFTNFT is SupportsInterfaceWithLookup, IRFTNFT {\n    using SafeMath for uint256;\n    using AddressUtils for address;\n\n    // Equals to `bytes4(keccak256(\"onRFTReceived(address,address,uint256,bytes)\"))`\n    // which can be also obtained as `IRFTNFTReceiver(0).onRFTReceived.selector`\n    bytes4 private constant _RFTNFT_RECEIVED = 0x150b7a02;\n\n    // Mapping from Non-Fungible Token unique identifier (id) to owner address\n    mapping (uint256 => address) internal _tokenOwner;\n\n    // Mapping from Non-Fungible Token unique identifier (id) to approved address\n    mapping (uint256 => address) internal _tokenApprovals;\n\n    // Mapping from Non-Fungible Token owner to amount of his tokens\n    mapping (address => uint256) internal _ownedTokensCount;\n\n    // Mapping from owner address to approved operator address\n    mapping (address => mapping (address => bool)) private _operatorApprovals;\n\n    bytes4 private constant _InterfaceId_RFTNFT = 0x80ac58cd;\n    /*\n     * 0x80ac58cd ===\n     *   bytes4(keccak256('balanceOf(address)')) ^\n     *   bytes4(keccak256('ownerOf(uint256)')) ^\n     *   bytes4(keccak256('approve(address,uint256)')) ^\n     *   bytes4(keccak256('getApproved(uint256)')) ^\n     *   bytes4(keccak256('setApprovalForAll(address,bool)')) ^\n     *   bytes4(keccak256('isApprovedForAll(address,address)')) ^\n     *   bytes4(keccak256('transferFrom(address,address,uint256)')) ^\n     *   bytes4(keccak256('safeTransferFrom(address,address,uint256,bytes)'))\n     */\n\n    /**\n     * @dev Constructor for RFT contract\n     */\n    constructor() public {\n        _registerInterface(_InterfaceId_RFTNFT);\n    }\n\n    /**\n     * @dev Returns NFT Token balance of selected address (_owner),\n     * which means, how many NFT tokens owner of address has on his balance.\n     * @param _owner - Address of NFT holder\n     */\n    function balanceOf(address _owner)\n        public \n        view \n        returns (uint256) \n    {\n        require(_owner != address(0));\n        return _ownedTokensCount[_owner];\n    }\n\n    /** \n     * @dev Returns owner address of selected NFT token (_tokenId).\n     * @param _tokenId - Unique identifier of NFT\n     */\n    function ownerOf(uint256 _tokenId)\n        public\n        view \n        returns (address) \n    {\n        address _owner = _tokenOwner[_tokenId];\n        require(_owner != address(0));\n        return _owner;\n    }\n\n    /** \n     * @dev Approves to transfer selected NFT (_tokenId) by specific address (_to).\n     * @notice Approving is needed when you want to give rights\n     * for some identified party to transfer your token.\n     * Approval event will be generated once approved.\n     * @param _to - Receiver address of transfer approve for selected NFT\n     * @param _tokenId - Unique identifier of NFT\n     */\n    function approve(\n        address _to,\n        uint256 _tokenId\n    ) public {\n        address _owner = ownerOf(_tokenId);\n        require(_to != _owner);\n        require(msg.sender == _owner || isApprovedForAll(_owner, msg.sender));\n\n        _tokenApprovals[_tokenId] = _to;\n        emit Approval(_owner, _to, _tokenId);\n    }\n\n    /**\n     * @dev Returns address of approved for transfer address for selected NFT(_tokenId). \n     * @notice Return approved address for NFT, if there is none \n     * approved address for this NFT, it will return zero address\n     * @param _tokenId - Unique identifier of NFT\n     */\n    function getApproved(uint256 _tokenId) \n        public \n        view \n        returns (address) \n    {\n        require(_exists(_tokenId));\n        return _tokenApprovals[_tokenId];\n    }\n\n    /** \n     * @dev Approve/Disapprove(depends on _approved value) transfering of all \n     * caller's NFTs by specific address (_to).\n     * @notice Needed in case you want to give rights to transfer\n     * of all your NFT's to some address\n     * @param _to - Receiver of approvals for all NFT's owned by caller address\n     * @param _approved - Approval status\n     */\n    function setApprovalForAll(\n        address _to,\n        bool _approved\n    ) public {\n        require(_to != msg.sender);\n        _operatorApprovals[msg.sender][_to] = _approved;\n        emit ApprovalForAll(msg.sender, _to, _approved);\n    }\n\n    /**\n     * @dev Checks if all NFT's of certain address(_owner) is approved to transfer\n     * by another address(_operator)\n     * @notice Returns true in case it was called \n     * setApprovalForAll(_operator, true), otherwise - false\n     * @param _owner - Address of NFT's owner\n     * @param _operator - Receipient address of transfer rights\n     */\n    function isApprovedForAll(\n        address _owner,\n        address _operator\n    ) public view returns (bool) {\n        return _operatorApprovals[_owner][_operator];\n    }\n\n    /** \n     * @dev Transfer selected NFT (_tokenId) from owner (_from) to new owner(_to)\n     * @notice Transaction sender(msg.sender) should be owner or approved address by \n     * approve or setApprovalForAll\n     * @param _from - Address of NFT's owner \n     * @param _to - Address of NFT receiver\n     * @param _tokenId - Unique identifier of NFT\n     */\n    function transferFrom(\n        address _from,\n        address _to,\n        uint256 _tokenId\n    ) public {\n        require(_isApprovedOrOwner(msg.sender, _tokenId));\n        require(_to != address(0));\n\n        _clearApproval(_from, _tokenId);\n        _removeTokenFrom(_from, _tokenId);\n        _addTokenTo(_to, _tokenId);\n\n        emit Transfer(_from, _to, _tokenId);\n    }\n\n    /**\n     * @dev Safe implementation of transferFrom function, which additionally checks\n     * that NFT receiver address is NFT compatible by calling method of Receipient\n     * contract address and supplying sender address, previous owner of NFT, NFT id\n     * @notice Safe transfer is being used instead of transferFrom, in case we need \n     * to check that recipient address is compatible with NFT (only in case if \n     * receipient address is contract) \n     * @param _from - Address of NFT owner\n     * @param _to - Address of NFT receiver\n     * @param _tokenId - Unique identifier of NFT\n     */\n    function safeTransferFrom(\n        address _from,\n        address _to,\n        uint256 _tokenId\n    ) public {\n        safeTransferFrom(_from, _to, _tokenId, \"\");\n    }\n\n    /**\n     * @dev Extended safeTransferFrom function with bytes parameter\n     * @param _from - Address of NFT sender\n     * @param _to - Address of NFT receiver\n     * @param _tokenId - Unique identifier of NFT\n     * @param _data - Bytes additional transaction data\n     */\n    function safeTransferFrom(\n        address _from,\n        address _to,\n        uint256 _tokenId,\n        bytes _data\n    ) public {\n        transferFrom(_from, _to, _tokenId);\n        require(_checkAndCallSafeTransfer(_from, _to, _tokenId, _data));\n    }\n\n    /** \n     * @dev Checks existing of specified NFT by its tokenId (unique identifier)\n     * @param _tokenId - Unique identifier of NFT\n     */\n    function _exists(uint256 _tokenId) \n        internal \n        view\n        returns (bool) \n    {\n        address _owner = _tokenOwner[_tokenId];\n        return _owner != address(0);\n    }\n\n    /** \n     * @dev Checks if transaction sender address if NFT owner or approved operator\n     * @param _operator - Address of transaction sender\n     * @param _tokenId - Unique identifier of NFT\n     */\n    function _isApprovedOrOwner(\n        address _operator,\n        uint256 _tokenId\n    )\n        internal \n        view \n        returns (bool) \n    {\n        address _owner = ownerOf(_tokenId);\n\n        return(\n            _operator == _owner ||\n            getApproved(_tokenId) == _operator ||\n            isApprovedForAll(_owner, _operator)\n        );\n    }\n\n    /**\n     * @dev Internal mint function\n     * @param _to - Address of NFT receiver\n     * @param _tokenId - Unique identifier for new NFT\n     */\n    function _mint(\n        address _to, \n        uint256 _tokenId\n    ) \n        internal \n        returns (bool)\n    {\n        require(_to != address(0));\n        _addTokenTo(_to, _tokenId);\n        emit Transfer(address(0), _to, _tokenId);\n        return true;\n    } \n\n    /** \n     * @dev Internal burn function\n     * @param _owner - Address of NFT holder\n     * @param _tokenId - Unique identifier of NFT to burn\n     */\n    function _burn(\n        address _owner,\n        uint256 _tokenId\n    ) \n        internal \n        returns (bool)\n    {\n        _clearApproval(_owner, _tokenId);\n        _removeTokenFrom(_owner, _tokenId);\n        emit Transfer(_owner, address(0), _tokenId);\n        return true;\n    }\n\n    /** \n     * @dev Remove approved operator for selected NFT\n     * @param _owner - Address of NFT owner\n     * @param _tokenId - Unique identifier of NFT\n     */\n    function _clearApproval(\n        address _owner,\n        uint256 _tokenId\n    ) internal {\n        require(ownerOf(_tokenId) == _owner);\n        if (_tokenApprovals[_tokenId] != address(0)) {\n            _tokenApprovals[_tokenId] = address(0);\n        }\n    }\n\n    /**\n     * @dev Assigns ownership of selected NFT to specified address\n     * @param _to - Address of NFT new owner\n     * @param _tokenId - Unique identifier of NFT\n     */\n    function _addTokenTo(\n        address _to,\n        uint256 _tokenId\n    ) internal {\n        require(_tokenOwner[_tokenId] == address(0));\n        _tokenOwner[_tokenId] = _to;\n        _ownedTokensCount[_to] = _ownedTokensCount[_to].add(1);\n    }\n\n    /** \n     * @dev Removes ownership of selected NFT from specified address\n     * @param _from - Address of NFT old owner \n     * @param _tokenId - Unique identifier of NFT\n     */\n    function _removeTokenFrom(\n        address _from,\n        uint256 _tokenId\n    ) internal {\n        require(ownerOf(_tokenId) == _from);\n        _ownedTokensCount[_from] = _ownedTokensCount[_from].sub(1);\n        _tokenOwner[_tokenId] = address(0);\n    }\n\n    /** \n     * @dev Checks that transfer call is safe\n     * @param _from - Address of NFT sender\n     * @param _to - Address of NFT receiver\n     * @param _tokenId - Unique identifier of NFT\n     * @param _data - Bytes transaction additional data\n     */\n    function _checkAndCallSafeTransfer(\n        address _from,\n        address _to,\n        uint256 _tokenId,\n        bytes _data\n    )\n        internal\n        returns (bool) \n    {\n        if (!_to.isContract()) {\n            return true;\n        }\n        bytes4 retval = IRFTNFTReceiver(_to).onRFTReceived(\n            msg.sender, _from, _tokenId, _data\n        );\n        return (retval == _RFTNFT_RECEIVED);\n    }\n}",
  "sourcePath": "/home/juuzou/Documents/RFT_contracts/contracts/rft/RFTNFT.sol",
  "compiler": {
    "name": "solc",
    "version": "0.4.24+commit.e67f0147.Emscripten.clang"
  },
  "schemaVersion": "3.3.4",
  "updatedAt": "2021-03-08T14:55:07.481Z",
  "devdoc": {
    "methods": {
      "approve(address,uint256)": {
        "details": "Approves to transfer selected NFT (_tokenId) by specific address (_to).",
        "params": {
          "_to": "- Receiver address of transfer approve for selected NFT",
          "_tokenId": "- Unique identifier of NFT"
        }
      },
      "balanceOf(address)": {
        "details": "Returns NFT Token balance of selected address (_owner), which means, how many NFT tokens owner of address has on his balance.",
        "params": {
          "_owner": "- Address of NFT holder"
        }
      },
      "getApproved(uint256)": {
        "details": "Returns address of approved for transfer address for selected NFT(_tokenId). ",
        "params": {
          "_tokenId": "- Unique identifier of NFT"
        }
      },
      "isApprovedForAll(address,address)": {
        "details": "Checks if all NFT's of certain address(_owner) is approved to transfer by another address(_operator)",
        "params": {
          "_operator": "- Receipient address of transfer rights",
          "_owner": "- Address of NFT's owner"
        }
      },
      "ownerOf(uint256)": {
        "details": "Returns owner address of selected NFT token (_tokenId).",
        "params": {
          "_tokenId": "- Unique identifier of NFT"
        }
      },
      "safeTransferFrom(address,address,uint256)": {
        "details": "Safe implementation of transferFrom function, which additionally checks that NFT receiver address is NFT compatible by calling method of Receipient contract address and supplying sender address, previous owner of NFT, NFT id",
        "params": {
          "_from": "- Address of NFT owner",
          "_to": "- Address of NFT receiver",
          "_tokenId": "- Unique identifier of NFT"
        }
      },
      "safeTransferFrom(address,address,uint256,bytes)": {
        "details": "Extended safeTransferFrom function with bytes parameter",
        "params": {
          "_data": "- Bytes additional transaction data",
          "_from": "- Address of NFT sender",
          "_to": "- Address of NFT receiver",
          "_tokenId": "- Unique identifier of NFT"
        }
      },
      "setApprovalForAll(address,bool)": {
        "details": "Approve/Disapprove(depends on _approved value) transfering of all  caller's NFTs by specific address (_to).",
        "params": {
          "_approved": "- Approval status",
          "_to": "- Receiver of approvals for all NFT's owned by caller address"
        }
      },
      "supportsInterface(bytes4)": {
        "details": "implement supportsInterface(bytes4) using a lookup table"
      },
      "transferFrom(address,address,uint256)": {
        "details": "Transfer selected NFT (_tokenId) from owner (_from) to new owner(_to)",
        "params": {
          "_from": "- Address of NFT's owner ",
          "_to": "- Address of NFT receiver",
          "_tokenId": "- Unique identifier of NFT"
        }
      }
    }
  },
  "userdoc": {
    "methods": {
      "approve(address,uint256)": {
        "notice": "Approving is needed when you want to give rights for some identified party to transfer your token. Approval event will be generated once approved."
      },
      "getApproved(uint256)": {
        "notice": "Return approved address for NFT, if there is none  approved address for this NFT, it will return zero address"
      },
      "isApprovedForAll(address,address)": {
        "notice": "Returns true in case it was called  setApprovalForAll(_operator, true), otherwise - false"
      },
      "safeTransferFrom(address,address,uint256)": {
        "notice": "Safe transfer is being used instead of transferFrom, in case we need  to check that recipient address is compatible with NFT (only in case if  receipient address is contract) "
      },
      "setApprovalForAll(address,bool)": {
        "notice": "Needed in case you want to give rights to transfer of all your NFT's to some address"
      },
      "transferFrom(address,address,uint256)": {
        "notice": "Transaction sender(msg.sender) should be owner or approved address by  approve or setApprovalForAll"
      }
    }
  }
}