{
  "contractName": "TokenDestructible",
  "abi": [
    {
      "constant": false,
      "inputs": [],
      "name": "renounceOwnership",
      "outputs": [],
      "payable": false,
      "stateMutability": "nonpayable",
      "type": "function"
    },
    {
      "constant": true,
      "inputs": [],
      "name": "owner",
      "outputs": [
        {
          "name": "",
          "type": "address"
        }
      ],
      "payable": false,
      "stateMutability": "view",
      "type": "function"
    },
    {
      "constant": false,
      "inputs": [
        {
          "name": "_newOwner",
          "type": "address"
        }
      ],
      "name": "transferOwnership",
      "outputs": [],
      "payable": false,
      "stateMutability": "nonpayable",
      "type": "function"
    },
    {
      "inputs": [],
      "payable": true,
      "stateMutability": "payable",
      "type": "constructor"
    },
    {
      "anonymous": false,
      "inputs": [
        {
          "indexed": true,
          "name": "previousOwner",
          "type": "address"
        }
      ],
      "name": "OwnershipRenounced",
      "type": "event"
    },
    {
      "anonymous": false,
      "inputs": [
        {
          "indexed": true,
          "name": "previousOwner",
          "type": "address"
        },
        {
          "indexed": true,
          "name": "newOwner",
          "type": "address"
        }
      ],
      "name": "OwnershipTransferred",
      "type": "event"
    },
    {
      "constant": false,
      "inputs": [
        {
          "name": "_tokens",
          "type": "address[]"
        }
      ],
      "name": "destroy",
      "outputs": [],
      "payable": false,
      "stateMutability": "nonpayable",
      "type": "function"
    }
  ],
  "bytecode": "0x6080604052336000806101000a81548173ffffffffffffffffffffffffffffffffffffffff021916908373ffffffffffffffffffffffffffffffffffffffff1602179055506106d9806100536000396000f300608060405260043610610062576000357c0100000000000000000000000000000000000000000000000000000000900463ffffffff168063715018a6146100675780638da5cb5b1461007e578063c6786e5a146100d5578063f2fde38b1461013b575b600080fd5b34801561007357600080fd5b5061007c61017e565b005b34801561008a57600080fd5b50610093610280565b604051808273ffffffffffffffffffffffffffffffffffffffff1673ffffffffffffffffffffffffffffffffffffffff16815260200191505060405180910390f35b3480156100e157600080fd5b50610139600480360381019080803590602001908201803590602001908080602002602001604051908101604052809392919081815260200183836020028082843782019150505050505091929192905050506102a5565b005b34801561014757600080fd5b5061017c600480360381019080803573ffffffffffffffffffffffffffffffffffffffff16906020019092919050505061054c565b005b6000809054906101000a900473ffffffffffffffffffffffffffffffffffffffff1673ffffffffffffffffffffffffffffffffffffffff163373ffffffffffffffffffffffffffffffffffffffff161415156101d957600080fd5b6000809054906101000a900473ffffffffffffffffffffffffffffffffffffffff1673ffffffffffffffffffffffffffffffffffffffff167ff8df31144d9c2f0f6b59d69b8b98abd5459d07f2742c4df920b25aae33c6482060405160405180910390a260008060006101000a81548173ffffffffffffffffffffffffffffffffffffffff021916908373ffffffffffffffffffffffffffffffffffffffff160217905550565b6000809054906101000a900473ffffffffffffffffffffffffffffffffffffffff1681565b60008060008060009054906101000a900473ffffffffffffffffffffffffffffffffffffffff1673ffffffffffffffffffffffffffffffffffffffff163373ffffffffffffffffffffffffffffffffffffffff1614151561030557600080fd5b600092505b835183101561051257838381518110151561032157fe5b9060200190602002015191508173ffffffffffffffffffffffffffffffffffffffff166370a08231306040518263ffffffff167c0100000000000000000000000000000000000000000000000000000000028152600401808273ffffffffffffffffffffffffffffffffffffffff1673ffffffffffffffffffffffffffffffffffffffff168152602001915050602060405180830381600087803b1580156103c857600080fd5b505af11580156103dc573d6000803e3d6000fd5b505050506040513d60208110156103f257600080fd5b810190808051906020019092919050505090508173ffffffffffffffffffffffffffffffffffffffff1663a9059cbb6000809054906101000a900473ffffffffffffffffffffffffffffffffffffffff16836040518363ffffffff167c0100000000000000000000000000000000000000000000000000000000028152600401808373ffffffffffffffffffffffffffffffffffffffff1673ffffffffffffffffffffffffffffffffffffffff16815260200182815260200192505050602060405180830381600087803b1580156104c957600080fd5b505af11580156104dd573d6000803e3d6000fd5b505050506040513d60208110156104f357600080fd5b810190808051906020019092919050505050828060010193505061030a565b6000809054906101000a900473ffffffffffffffffffffffffffffffffffffffff1673ffffffffffffffffffffffffffffffffffffffff16ff5b6000809054906101000a900473ffffffffffffffffffffffffffffffffffffffff1673ffffffffffffffffffffffffffffffffffffffff163373ffffffffffffffffffffffffffffffffffffffff161415156105a757600080fd5b6105b0816105b3565b50565b600073ffffffffffffffffffffffffffffffffffffffff168173ffffffffffffffffffffffffffffffffffffffff16141515156105ef57600080fd5b8073ffffffffffffffffffffffffffffffffffffffff166000809054906101000a900473ffffffffffffffffffffffffffffffffffffffff1673ffffffffffffffffffffffffffffffffffffffff167f8be0079c531659141344cd1fd0a4f28419497f9722a3daafe3b4186f6b6457e060405160405180910390a3806000806101000a81548173ffffffffffffffffffffffffffffffffffffffff021916908373ffffffffffffffffffffffffffffffffffffffff160217905550505600a165627a7a72305820013ede2aa069b4cfaa52d62fbee0aea002b1d6f10f886364f5072628bf7ef7820029",
  "source": "pragma solidity ^0.4.24;\n\nimport \"../ownership/Ownable.sol\";\nimport \"../token/ERC20/ERC20Basic.sol\";\n\n\n/**\n * @title TokenDestructible:\n * @author Remco Bloemen <remco@2π.com>\n * @dev Base contract that can be destroyed by owner. All funds in contract including\n * listed tokens will be sent to the owner.\n */\ncontract TokenDestructible is Ownable {\n\n  constructor() public payable { }\n\n  /**\n   * @notice Terminate contract and refund to owner\n   * @param _tokens List of addresses of ERC20 or ERC20Basic token contracts to\n   refund.\n   * @notice The called token contracts could try to re-enter this contract. Only\n   supply token contracts you trust.\n   */\n  function destroy(address[] _tokens) public onlyOwner {\n\n    // Transfer tokens to owner\n    for (uint256 i = 0; i < _tokens.length; i++) {\n      ERC20Basic token = ERC20Basic(_tokens[i]);\n      uint256 balance = token.balanceOf(this);\n      token.transfer(owner, balance);\n    }\n\n    // Transfer Eth to owner and terminate contract\n    selfdestruct(owner);\n  }\n}\n",
  "sourcePath": "/home/juuzou/Documents/RFT_contracts/contracts/contracts/lifecycle/TokenDestructible.sol",
  "compiler": {
    "name": "solc",
    "version": "0.4.24+commit.e67f0147.Emscripten.clang"
  },
  "schemaVersion": "3.3.4",
  "updatedAt": "2021-03-10T19:21:32.249Z",
  "devdoc": {
    "author": "Remco Bloemen <remco@2π.com>",
    "methods": {
      "destroy(address[])": {
        "params": {
          "_tokens": "List of addresses of ERC20 or ERC20Basic token contracts to refund."
        }
      },
      "renounceOwnership()": {
        "details": "Allows the current owner to relinquish control of the contract."
      },
      "transferOwnership(address)": {
        "details": "Allows the current owner to transfer control of the contract to a newOwner.",
        "params": {
          "_newOwner": "The address to transfer ownership to."
        }
      }
    },
    "title": "TokenDestructible:"
  },
  "userdoc": {
    "methods": {
      "destroy(address[])": {
        "notice": "Terminate contract and refund to ownerThe called token contracts could try to re-enter this contract. Only supply token contracts you trust."
      },
      "renounceOwnership()": {
        "notice": "Renouncing to ownership will leave the contract without an owner. It will not be possible to call the functions with the `onlyOwner` modifier anymore."
      }
    }
  }
}